:400000000080002011000000F9030000F903000008B5044B1A6803F53F5302331A6000F0F3F900BFFA46004010B5054C237833B9044B13B10448AFF300800123237010BD93
:400040003081FF1F00000000D8070000084B10B51BB108490848AFF300800848036803B910BD074B002BFBD0BDE81040184700BF000000003481FF1FD8070000C880FF1F74
:400080000000000008B562B6034800F045FB00F0D3FA00F06DF8FEE74D01000008B530384A2852D8DFE800F03A3035515151515151515151515151515151515151515151EF
:4000C000515151515151515151515151515151515151515151515151515151475151515151515151515151515126515151514D2B42513D007D21012000F052F808BD7E2102
:40010000012000F04DF808BD7F21012000F048F808BD8021012000F043F808BD00F036F808BD0021084600F03BF808BDB421002000F036F808BD4FF47A71002000F030F8C4
:4001400008BD9621002000F02BF808BD38B500F087FA044609E000F07DFA054600F08CFA2846FFF79BFF013CE4B2002CF3D138BD08B500F023FA00F013FA4FF47A7000F0B8
:40018000B1F94FF47A7000F0B3F908BD08B54FF47A7000F0A7F94FF47A7000F0A9F908BD08B5002905DBB1F57A7FA8BF4FF47A7100E0002128B901F57A7080B200F092F9A0
:4001C00008BD012805D101F57A7080B200F090F908BD024800F066FA08BD00BFDC070000FEE700BFF0B40022174611E050F82760F3B226F0FF0608E001EB420511F812402D
:400200006D78A5550132013BDBB2002BF4D10137112FEBD9F0BC7047064B1B78DBB203F00701054A11701B09013213704422034B1A707047CF0100496E580040765800401C
:4002400008B50A46002100F0BEFA08BD38B51722264B1A801823264A1370332102321180023213700222234B1A7008224FF040231A70032103F5007319701F4B1B78DBB2A0
:400280001E490B701E4B1A8041F25122023B1A80002419250CE01B4B1B7803F0010343EA440404F003044FF4F07000F045FA013D0DB1032CEFD115B90320FFF791FF124B9D
:4002C0004FF480721A8007221A7000220F490A704820023108701A700222033B1A700C4A137843F00303137038BD00BF80400040824000400043004008010049A1460040B0
:4003000022420040254200400440004006400040A243004008B500F04BFA08BD38B572B6284A137843F00403137000240CE0264D630019194A0011462A44084691882858AF
:40034000FFF77EFF0134E4B2072CF0D91F494FF09040FFF747FF1E4A137843F0020313701032137843F0020313701A4C237843F040032370A2F58632513A137843F01003A5
:4003800013700A2214491548FFF7C4FF082214491448FFF7BFFF144A137843F008031370124D61232B70FFF751FF81232B7001220F4B1A70FFF730FF0E2221460D48FFF7C9
:4003C000A9FF38BDE8460040FC0700004800004803500140A043004030040048C05100403C04004812510040224300400048004004000840B043004008B500F0ADF9036846
:400400000C2B00D1FEE7FEE708B5104E104D16E029686B68AC68002204E051F8040B43F8040B0432A242F8D1E868002203E0002143F8041B04328242F9D11035013E002E33
:40044000E6D100F08FF9FFF71DFEFEE7010000005408000008B5104A104B1A60104A136843F40073136000230AE0032B03D80D4A52F8231000E00C490C4A42F82310013306
:400480002F2BF2D90A4B1A780A4B1A70074A0A4B1A60FFF743FF08BD0004FA050CED00E014ED00E000000000F90300000080FF1FBC760040C080FF1F08ED00E0024A137861
:4004C00043F080031370704779640040014B1880704700BF10680040014B1880704700BF90680040014B1880704700BF50680040014B1880704700BF70680040014B1870B3
:40050000704700BF89650040014B1878704700BF69650040014B188880B27047B068004008B501E0FFF7F6FFFFF7EEFF10F0100FF8D108BD08B5184A137803F0C00343F0DE
:40054000090313701F32137843F0010313700132137843F00103137044F61F60FFF7B6FF44F61F60FFF7B8FF4FF47A70FFF7BAFF4FF47A70FFF7BCFF0020FFF7BFFF00F096
:40058000E3F8064A137843F01003137000F0E0F8FFF7C6FF08BD00BF796400409965004008B5054B1B7823B9FFF7C4FF0122024B1A70FFF783FF08BD4C81FF1F054A137829
:4005C00043F0010313701032137843F001031370704700BFA24300407222084B1A70202203F580731A7006225E3B1A70472210331A70002250331A70704700BF88640040A5
:4006000010B500F0A1F804460A4A137843F02003137002F58072137843F0100313700232137843F01003137000F04EF8204600F08FF810BD9864004008B5054B1B7823B90D
:40064000FFF7CAFF0122024B1A70FFF7D9FF08BD4D81FF1F014B1878704700BF48650040044B1B7813F0200F01D0012070470020704700BF68650040024B1B780BB1024BBA
:40068000187070474D81FF1F49650040034B1B7813F0040FFAD1024B187070476A6500404965004038B5074B1B782BB938BDFFF7EDFF0134A4B201E005460024285D0028C1
:4006C000F5D138BD4D81FF1F054A137843F0020313701032137843F002031370704700BFA2430040014B1B681864704708ED00E04001C0B2014B1870704700BF00E400E003
:400700000122014B1A60704700E100E00122014B1A60704780E100E010B50446FFF7F6FF2046FFF7DFFF0720FFF7E2FFFFF7E8FF10BD00BF000000000230800803D000BF90
:4007400001380046FCD17047EFF3108072B6704780F31088704700BF014B1868704700BF2C81FF1F0E4B70B51E460E4C0025E41AA410A54204D056F8253098470135F8E732
:4007800000F056F8084B094C1E46E41AA4100025A54204D056F8253098470135F8E770BD3C0800003C0800003C0800004408000010B5431E0A44914204D011F8014B03F816
:4007C000014FF8E710BD03460244934202D003F8011BFAE77047000000000000596F752068617665206D6164652061206772617665206D697374616B650D0A0000510040F4
:400800001000205100405000F0510040100000000140001000140140000800400140000A004C0140000200500140200043000000F8B500BFF8BC08BC9E4670474D0000008E
:4008400055040000F8B500BFF8BC08BC9E4670472900000068080000C880FF1F68000000200000000000000000000000000000000000000000000000000000000000000019
:400880000000000000000000000000002C08000000000000000000000000000000000000000000000000000000000000000000000000000000000000000000000000000004
:4008C000000000000000000000000000CC80FF1F0000000000000000000000000000000000000000000000000000000000000000000000000000000000000000000000008E
:4009000000000000000000000000000000000000000000000000000000000000000000000000000000000000000000000000000000000000000000000000000000000000B7
:400940000000000000000000000000000000000000000000000000000000000000000000000000000000000000000000000000000000000000000000000000000000000077
:400980000000000000000000000000000000000000000000000000000000000000000000000000000000000000000000000000000000000000000000000000000000000037
:4009C00000000000000000000000000000000000000000000000000000000000000000000000000000000000000000000000000000000000000000000000000000000000F7
:020000040003F7
:0200000480007A
:40000000045200400164004003650040010501405C08014037090140020B01406118014041190140551A0140461B0140024001400141014002420140064C0140094D0140C6
:400040000450014001510140088009406180644088728838890F8A0FE2800201040605010618081A09010A040C101101141E181A1A041E0422012408281830013101341C36
:4000800036023A203B083E414010410649FF4AFF4BFF4DA04F04501856025713580459045A045B045C115D105F01604062C06440654066C068C06AC06CC06EC08802930264
:4000C00097019B049E049F01A207A904B002B201B301B404B504B702BF04C010C106C5D5C601C702C817C9FFCAFFCBFFCDAFCE0FCF04D018D280D804D904DA04DB04DF0174
:40010000E040E2C0E440E540E6C0E8C0EAC0ECC0EEC000100540076409800D280E020F1010801640171818181A801D201E011F0121802214230125092601292030203182BE
:40014000320837013A203B203D103E0441804580482049014A084E08508052085E016D106E0C6F0171027540762877189C40C0F2C2E1C478CA04CC8FCE60D018D224D680AC
:400180008840E28002180408060408100A04122014191A201C181E02221926192819300132203418360638023E444024410642054401450E460C480549FF4AFF4BFF4C629E
:4001C0004DA04EF04F41500C5418560458045A045B045C015D115F016640670269106A306B106D106E106F128153830C852087458D0A8F54955397049B089D039E019F442F
:40020000A603A804B001B10FB204B340B402B530B920BB02BE04BF04C042C103C5C0C6B0C70EC81AC9FFCAFFCBFFCEF0CF44D00CD407D804D904DA04DB04DC10DD01DF011E
:40024000E6C0EA40EB02051806800B010E810F181020120415011724188019241D801E801F24200821012229308031083220384C39024004410945814680472048804E024A
:400280004F1852145308564059015AA85D026440670A89028B208E48911192A8933399419A089C409D209E409F64A020A101A204A804B121C070C2F1C476CC0ECE0BD0B72F
:4002C000D230D68FD8B0EC010409061007130A030C1C0D6C0E020F0310101131120C1346140C15311611170E1B4C1C101F0824142980310F321F334A3580373039803B0AC7
:400300003F504001460449FF4A074BFF4C404D204EF04F0550085401580459045A045B045C115D115F01604061A86240632081E7831884128508860D882489FF8A0A8FE316
:400340009304953C97C2983E99809C089D109E30A1DCA321A518A83EA944ADC0B138B238B3D8B406B51FB601BB28D804D904DC11DF01005802200518080109880E091210FA
:40038000151018101B081C201D101E02204021482304260227642B082D812F1430013188322135503601370438483E883F11414050045180580259045A405B10870488102E
:4003C00089888A018B048F2191119242933094489601980299449A989B109D189F64A004A204A508A602A882AB18B440C067C2CDC444CAF4CCFFCEFAD008D60FE0023040CC
:40040000CC109C4088409C405C016220A220AA20D601D8021040710285028840B401C408DC01E201EC0800030C0310031C03000380004080800080000000000000CBCB00E0
:40044000C0000000000000000000000000000000000000000000000000000000000000000000000000000000000000000000000000000000000000000000000000000000BC
:40048000000000000000000000000000000000000000000000000000000000000000000000000000000000000000000000000000000000000000000000000000000000003C
:4004C00000000000000000000000000000000000000000000000000000000000000000000000000000000000000000000000000000000000000000000000000000000000FC
:4005000000000000000000000000000000000000000000000000000000000000000000000000000000000000000000000000000000000000000000000000000000000000BB
:40054000000000000000000000000000000000000000000000000000000000000000000000000000000000000000000000000000000000000000000000000000000000007B
:0200000490006A
:0400000000004005B7
:0200000490105A
:04000000BC90ACAF55
:0200000490303A
:02000000463583
:0200000490402A
:4000000000000000000000000000000000000000000000000000000000000000000000000000000000000000000000000000000000000000000000000000000000000000C0
:400040000000000000000000000000000000000000000000000000000000000000000000000000000000000000000000000000000000000000000000000000000000000080
:400080000000000000000000000000000000000000000000000000000000000000000000000000000000000000000000000000000000000000000000000000000000000040
:4000C0000000000000000000000000000000000000000000000000000000000000000000000000000000000000000000000000000000000000000000000000000000000000
:0200000490501A
:0C00000000012E16106900012E1A569EF9
:00000001FF