:4000000000800020110000003D0400003D04000008B5044B1A6803F53F5302331A6000F02DFA00BFFA46004010B5054C237833B9044B13B10448AFF300800123237010BDCE
:400040008081FF1F00000000DC450000084B10B51BB108490848AFF300800848036803B910BD074B002BFBD0BDE81040184700BF000000008481FF1FDC450000C880FF1F50
:400080000000000038B50D4D2C684FF07E51204601F094FE28602146094800F081F8044601F0D0FB02460B460649074802F02AFEAA22C821204600F057F838BD9C81FF1FE4
:4000C000CDCCCC3DE0450000C881FF1F08B562B600F06AFA00F020F841F2883000F09EFAC821012000F020F8AA21022000F01CF84FF4FA6000F092FA014800F0BFFAFEE73B
:400100008500000008B54FF47A7000F0D9FA4FF47A7000F0DBFA08BD08B500F009FA00F02BFBFFF7EFFF08BD08B5002905DBB1F57A7FA8BF4FF47A7100E00021012805D16D
:4001400001F57A7080B200F0BBFA08BD022805D101F57A7080B200F0B9FA08BD014800F03DFA08BDE845000038B504461546084601F0D8FE214601F021FE02F0EDF80146EB
:400180000120FFF7D1FF284601F0CCFE214601F013FE02F0E1F801460220FFF7C5FF38BD70B50E4601F04EFB0BA3D3E9002301F09DFB04460D46304601F044FB22462B46FE
:4001C00001F094FB01F0A4FD00F0F6FA044901F0FDFE70BDAFF30080182D4454FB2119400000F042FEE700BFF0B40022174611E050F82760F3B226F0FF0608E001EB42059F
:4002000011F812406D78A5550132013BDBB2002BF4D101371D2FEBD9F0BC7047064B1B78DBB203F00701054A11701B09013213704422034B1A707047CF0100496E580040C3
:400240007658004008B50A46002102F0E2F808BD38B50024314B1C80582202331A70012202331A8018232E4A1370172102321180023213703321023211800232137040F271
:400280002B11023211800232137042F23032254B1A80192502331D70022203F26A231A7008224FF040231A70032103F5007319701D4B1B78DBB21D490B701D4B1A8041F2AA
:4002C0005122023B1A800CE01A4B1B7803F0010343EA440404F003044FF4F07000F05CFA013D0DB1032CEFD115B90320FFF77AFF114B4FF480721A8007221A7000220F49DD
:400300000A704820023108701A700222033B1A700B4A137843F03F03137038BD80400040864000409440004008010049A14600402242004025420040044000400640004005
:40034000A243004008B502F059F808BD38B572B62B4A137843F00403137000240CE0294D630019194A0011462A44084691882858FFF768FF0134E4B2072CF0D922494FF0E2
:400380009040FFF731FF214A137843F0020313701032137843F0020313701D4C237843F040032370A2F58632513A137843F0100313700A2217491848FFF7C4FF08221749A4
:4003C0001748FFF7BFFF082216491748FFF7BAFF164A137843F008031370154D61232B70FFF736FF81232B700122124B1A70FFF715FF0E2221461048FFF7A4FF38BD00BF6C
:40040000E8460040084600007800004803500140A0430040A4070048C0510040B007004812510040B807004822510040224300400048004004000840B043004008B501F08F
:40044000B1FF03680C2B00D1FEE7FEE708B5094B1A681044084BC31AB3F5007F02DC054B186005E001F09EFF0C2303604FF0FF32104608BDCC80FF1FD882FF1F08B5104E1E
:40048000104D16E029686B68AC68002204E051F8040B43F8040B0432A242F8D1E868002203E0002143F8041B04328242F9D11035013E002EE6D101F07BFFFFF707FEFEE79E
:4004C00001000000904B000008B5104A104B1A60104A136843F40073136000230AE0032B03D80D4A52F8231000E00C490C4A42F8231001332F2BF2D90A4B1A780A4B1A7041
:40050000074A0A4B1A60FFF721FF08BD0004FA050CED00E014ED00E0000000003D0400000080FF1FBC760040C080FF1F08ED00E0054A137843F0040313701032137843F0E8
:4005400004031370704700BFA24300407222074B1A70202203331A7006229E331A70472210331A70002250331A7070478864004010B500F019F904460A4A137843F02003D3
:4005800013700332137843F010031370FE32137843F01003137000F033F8204600F008F910BD00BF9864004008B5054B1B7823B9FFF7CCFF0122024B1A70FFF7D9FF08BDA7
:4005C000BC81FF1F034B1B7813F0040FFAD1024B18707047696500404A65004038B5074B1B782BB938BDFFF7EDFF0134A4B201E005460024285D0028F5D138BDBC81FF1F2A
:40060000054A137843F0080313701032137843F008031370704700BFA243004010B5044605E0084B186800F0B7F8A4F50044B4F5004FF6D8034B586800FB04F000F0ACF85C
:4006400010BD00BFD080FF1F014B1B681864704708ED00E04001C0B2014B1870704700BF00E400E00122014B1A60704700E100E00122014B1A60704780E100E010B5044697
:40068000FFF7F6FF2046FFF7DFFF0720FFF7E2FFFFF7E8FF10BD00BF024A137843F08003137070477E640040014B1880704700BF1C680040014B1880704700BF9C68004009
:4006C000014B1880704700BF5C680040014B1880704700BF7C680040014B1870704700BF8F640040014B1878704700BF6F640040014B188880B27047BC68004008B501E065
:40070000FFF7F6FFFFF7EEFF10F0100FF8D108BD10B5174A137803F0C00343F0090313702032137843F001031370124C237843F00103237044F61F60FFF7B6FF44F61F609E
:40074000FFF7B8FF4FF47A70FFF7BAFF4FF47A70FFF7BCFF0020FFF7BFFF00F025F8237843F01003237000F023F8FFF7C7FF10BD7E6400409F64004008B5054B1B7823B948
:40078000FFF7C6FF0122024B1A70FFF785FF08BDBE81FF1F000000000230800803D000BF01380046FCD17047EFF3108072B6704780F31088704700BF00B51D4A20F0004358
:4007C000934283B019DDB3F1FF4F05DB014601F0F3FA03B05DF804FB694600F02BF800F00300012818D002280ED0D0B10199009800F092F900F10040EBE70022002100F0CB
:400800009FFD03B05DF804FB01220199009800F097FD00F10040DCE70199009800F07CF9D7E701220199009800F08AFDD1E700BFD80F493F2DE9F04FAA4A20F000449442CE
:4008400089B067DDA84A0D469442074601461CDC0028A64940F3EA8001F0AEFAA44B24F00F049C42064663D0A24901F0A5FA01463046296001F0A0FA9E4901F09DFA0123B5
:400880006860184609B0BDE8F08F9B4A944261DDB4F1FF4F46DAE615863EA4EBC654204601F05AFD01F03EFB034620461946059301F082FA4FF0874101F088FB804601F0A4
:4008C0004BFD01F02FFB044640462146069401F073FA4FF0874101F079FB0021079001F009FD002800F0C3802046002101F002FD002814BF01230223804802210190009128
:400900003246294605A800F0CBF9002FC0F2A580034603E0002208604A600023184609B0BDE8F08F01F048FA002368602860F5E7734901F041FA7349044601F03DFA0146CC
:400940002046296001F038FA6E4901F035FA01236860E3E700F06AFD6B49804601F036FB4FF07C5101F02AFA01F0F6FC064601F0D9FA5E49834601F029FB0146404601F08E
:400980001BFA5C498146584601F020FB1F2E82460146484618DC5D4B721E53F8223024F0FF029A4210D001F007FA8046C5F800804146484601F000FA514601F0FDF9002FE6
:4009C000686056DB3346A9E701F0F6F9E215C0F3C753D31A082B8046E8DD49495846039201F0F4FA80460146484601F0E5F901460446484601F0E0F9414601F0DDF980469B
:400A00004049584601F0E2FA414601F0D5F901468246204601F0D0F9039AC0F3C753D21A192A804641DC2860A146C1E701F0C6F92F4B24F00F049C42064623D02D4901F0E5
:400A4000BDF901463046296001F0B6F9294901F0B5F94FF0FF33686060E795E80C0002F1004103F10042296043426A6056E7032342E708F1004800F10040C5F8008068607B
:400A800073424BE71E4901F099F91E49044601F095F901462046296001F08EF9194901F08DF94FF0FF33686038E71949584601F08DFA01468046204601F07EF901468146F5
:400AC000204601F079F9414601F076F904461149584601F07BFA214601F06EF982460146484660E7D80F493FE3CB1640800FC93FD00FC93F43443537800F4943B8460000FE
:400B00000044353708A3852E84F9223F3846000000A3852E32318D242DE9F84320F00044B4F1485F06460F4649DA01F015FC002800F09D803146304601F048FA05464E49F3
:400B400001F044FA4D4901F039F9294601F03EFA4B4901F031F9294601F038FA494901F02DF9294601F032FA474901F025F9294601F02CFA454901F021F9294601F026FA41
:400B800080464FF07C51284601F020FA41460446284601F01BFA39460546304601F016FA0146284601F008F90146204601F004F901464FF07E5001F0FFF8BDE8F88301467F
:400BC00001F004FA05462C4901F000FA2B4901F0F5F8294601F0FAF9294901F0EDF8294601F0F4F9274901F0E9F8294601F0EEF9254901F0E1F8294601F0E8F9234901F0C2
:400C0000DDF8294601F0E2F9214B80469C42B8DD204B9C4227DC04F17F4421464FF07E5001F0CAF881464FF07C51284601F0CEF9214601F0C1F841460446284601F0C6F9DB
:400C400039460546304601F0C1F90146284601F0B3F80146204601F0AFF80146484601F0ABF8BDE8F883DFF834900B4CDBE74FF07E50BDE8F88300BF4ED747ADF6740F3107
:400C80007CF29334010DD037610BB63AABAA2A3D9999993E0000483F0000903E0000383F2DE9F04F1C46DFB00891611E01910A936899BB4B029053F821300793D31E48BFA9
:400CC000131DDB1023EAE37319460B930133A2EBC3030693019A079B8D1A9C1815D42C44013421AE699F08E057F8250001F01AF90135A54246F8040F07D0002DF4DA013586
:400D00000020A54246F8040FF7D1079B002B2ADB079B0A9A19469346019E49AF01EB0208019B002BC0F2A18122ABCBEB060503EB8505029B4FF00009A3F1040A22AB03EBD3
:400D400086045AF8041F54F8040901F03FF90146484601F033F8AC428146F2D10136464547F8049FDCD1079B0EA91E4603F18043023B9B001A1D0A440B440D920C935EABD1
:400D800003EB8603002E53F8508C23DD5EAB03EB8604543C0DAD49AF4FF06E51404601F015F901F0D9FA01F0BDF84FF08741814601F00CF90146404600F0FEFF01F0CCFA82
:400DC00054F8041945F8040F484600F0F7FFBC428046E1D14046DDF81880414600F070FB4FF07851044601F0F1F800F023FB4FF0824101F0EBF80146204600F0DDFF0446A8
:400E000001F0AAFA074601F08DF801462046444600F0D2FF002C054640F30E81701E0EAB53F82030C8F1080243FA02F101FA02F29B1AC8F1070A0EAA42F820300F4443FA14
:400E40000AFABAF1000F30DD002E07F1010740F34D82002214460DA907E0C3F580700BB108600124013296420BDD51F8043F002CF3D00132C3F1FF0396420B604FF001048F
:400E8000F3DC069B002B0DDD012B00F0DD80022B08D1721E0EAB53F822300EA903F03F0341F82230BAF1020F7CD00021284601F021FA002800F09080079B741EA34210DC01
:400EC00006F180430EAA013B0D9802EB8303002253F80419834242EA0102F9D1002A40F0DE80079B0EAA013B52F82330002B40F0FB810C9B012753F804290137002AFAD0AF
:400F0000F219731C9342099240DC0B9AB90003EB02080A9A08F1804803916999164408F1FF38B20001EB880822A99B00049201EB020A4AAA02EB0309043B0593002658F854
:400F4000040F00F0EFFF019B4AF8040B002B1FDB049B0027F418059BF51822AB1C441D44029BA3F1040B5BF8041F54F8040901F02DF80146384600F021FFAC420746F2D169
:400F8000039B04369E4249F8047BD8D1099EF6E6039B043600279E4249F8047BCFD1F5E7D049000029464FF07E5000F005FF0546002C3FF47AAF06994FF07E5000F080FA00
:400FC0000146284600F0F8FE05460021284601F091F900287FF470AF0297069F2846794200F06EFA4FF08741044601F0A1F9002800F081814FF06E51204600F0E7FF01F067
:40100000ABF900F08FFF4FF08741054600F0DEFF0146204600F0D0FE01F09EF90EAB43F82600284601F098F93B460833741C06930EAB43F8240047E010D1731E0EAA52F8DA
:4010400023304FEA232AFCE6721E0EAB53F822300EA903F07F0341F8223023E74FF07C5101F066F950B982461FE701364FF00009464547F8049F7FF453AE74E6002E07F1FB
:401080000107C8BF4FF0020A3FF7E3AE29464FF07E5000F091FE4FF0020A054605E7069A0EAB53F82430083A0297069263B904F18043013B0EA901EB830353F80419013CC9
:4010C000083A0029F9D0069206994FF07E5000F0F7F9002C0546C0F21881A3004AAA1F1D02EB030901930EAB1F4409F1040657F8040D00F017FF294600F068FF4FF06E512C
:4011000046F8040D284600F061FF0EAB9F420546EDD1A346DDF81C80A9F104090027CDF80CA0B8F1000FB8BF002615DB824CCA4682480026002503E0AF420DDB54F8040F13
:401140005AF8041F00F042FF0146304600F036FE0135A8450646EFDA5EAB03EB8703A9F1040943F8A06C48AB994507F10107D8D1689B5C46DDF80CA0032B5AD8DFE803F087
:401180008D5F5F02002C40F3BE80019A5EA98B1836AE53F8A07CB51855F8049C3946484600F00CFE80460146484600F005FE394600F004FE286045F8048DAE424746EBD166
:4011C000012C40F3A080019B5EAAF418254602EB030858F8A06C0DF1DC0955F8048C3046414600F0EBFD07460146404600F0E4FD314600F0E3FD286045F8047DA9453E4681
:40120000EBD10020043438AD54F8041D00F0D6FDA542F9D1BAF1000F6AD0369A379B00F1004002F1004203F10043089CA06022606360029B03F007005FB0BDE8F08F019D50
:4012400036AE04353544002055F8041D00F0B6FDB542F9D1BAF1000F39D0089A00F1004301461360369800F0A7FD002C0BDD36AE0125013556F8041F00F0A0FDAC42F8DA1F
:40128000BAF1000F50D0089A00F100435360029B03F007005FB0BDE8F08F019B5EAA13440020A3F19C05013C55F8041D00F086FD631CF8D1BAF1000F01D000F10040089BEC
:4012C0001860029B03F007005FB0BDE8F08F089B01461860369800F06FFD002CD8BF0346C5DC089A5360D2E7012709E60024C8E5369A379B99E7204601F02EF80EAB3446AB
:4013000043F82600E0E6002084E7689B032B90D801A252F823F000BF351300003113000031130000071300000346089A5360AEE700208FE70020BDE7DC4900000000C93FFF
:401340002DE9F84320F00043B3F1485F04460F46904603DA01F000F8002858D02146204600F034FE05460146204600F02FFE29490646284600F02AFE274900F01DFD2946C2
:4013800000F024FE254900F019FD294600F01EFE234900F011FD294600F018FE214900F00DFD8146B8F1000F22D04FF07C51384600F00CFE49468046304600F007FE0146ED
:4013C000404600F0F9FC294600F000FE394600F0F3FC15490546304600F0F8FD0146284600F0ECFC0146204600F0E6FCBDE8F8830146284600F0EAFD0B4900F0DDFC314677
:4014000000F0E4FD214600F0D9FCBDE8F8832046BDE8F883D3C92E2F342FD7321BEF3836010D50398988083CABAA2A3E20F00040704700BF2DE9F04120F00047FC0D7F3C5B
:40144000162C054613DC002C80461BDB194F2741384214D0184900F0B1FC002100F072FF68B1002D1BDB28EA0700BDE8F081B7F1FF4F04D3014600F0A1FCBDE8F0812846CA
:40148000BDE8F0810C4900F099FC002100F05AFF0028F4D0002D08DB0020BDE8F0814FF4000343FA04F4A044DDE7002FE7D00348BDE8F081FFFF7F00CAF24971000080BF04
:4014C00030F0004238B5034616D0B2F1FF4F0FD2B2F5000F0D4610D30446D20D2A44FE2A2EDC002A1DDD24F0FF4444EAC25038BD014600F063FC38BD38BD4FF0984100F0AF
:4015000065FD184A0346954207DBC0F3C7520446193AE3E7144800F02BF8134900F056FD38BD12F1160F13DA4CF2503295421946F0DD0E4800F01CF80C4900F047FD38BDFF
:4015400019460A4800F014F8084900F03FFD38BD193224F0FF4040EAC2504FF04C5100F035FD38BDB03CFFFF6042A20DCAF2497101F0004120F000400843704781F0004198
:4015800002E000BF83F0004330B54FEA41044FEA430594EA050F08BF90EA020F1FBF54EA000C55EA020C7FEA645C7FEA655C00F0E2804FEA5454D4EB5555B8BF6D420CDD99
:4015C0002C4480EA020281EA030382EA000083EA010180EA020281EA0303362D88BF30BD11F0004F4FEA01314FF4801C4CEA113102D0404261EB410113F0004F4FEA033396
:401600004CEA133302D0524263EB430394EA050F00F0A780A4F10104D5F1200E0DDB02FA0EFC22FA05F2801841F1000103FA0EF2801843FA05F359410EE0A5F120050EF125
:40164000200E012A03FA0EFC28BF4CF0020C43FA05F3C01851EBE37101F0004507D54FF0000EDCF1000C7EEB00006EEB0101B1F5801F1BD3B1F5001F0CD349085FEA30009F
:401680004FEA3C0C04F101044FEA445212F5800F80F09A80BCF1004F08BF5FEA500C50F1000041EB045141EA050130BD5FEA4C0C404141EB010111F4801FA4F10104E9D130
:4016C00091F0000F04BF01460020B1FA81F308BF2033A3F10B03B3F120020CDA0C3208DD02F1140CC2F10C0201FA0CF021FA02F10CE002F11402D8BFC2F1200C01FA02F154
:4017000020FA0CFCDCBF41EA0C019040E41AA2BF01EB0451294330BD6FEA04041F3C1CDA0C340EDC04F11404C4F1200220FA04F001FA02F340EA030021FA04F345EA0301BB
:4017400030BDC4F10C04C4F1200220FA02F001FA04F340EA0300294630BD21FA04F0294630BD94F0000F83F4801306BF81F480110134013D4EE77FEA645C18BF7FEA655CB4
:4017800029D094EA050F08BF90EA020F05D054EA000C04BF1946104630BD91EA030F1EBF0021002030BD5FEA545C05D14000494128BF41F0004130BD14F580043CBF01F5D3
:4017C000801130BD01F0004545F0FE4141F470014FF0000030BD7FEA645C1ABF194610467FEA655C1CBF0B46024650EA013406BF52EA033591EA030F41F4002130BD00BF63
:4018000090F0000F04BF0021704730B54FF4806404F132044FF000054FF0000150E700BF90F0000F04BF0021704730B54FF4806404F1320410F0004548BF40424FF000015E
:401840003EE700BF42004FEAE2014FEA31014FEA02701FBF12F07F4393F07F4F81F06051704792F0000F14BF93F07F4F704730B54FF4607401F0004521F0004120E700BF8E
:4018800050EA010208BF704730B54FF000050AE050EA010208BF704730B511F0004502D5404261EB41014FF4806404F132045FEA915C3FF4DCAE4FF003025FEADC0C18BFFC
:4018C00003325FEADC0C18BF033202EBDC02C2F1200300FA03FC20FA02F001FA03FE40EA0E0021FA02F11444C1E600BF70B54FF0FF0C4CF4E06C1CEA11541DBF1CEA135520
:4019000094EA0C0F95EA0C0F00F0DEF82C4481EA030621EA4C5123EA4C5350EA013518BF52EA033541F4801143F4801338D0A0FB02CE4FF00005E1FB02E506F00042E0FB9E
:4019400003E54FF00006E1FB03569CF0000F18BF4EF0010EA4F1FF04B6F5007F64F5407404D25FEA4E0E6D4146EB060642EAC62141EA55514FEAC52040EA5E504FEACE2E02
:40198000B4F1FD0C88BFBCF5E06F1ED8BEF1004F08BF5FEA500E50F1000041EB045170BD06F0004646EA010140EA020081EA0301B4EB5C04C2BFD4EB0C0541EA045170BDDB
:4019C00041F480114FF0000E013C00F3AB8014F1360FDEBF002001F0004170BDC4F10004203C35DA0C341BDC04F11404C4F1200500FA05F320FA04F001FA05F240EA0200B3
:401A000001F0004221F0004110EBD37021FA04F642EB06015EEA430E08BF20EAD37070BDC4F10C04C4F1200500FA04F320FA05F001FA04F240EA020001F0004110EBD37094
:401A400041F100015EEA430E08BF20EAD37070BDC4F1200500FA05F24EEA020E20FA04F301FA05F243EA020321FA04F001F0004121FA04F220EA020000EBD3705EEA430EEC
:401A800008BF20EAD37070BD94F0000F0FD101F00046400041EB010111F4801F08BF013CF7D041EA060195F0000F18BF704703F00046520043EB030313F4801F08BF013DA0
:401AC000F7D043EA0603704794EA0C0F0CEA135518BF95EA0C0F0CD050EA410618BF52EA4306D1D181EA030101F000414FF0000070BD50EA410606BF1046194652EA4306E2
:401B000019D094EA0C0F02D150EA013613D195EA0C0F05D152EA03361CBF104619460AD181EA030101F0004141F0FE4141F470014FF0000070BD41F0FE4141F4780170BD3D
:401B400070B54FF0FF0C4CF4E06C1CEA11541DBF1CEA135594EA0C0F95EA0C0F00F0A7F8A4EB050481EA030E52EA03354FEA013100F088804FEA03334FF0805545EA131330
:401B800043EA12634FEA022245EA111545EA10654FEA00260EF000419D4208BF964244F1FD0404F5407402D25B084FEA3202B61A65EB03055B084FEA32024FF480104FF47C
:401BC000002CB6EB020E75EB030E22BFB61A754640EA0C005B084FEA3202B6EB020E75EB030E22BFB61A754640EA5C005B084FEA3202B6EB020E75EB030E22BFB61A7546B3
:401C000040EA9C005B084FEA3202B6EB020E75EB030E22BFB61A754640EADC0055EA060E18D04FEA051545EA16754FEA06164FEAC30343EA52734FEAC2025FEA1C1CC0D1DD
:401C400011F4801F0BD141EA00014FF000004FF0004CB6E711F4801F04BF01430020B4F1FD0C88BFBCF5E06F3FF6AFAEB5EB030C04BFB6EB020C5FEA500C50F1000041EBCC
:401C8000045170BD0EF0004E4EEA113114EB5C04C2BFD4EB0C0541EA045170BD41F480114FF0000E013C90E645EA060E8DE60CEA135594EA0C0F08BF95EA0C0F3FF43BAF8E
:401CC00094EA0C0F0AD150EA01347FF434AF95EA0C0F7FF425AF104619462CE795EA0C0F06D152EA03353FF4FDAE1046194622E750EA410618BF52EA43067FF4C5AE50EA84
:401D000041047FF40DAF52EA43057FF4EBAE12E74FEA4102B2F1E04324BFB3F5001CDCF1FE5C0DD901F0004C4FEAC0024CEA5070B2F1004F40EB830008BF20F00100704753
:401D400011F0804F21D113F13872BCBF01F00040704741F480114FEA5252C2F11802C2F1200C10FA0CF320FA02F018BF40F001004FEAC1234FEAD32303FA0CFC40EA0C009D
:401D800023FA02F34FEA4303CCE77FEA625307D150EA01331EBF4FF0FE4040F44000704701F0004040F0FE4040F40000704700BF80F0004002E000BF81F0004142001FBF8A
:401DC0005FEA410392EA030F7FEA226C7FEA236C6AD04FEA1262D2EB1363C1BFD218414048404140B8BF5B42192B88BF704710F0004F40F4000020F07F4018BF404211F0C9
:401E0000004F41F4000121F07F4118BF494292EA030F3FD0A2F1010241FA03FC10EB0C00C3F1200301FA03F100F0004302D5494260EB4000B0F5000F13D3B0F1807F06D37D
:401E400040084FEA310102F10102FE2A51D2B1F1004F40EBC25008BF20F0010040EA03007047490040EB000010F4000FA2F10102EDD1B0FA80FCACF1080CB2EB0C0200FA2D
:401E80000CF0AABF00EBC25052421843BCBFD0401843704792F0000F81F4000106BF80F400000132013BB5E74FEA41037FEA226C18BF7FEA236C21D092EA030F04D092F0D1
:401EC000000F08BF0846704790EA010F1CBF0020704712F07F4F04D1400028BF40F00040704712F100723CBF00F50000704700F0004343F0FE4040F4000070477FEA226240
:401F000016BF08467FEA23630146420206BF5FEA412390EA010F40F4800070474FF0000304E000BF10F0004348BF40425FEA000C08BF704743F0964301464FF000001CE08B
:401F400050EA010208BF70474FF000030AE000BF50EA010208BF704711F0004302D5404261EB41015FEA010C02BF84460146002043F0B64308BFA3F18053A3F50003BCFAE2
:401F80008CF2083AA3EBC25310DB01FA02FC634400FA02FCC2F12002BCF1004F20FA02F243EB020008BF20F00100704702F1200201FA02FCC2F1200250EA4C0021FA02F225
:401FC00043EB020008BF20EADC7070474FF0FF0C1CEAD0521EBF1CEAD15392EA0C0F93EA0C0F6FD01A4480EA010C400218BF5FEA41211ED04FF0006343EA501043EA5111B1
:40200000A0FB01310CF00040B1F5000F3EBF490041EAD3715B0040EA010062F17F02FD2A1DD8B3F1004F40EBC25008BF20F00100704790F0000F0CF0004C08BF49024CEAD9
:40204000502040EA51207F3AC2BFD2F1FF0340EAC250704740F400004FF00003013A5DDC12F1190FDCBF00F000407047C2F10002410021FA02F1C2F1200200FA02FC5FEAB2
:40208000310040F1000053EA4C0308BF20EADC70704792F0000F00F0004C02BF400010F4000F013AF9D040EA0C0093F0000F01F0004C02BF490011F4000F013BF9D041EA26
:4020C0000C018FE70CEAD15392EA0C0F18BF93EA0C0F0AD030F0004C18BF31F0004CD8D180EA010000F00040704790F0000F17BF90F0004F084691F0000F91F0004F14D0F2
:4021000092EA0C0F01D142020FD193EA0C0F03D14B0218BF084608D180EA010000F0004040F0FE4040F40000704740F0FE4040F4400070474FF0FF0C1CEAD0521EBF1CEA79
:40214000D15392EA0C0F93EA0C0F69D0A2EB030280EA010C49024FEA402037D04FF0805343EA111143EA10130CF000408B4238BF5B0042F17D024FF4000C8B4224BF5B1AAD
:4021800040EA0C00B3EB510F24BFA3EB510340EA5C00B3EB910F24BFA3EB910340EA9C00B3EBD10F24BFA3EBD10340EADC001B0118BF5FEA1C1CE0D1FD2A3FF650AF8B4281
:4021C00040EBC25008BF20F0010070470CF0004C4CEA50207F32C2BFD2F1FF0340EAC250704740F400004FF00003013A37E792F0000F00F0004C02BF400010F4000F013A50
:40220000F9D040EA0C0093F0000F01F0004C02BF490011F4000F013BF9D041EA0C0195E70CEAD15392EA0C0F08D142027FF47DAF93EA0C0F7FF470AF084676E793EA0C0F1F
:4022400004D14B023FF44CAF08466EE730F0004C18BF31F0004CCAD130F000427FF45CAF31F000437FF43CAF5FE700BF4FF0FF3C06E000BF4FF0010C02E000BF4FF0010C21
:402280004DF804CD4FEA40024FEA41037FEA226C18BF7FEA236C11D001B052EA530C18BF90EA010F58BFB2EB030088BFC81738BF6FEAE17018BF40F0010070477FEA226C88
:4022C00002D15FEA402C05D17FEA236CE4D15FEA412CE1D05DF8040B704700BF844608466146FFE70FB5FFF7C9FF002848BF10F1000F0FBD4DF808EDFFF7F4FF0CBF012051
:4023000000205DF808FB00BF4DF808EDFFF7EAFF34BF012000205DF808FB00BF4DF808EDFFF7E0FF94BF012000205DF808FB00BF4DF808EDFFF7D2FF94BF012000205DF85E
:4023400008FB00BF4DF808EDFFF7C8FF34BF012000205DF808FB00BF4FEA4002B2F1FE4F0FD34FF09E03B3EB12620DD94FEA002343F0004310F0004F23FA02F018BF4042AB
:4023800070474FF00000704712F1610F01D1420205D110F0004008BF6FF0004070474FF000007047014B1868704700BF4081FF1F0E4B70B51E460E4C0025E41AA410A542A3
:4023C00004D056F8253098470135F8E702F0CEFB084B094C1E46E41AA4100025A54204D056F8253098470135F8E770BD784B0000784B0000784B0000804B000010B5431E1B
:402400000A44914204D011F8014B03F8014FF8E710BD03460244934202D003F8011BFAE770472DE9F04788B0149F002B1E461299B8BF03F1004327F02007B6BF1E4600231C
:402440002D23462F1446109DDDF84CA00B7003D0452F03D1013501E0032300E0022307AA049206AA03928DE828042246334600F003FD472F804602D1119BDB0728D5462FEA
:4024800008EB050911D198F80030302B0AD1002200232046314602F031F818B9C5F10105CAF80050DAF800309944002200232046314602F023F808B9302202E0CDF81C90F3
:4024C00006E0079B994503D9591C07911A70F8E74046079B159AC8EB0303136008B0BDE8F087034673B50029B8BF494203F8022BB4BF2D222B22092942701ADD0DF1070298
:4025000016460A2591FBF5F405FB1411092C01F1300102F8011D2146F4DC3031541E02F8011CB4421A460AD214F8012B03F8012BF7E71A463024214402F8024B5970101A23
:4025400002B070BD2DE9F04F91B00C46DDF8688016461F46054601F027FA03681846099300F0F4FB00230E93D8F800300A90073323F0070303F1080294F81890D4F800B012
:40258000C8F80020D3E90023C4E91223D4F84CA0D4F848802AF000430B934FF0FF32A74B40460B9901F0DCFFA0B94FF0FF32A34B40460B9901F0B6FF60B900220023404670
:4025C000514601F0A5FF10B12D2384F843309C4B9C4A0AE0424653464046514601F0C0FF002800F09281984B984AB9F1470F8CBF90469846032323612BF0040323604FF08D
:40260000000A3DE0B9F1670F00F08A81B9F1470F00F0868123600193636800210DF13302059002920093424653460691CDF81090CDF80CE02846FFF7F4FE09F0DF03472BFE
:40264000804600F08481B9F1650F0D9900F28D8101394A4604F150000D91FFF742FF0E9A82468318012A236100F37C812268D10700F178819DF8333013B12D2384F8433006
:40268000009733460FAA2146284600F09FF9013002D14FF0FF3096E123685A0501D4236965E0B9F1650F40F2D580D4E912010022002301F023FF78B30123654A31462846CB
:4026C000B8470130E5D00E9B0D9A9A420BDB2368D80708D423689B0740F111814FF0000804F1190906E10A9B099A31462846B8470130CED04FF0000804F11A090E9B013B29
:402700009845E7DA01234A4631462846B8470130BFD008F10108F1E70D9B002B29DC01234B4A31462846B8470130B2D00D9B23B90E9B13B92368D907CCD50A9B099A3146DD
:402740002846B8470130A4D04FF0000904F11A0A0D9B5B42994509DA0123524631462846B847013095D009F10109F1E70E9B4246A7E00E9AA36D9A42A8BF1A46002A9146BA
:4027800006DC4FF0000A29EAE97904F11A0B11E01346314642462846B8470130F1D178E701235A4631462846B84701303FF471AF0AF1010AA36DC9EB03029245F0DB08EBC7
:4027C00003090D9A0E9B9A420FDB2368DA070CD40E9B0D9A9844C9EB08089B1A9845A8BF9846B8F1000F08DC0FE00A9B099A31462846B8470130EBD14BE743464A4631463E
:402800002846B84701303FF444AF4FF0000928EAE87804F11A0A09E00123524631462846B84701303FF435AF09F101090D9A0E9B9B1AC8EB03039945EEDB4BE7FFFFEF7F29
:402840000A4A00000E4A0000124A0000164A00001A4A00000E9A012A01DCDB0738D50123424631462846B84701303FF412AF0A9B099A31462846B84701303FF40AAFD4E932
:4028800012010022002301F039FE20B14FF0000804F11A090EE00E9B08F10102013B19E001234A4631462846B84701303FF4F1AE08F101080E9B013B9845F1DB534604F1E7
:4028C000500231462846B84701307FF403AFE0E64246012331462846B8470130EED1D8E601234A4631462846B84701303FF4D1AE08F10108E3680F9A9B1A9845F0DBE06832
:402900000F9B9842B8BF18465DE062680EA8531C0DF1340E4BF480637FF474AE062201E012B90122626075E6002106910DF133018DE80C00236005904246CDF81090CDF8D2
:402940000CE0029153462846FFF76BFD80460D9BD81C02DB626893421DDDA9F102095FFA89F970E60133236184E6B9F1660F14D10029636807DD216113B92268D2071DD524
:4029800001330B4419E013B92268D00701D5023313E0012311E04FF067090D9B0E9A934205DB22682361D10708D5013305E0002BD4BFC3F102030123134423610D9B4FF06E
:4029C000000AA36556E611B0BDE8F08F2DE9F04791461F460A698B6806469342B8BF1346C9F8003091F843200C46DDF8208012B10133C9F800302368990642BFD9F800300C
:402A00000233C9F80030256815F0060510D104F1190A07E00123524639463046C04701301AD00135E368D9F800209B1A9D42F1DB94F843302268003318BF012392060FD51B
:402A4000E118302081F843005A1C94F845102244023382F8431003E04FF0FF30BDE8F08704F1430239463046C0470130F4D02268D9F80050E36802F00602042A08BF5D1B9D
:402A80002269A3680CBF25EAE57500259342C4BF9B1AED184FF000091A344D4509D00123224639463046C0470130D5D009F10109F3E70020BDE8F0872DE9F04317460A7E6E
:402AC00085B06E2A984606460C460C9B01F1430E00F0AE8011D8632A22D009D8002A00F0BB80582A40F0CA8081F84520834955E0642A1ED0692A1CD0C0E0732A00F0B080B4
:402B000009D86F2A2ED0702A40F0B8800A6842F020020A603EE0752A24D0782A3AD0ADE01A6801F14205111D1960136884F84230A8E021681A6811F0800F02D0111D19609A
:402B400008E011F0400F02F10401196002D0B2F9003000E01368002B3CDA2D225B4284F8432037E021681A6811F0800F02D0111D196007E011F0400F02F10401196001D0F4
:402B8000138800E01368227E5C496F2A14BF0A2208221BE078225A4984F845202268186812F0800F00F104051D6003D1550601D5038800E00368D00744BF42F02002226062
:402BC0001BB9226822F0200222601022002084F8430001E049490A226568002DA56008DB206820F0040020602BB9002D7DD175460CE0002B79D07546B3FBF2F002FB10330E
:402C0000CB5C05F8013D03460028F5D1082A0BD12368DA0708D5236962689A42DEBF302305F8013C05F1FF35C5EB0E0323612EE008681A6810F0800F496903D0101D186020
:402C4000136808E010F0400F02F104001860136801D0198000E0196000232361754616E01A68111D1960156800216268284600F0A7FE08B1401B6060636804E004F142054A
:402C800084F8422001232361002384F84330CDF800803B4603AA21463046FFF797FE013002D14FF0FF3026E023692A4639463046C0470130F5D023689B0710D5002504F10F
:402CC000190907E001234A4639463046C0470130E7D00135E368039A9B1A9D42F2DBE068039B9842B8BF184605E00B7804F1420584F842308AE705B0BDE8F0831C4A0000E9
:402D00002D4A00000EB400B54FF402719CB0ADF814106FF00041049107914FF6FF711DAB02900690084853F8042BADF81610006802A9019301F03AFA029B00221A701CB0F2
:402D40005DF804EB03B070474081FF1F034613F8012B002AFBD1181A013870472DE9F74F03690C6980469C427FDC013C01F114074FEA840E00F1140606EB0E0357F824500D
:402D8000019356F824300135B3FBF5F507EB0E09C5B34FF0000A3846B446D34650F8043B9AB205FB02A21B0C4FEA124A05FB03A392B2C2EB0B0BBCF800204FEA134A5A44CC
:402DC0001FFA83FBDCF800308145CBEB134303EB224392B242EA03424FEA234B4CF8042BDCD256F80E306BB9019B043B9E421A4602D3C8F8104005E01268043B002AF8D155
:402E0000013CF3E7404600F0F6FF00282BDB304601354FF0000E57F8042B036891B2C1EB0E0E120C99B27144C2EB134303EB214389B24FEA234EB94541EA034340F8043BB7
:402E4000E9D256F8242006EB840362B9043B9E421A4602D3C8F8104005E01268043B002AF8D1013CF3E7284600E0002003B0BDE8F08F0000000000002DE9F04F456A95B0D8
:402E80008246219CCDE9022345B9102000F090FDCAF82400456085600560C560DAF82430196859B15A68012393404A608B60504600F0C9FDDAF8243000221A60039BA04A78
:402EC000002BBDBF01232360039B0023BCBF23F000430393DDF80C80A8BF236028F000431B0D1B0593421DD142F20F73209A1360029B43B9934A944BC8F31300002814BFAA
:402F00001846104600E09048229B002B00F04685C37813B100F1080300E0C31C229A136000F03CBDDDE90245002200232046294601F0E4FA074658B1209A01231360229B56
:402F4000002B00F01E8581481860013800F026BD12AB019313AB009322462B46504600F0C5FFC8F30A56049056B1C5F3130343F07F51204641F44011A6F2FF3611971DE09C
:402F8000139B129E1E4406F23243202B0ADD029A06F21240C3F1400322FA00F008FA03F3184304E0C3F12000029B03FA00F0FEF727FC0123A1F1F871013E11930022644B49
:402FC000FEF7E0FA58A3D3E90023FEF78FFC58A3D3E90023FEF7D8FA044630460D46FEF71FFC55A3D3E90023FEF780FC02460B4620462946FEF7C8FA04460D4601F0C6FA29
:403000000022834600232046294601F081FA58B15846FEF705FC02460B462046294601F06DFA08B90BF1FF3BBBF1160F0DD8DDE90223484901EBCB01D1E9000101F086FAD1
:4030400030B10BF1FF3B002300E00123109300E01090129B9E1B731E079343BFC3F10008002307934FF00008BBF1000F06DB079BCDF82CB05B440793002705E00023CBEB9F
:403080000808CBF100070B931E9B092B28D8052BC4BF043B1E931E9BC8BF0025A3F10203D8BF0125032B20D8DFE803F0060E0204012302E0012308E000230A931F9B002BA3
:4030C0001DDD9946059321E000230A931F9B0BEB030909F10103012B0593B8BF012315E0012500231E930A9501E001230A934FF0FF390022CDF8149012231F9206E04FF048
:4031000001094B46CDF81490CDF87C90DAF8244000226260042101F114029A421CD86268490001326260F6E761436F63A787D23FB3C8608B288AC63FFB799F501344D33F20
:403140000000F07F3E4A0000474A00001B4A00000000F83F584A00006168504600F03EFCDAF8243020601B680693059B0E2B00F25B81002D00F05881DDE90234BBF1000FEA
:40318000CDE90E3430DD9F4A0BF00F034FEA2B1502EBC303E80618CBCDE908340CD5DDE90E01994B05F00F05D3E90823FEF7C8FC0324CDE9020100E00224934E6DB1E9070D
:4031C00008D5DDE90801D6E90023FEF78FFBCDE9080101346D100836F0E7DDE90823DDE90201FEF7ADFC20E0CBF1000505B3DDE90E01844B05F00F0203EBC203D3E900232F
:40320000FEF774FBCDE902017F4E2D110023022455B1EA0705D5D6E90023FEF767FB013401236D100836F3E71BB1CDE9020100E00224109BE3B1DDE902560022734B2846EF
:40324000314601F065F998B1059B8BB1B9F1000F40F3E6800BF1FF330893314600226C4B2846FEF743FB0134CDE902014E4602E0059ECDF820B02046FEF7D2FADDE90223A9
:40328000FEF734FB634B0022FEF77EF9A1F1507304460C931D46D6B9DDE9020100225E4BFEF770F922460C9BCDE9020101F04EF9002840F03F820C99224601F10043DDE96B
:4032C000020101F025F9002840F02B82A8E00A9A4C4B711E002A49D003EBC103D3E9002300204E49FEF72CFC22462B46FEF74AF9CDE90C01069CDDE9020101F047F9054602
:40330000FEF78EFA02460B46DDE90201FEF73AF9DDE90C23303504F8015BCDE9020101F0F7F8002840F01D83DDE9022300203749FEF728F9DDE90C2301F0EAF8002840F082
:40334000D180069BE31AB3426ADADDE90C0100222F4BFEF7CBFA0022CDE90C01DDE902012B4BFEF7C3FACDE90201C4E703EBC1012246D1E900012B46FEF7B8FA069BCDE980
:403380000C011D469C19DDE9020101F0FFF80646FEF746FA02460B46DDE90201FEF7F2F8303605F8016BAC42CDE902014FF0000222D11A4BDDE90C01FEF7E6F802460B4627
:4033C000DDE9020101F0C2F8002840F08B80DDE90C2300201149FEF7D5F802460B46DDE9020101F095F8D8B114F8013C621E302B40F0B7821446F7E7054BFEF777FACDE92B
:403400000201C0E7584A0000304B00000000F03F0000244000001C40000014400000E03FDDE90E34CDE90234139B002B7CDBBBF10E0F79DCAB4B03EBCB03D3E900671F9B92
:40344000002B14DA059B002B11DC40F06C810022A54B30463946FEF749FADDE9022301F06BF8059D2E46002840F05F8165E1069CDDE9028932463B4640464946FEF760FBFB
:4034800001F084F80546FEF7CBF932463B46FEF72DFA0B46024649464046FEF773F805F1300E069B04F801EBC3EB040E059B73452DD102460B46FEF767F8804689460246DB
:4034C0000B463046394601F023F878B942464B463046394601F012F8002800F04482EB0704D440E2DDF820B000E01C4614F8012C631E392A07D1069A9A42F6D10699302266
:403500000BF1010B0A701A7801321A702BE20022764BFEF7EBF9002200238046894600F0EDFF0028A6D01EE20A9A002A2BD01E9A012A0ADC119A12B103F2334302E0129BA3
:40354000C3F136033D46444613E0059B5D1EAF42BFBF0B9BEA1B9B180B93059BB6BF2F467D1B0025002BA7BF4446059BC3EB08040023079A01211A4450469844079200F0DD
:4035800001FB064602E03D4644460A9E5CB1079B002B08DDA342A8BF2346079AC3EB0808E41AD31A0793002F1DDD0A9BABB18DB131462A46504600F07FFB049A0146064654
:4035C000504600F0E8FA04990890504600F03BFA089B04937A1B06D000E03A460499504600F06AFB04900121504600F0CBFA0B9B05465BB31A460146504600F05DFB1E9BA8
:403600000546012B18DC029B83B9039BC3F3130373B9039B23F000473F0D3F054FB1079B08F1010801330793012702E0002700E0029F0B9B73B100E000272B6905EB830329
:40364000186900F052FAC0F1200004E01E9B012BD9DD0B9F0120079B184410F01F0008D0C0F12003042B02DDC0F11C0002E006D018461C30079B8044034404440793B8F134
:40368000000F05DD42460499504600F063FB0490079B002B05DD29461A46504600F05AFB0546109B23B32946049800F0A4FB00281EDA00230A220499504600F0DBF90A9BB2
:4036C0000BF1FF3B0490002B00F05F81314600230A22504600F0CEF9B9F1000F06463FDC3BE000BF584A00000000144000002440059B002B2BDC1E9B022B28DDDDF8149068
:40370000B9F1000F11D129464B460522504600F0B1F901460546049800F06DFB00280CDC03E0354600E000252E461F9B069C6FEA030B09E03546DDF820B0069B069A5C1CA5
:40374000312313700BF1010B05960026F7E00A9BDDF8149023B9069CB2E01E9B022BCFDC002C05DD31462246504600F0F3FA06469FB17168504600F031F90446326906F1B2
:403780000C01023292000C30FEF738FE01222146504600F0DFFA059000E00596029B069F03F00103079329460498FFF7D7FA3146044600F13008049800F01DFB059A029072
:4037C0002946504600F033FBC36802463BB901460A90049800F00FFB0A9A034600E00123114650460A9300F02EF90A9B53B91E9A42B9079A32B9B8F1390F2AD0029B002B93
:403800001CDC1DE0029A002A04DB1BD11E9ACAB9079ABAB9002B13DD01220499504600F099FA2946049000F0E6FA002803DC07D118F0010F04D0B8F1390F0AD004F1310828
:403840007C1C0CE0002B07F101040BDDB8F1390F03D139233B70013756E008F1010887F800806CE0069B2746E31A4B4504F8018C3BD000230A220499504600F0FBF8059BF9
:4038800004909E424FF00A024FF000033146504604D100F0EFF80646059084E700F0EAF8002306460A220599504600F0E3F8059079E700230A220499504600F0DBF80490C8
:4038C00029460498FFF74AFA069B00F1300804F8018BE31A4B45ECDB069B0596B9F1010FACBF4B4401331F46002601220499504600F030FA2946049000F07DFA002803DC4D
:4039000015D118F0010F12D03C4614F8013C621E392B09D1069B934204D10BF1010B3123069A02E01446F0E70133137007E03C4614F8013C621E302B01D11446F8E7294606
:40394000504600F080F8059B6BB12EB19E4203D03146504600F077F80599504600F073F801E0DDF820B00499504600F06CF80023209A23700BF101031360229B1BB11C600B
:4039800001E008480AE0069808E0B9F1000F3FF7E2AE1E9B022B7FF7DEAEB1E615B0BDE8F08F00BF1A4A0000004870474481FF1F024B0146186800F041BB00BF4081FF1FDC
:4039C00010B5C9B202449042034605D01C7801308C42F8D1184610BD002010BD70B5456A04460E463DB91020FFF7E2FF6062456085600560C560656AEB6843B1636ADB6872
:403A000053F8260078B1026843F8262017E021220421204600F0B8FA636AE860DB68002BECD1002070BD012101FA06F56A1D9200204600F0A9FA0028F3D04660856000234A
:403A40000361C36070BD70B5446A06460D463CB91020FFF7ADFF7062446084600460C4603DB1736A6A68DB6853F82210296043F8225070BD2DE9F04106460C460D691F46F7
:403A800001F1140E0023DEF80000013381B202FB0171000C0F0C02FB007089B201EB00419D424FEA10474EF8041BECDCD7B1A3689D4212DB616830460131FFF78FFF804671
:403AC000226904F10C01023292000C30FEF796FC21463046FFF7B7FF444604EB850301355F6125612046BDE8F081030C1B0413B90004102300E0002310F07F4F04BF000267
:403B0000083310F0704F04BF0001043310F0404F04BF80000233002803DB420003D5581C70471846704720207047036813F007020BD0D90722D49A074BBF5B089B080360F6
:403B400003604CBF01200220704799B209B91B0C102213F0FF0F04BF1B0A0832190704BF1B090432990704BF9B080232D90702D45B0805D001320360104670470020704765
:403B80002020704710B50C460121FFF727FF01224461026110BD2DE9F74F14460A69236988469A42BEBF0B46A0461C46D8F81070D4F81090D8F80830D8F8041007EB0906A3
:403BC0009E42C8BF0131FFF709FF00F114052B4605EB860C0022634502D243F8042BFAE704F1140208F1140102EB890301EB87070093009B0192934257D9B2F800B0BBF170
:403C0000000F23D08946AE464FF0000859F8044BBEF800A0A3B20BFB03A34FEA144ADEF8004043444FEA14480BFB0A84F24604EB13449BB243EA04434F454FEA14484AF87A
:403C4000043B01D9D646E1E7CEF80480019B0432B3F802A0BAF1000F21D02C4689462B684FF00008B9F800E0B4F802B09BB20AFB0EBEA346F04443EA08434BF8043B59F8A3
:403C8000043BB4F804E01B0C0AFB03E34F4503EB18434FEA134801D95C46E3E763600435A7E75CF8043D13B9013E002EF9DC066103B0BDE8F08F00002DE9F843154612F053
:403CC000030206460F4607D0214C013A002354F82220FFF7CFFE0746AD1036D0746A3CB91020FFF765FE7062446084600460C460D6F82480D8F808404CB940F27121304614
:403D0000FFF740FF04460023C8F8080003604FF00008EB070AD5394622463046FFF73BFF814639463046FFF78EFE4F466D100CD0206808B10446ECE7224621463046FFF74C
:403D40002AFF2060C0F80080F4E73846BDE8F883204B00002DE9F0470C460746914626694FEA621A56444968A368751CAB4202DA01315B00FAE73846FFF730FE00238046CE
:403D80001A4600F11401534503DA41F823200133F9E72AEAEA73206901EB830319F01F0904F1140101EB800E14D0C9F1200C002208689A4600FA09F0024343F8042B51F850
:403DC000042B8E4522FA0CF2F2D8CAF8042042B1B51C06E0043B51F8042B8E4543F8042FF9D8013D3846C8F810502146FFF72BFE4046BDE8F08703690A6910B59B1A11D145
:403E000092001430143183180A4453F8044D52F8041D8C4202D007D3012010BD9842F4D3002010BD184610BD4FF0FF3010BD2DE9F8430C460746114620461546FFF7DBFF43
:403E4000061E08D131463846FFF7C8FD012303614661BDE8F883BCBF23462C4638466168BABF1D4601260026FFF7B8FD2B69C660266905F1140904F1140101EB860709EB02
:403E8000830800F114054FF0000C51F8042B59F8044B93B29C44A3B2240CC3EB0C03C4EB124202EB23429BB24FEA224CC84543EA02428E4645F8042BE7D8BE450ED25EF8A4
:403EC000041B8AB26244131403EB114392B242EA03424FEA234C45F8042BEEE755F8043D0BB9013EFAE70661BDE8F8832DE9F3411C4601219046089E099DFFF76FFDC4F3B8
:403F00001302C4F30A5407460CB142F480120192B8F1000F19D002A840F8088DFFF705FE009B48B1019AC0F1200102FA01F10B43C2407B61019200E07B61019B002B14BFDD
:403F400002210121BB61396107E001A8FFF7EDFD019B01217B613961203034B1A4F2334404443460C0F1350009E0A0F2324007EB810330601869FFF7B8FDC0EB41102860FB
:403F8000384602B0BDE8F08138B502FB01F4214600F054F8054618B122460021FEF739FA284638BD38B50546002944D051F8043C0C1F002BB8BFE41800F017FA1E4A136866
:403FC000114613B96360146030E0A3420DD92268A018834201BF18685B681218226063600C6023E0A24203D813465A68002AF9D118681918A1420BD1216801445818824264
:40400000196013D110685268014419605A600DE002D90C232B6009E021686018824201BF106852680918216062605C602846BDE8384000F0DBB938BDC481FF1F70B5CD1CC2
:4040400025F0030508350C2D38BF0C25002D064601DBA94202D90C23336046E000F0C5F9234B1C681A462146A1B10B685B1B0ED40B2B03D90B60CC18CD501EE08C420BBFEA
:4040800063684B681360636018BF0C4615E00C464968E9E7174C23681BB9304600F07AF920602946304600F075F9431C18D0C41C24F00304A0420DD12560304600F096F981
:4040C00004F10B00231D20F00700C31A0ED05A42E25070BD211A304600F05CF90130EBD10C233360304600F081F9002070BD00BFC481FF1FC081FF1F2DE9F0478E68824655
:404100009E420C46914698463ED88A8912F4906F3AD02568096902236F1A656905EB450595FBF3F57B1C43449D4238BF1D4653050FD52946FFF782FF064698B13A4621691B
:40414000FEF75CF9A38923F4906343F08003A38113E02A4600F04BF9064670B921695046FFF720FF0C23CAF80030A3894FF0FF3043F04003A381BDE8F08726613E442660A4
:4041800046466561ED1BA560464528BF464649463246206800F00EF9A36800209B1BA36023681E442660BDE8F08700002DE9F04F9DB003938B8980461C060D4616460DD5E4
:4041C0000B695BB94021FFF739FF2860286118B90C23C8F80030CDE040236B610023099320238DF82930DFF89CB130238DF82A3037463C4614F8013B1BB9B7EB060910D0E9
:4042000003E0252BF9D02746F3E74B46324629464046FFF771FF013000F0A780099B4B4409933B78002B00F0A08000234FF0FF3204930793059206938DF853301A93012602
:40424000052221784E48FFF7BBFB671C049B38B14B4A3C46801A06FA00F018430490EFE7D90644BF20228DF853201A0744BF2B228DF8532022782A2A03D0079A00210A2099
:404280000BE0039A111D12680391002A10DA524243F00200079204900BE027463B780134303B092B03D800FB02320121F5E701B107923B782E2B1ED17B782A2B0AD1039B42
:4042C00002371A1D1B680392002BB8BF4FF0FF33059310E0002319460593781C0A2407463A780130303A092A03D804FB01210123F5E703B10591032239782248FFF760FB1B
:4043000040B14023CBEB000003FA00F0049B013718430490397806221B487E1C8DF82810FFF74EFB88B1194B33B9039B073323F007030833039314E003AB00932A46144B9B
:4043400004A94046FEF7FEF807E003AB00932A460F4B04A94046FEF7AFFBB0F1FF3F824603D0099B5344099342E7AB895B0601D4099801E04FF0FF301DB0BDE8F08F00BFD7
:40438000584B00005E4B0000624B000045250000F940000038B5064C0023054608462360FCF754F8431C02D1236803B12B6038BDD082FF1F884210B501EB020301D8421E8A
:4043C0000BE09842FBD28118D21AD34204D013F8014D01F8014DF8E710BD994204D011F8014B02F8014FF8E710BD70477047F8B5074615460E4621B91146BDE8F840FFF75C
:404400001DBE1AB9FFF7CEFD2846F8BD00F015F885420ED929463846FFF710FE044650B131462A46FDF7EAFF31463846FFF7BAFD01E03046F8BD2046F8BD51F8040C0028F5
:40444000BEBF091851F8043CC0180438704700004FF0FF3C06E000BF4FF0010C02E000BF4FF0010C4DF804CD4FEA410C7FEA6C5C4FEA430C18BF7FEA6C5C1BD001B050EABF
:40448000410C0CBF52EA430C91EA030F02BF90EA020F0020704710F1000F91EA030F58BF994208BF90422CBFD8176FEAE37040F0010070474FEA410C7FEA6C5C02D150EA4F
:4044C000013C07D14FEA430C7FEA6C5CD6D152EA033CD3D05DF8040B704700BF8446104662468C461946634600E000BF01B5FFF7B7FF002848BF10F1000F01BD4DF808ED75
:40450000FFF7F4FF0CBF012000205DF808FB00BF4DF808EDFFF7EAFF34BF012000205DF808FB00BF4DF808EDFFF7E0FF94BF012000205DF808FB00BF4DF808EDFFF7CEFF54
:4045400094BF012000205DF808FB00BF4DF808EDFFF7C4FF34BF012000205DF808FB00BF4FEA410C7FEA6C5C02D150EA013C0AD14FEA430C7FEA6C5C02D152EA033C02D19C
:404580004FF0000070474FF0010070474FEA410212F5001215D211D56FF47873B3EB625212D94FEAC12343F0004343EA505311F0004F23FA02F018BF404270474FF0000010
:4045C000704750EA013005D111F0004008BF6FF0004070474FF00000704700BF000000002566200D0A000000596F752068617665206D6164652061206772617665206D698A
:404600007374616B650D0A00005100401000305100404000F0510040100000000140001000140140000800400140000A004C01400002005001402000000FC93F000F4940F0
:4046400000CB9640000FC9400053FB4000CB164100ED2F41000F49410031624100537B41003A8A4100CB9641005CA34100EDAF41007EBC41000FC94100A0D5410031E24196
:4046800000C2EE410053FB4100F20342003A0A420083104200CB164200141D42005C234200A5294200ED2F4200363642007E3C4200C74242000F4942A2000000F9000000F9
:4046C000830000006E0000004E000000440000001500000029000000FC0000002700000057000000D1000000F500000034000000DD000000C0000000DB00000062000000AB
:4047000095000000990000003C000000430000009000000041000000FE0000005100000063000000AB000000DE000000BB000000C500000061000000B70000002400000004
:404740006E0000003A000000420000004D000000D2000000E000000006000000490000002E000000EA00000009000000D1000000920000001C000000FE0000001D00000046
:40478000EB0000001C000000B100000029000000A70000003E000000E80000008200000035000000F50000002E000000BB0000004400000084000000E90000009C00000069
:4047C0007000000026000000B40000005F0000007E000000410000003900000091000000D600000039000000830000005300000039000000F40000009C0000008400000055
:404800005F0000008B000000BD000000F9000000280000003B0000001F000000F800000097000000FF000000DE00000005000000980000000F000000EF0000002F00000020
:40484000110000008B0000005A0000000A0000006D0000001F0000006D000000360000007E000000CF00000027000000CB00000009000000B70000004F0000004600000075
:404880003F000000660000009E0000005F000000EA0000002D0000007500000027000000BA000000C7000000EB000000E5000000F10000007B0000003D00000007000000A2
:4048C00039000000F70000008A0000005200000092000000EA0000006B000000FB0000005F000000B10000001F0000008D0000005D00000008000000560000000300000050
:404900003000000046000000FC0000007B0000006B000000AB000000F0000000CF000000BC000000200000009A000000F4000000360000001D000000A9000000E30000006C
:4049400091000000610000005E000000E60000001B000000080000006500000099000000850000005F00000014000000A000000068000000400000008D000000FF00000014
:40498000D8000000800000004D00000073000000270000003100000006000000060000001500000056000000CA00000073000000A8000000C900000060000000E200000020
:4049C0007B000000C00000008C0000006B0000000400000007000000090000000000C93F0000F0390000DA370000A2330000842E0000502B0000C2270000D0220000C41F6F
:404A00000000C61B000044174300494E4600696E66004E414E006E616E00300030313233343536373839414243444546003031323334353637383961626364656600496ED8
:404A400066696E697479004E614E00504F534958002E000000000000000000000000F03F000000000000244000000000000059400000000000408F40000000000088C3401F
:404A800000000000006AF8400000000080842E4100000000D01263410000000084D797410000000065CDCD41000000205FA00242000000E876483742000000A2941A6D4267
:404AC000000040E59C30A2420000901EC4BCD64200003426F56B0C430080E03779C3414300A0D8855734764300C84E676DC1AB43003D9160E458E143408CB5781DAF1544B5
:404B000050EFE2D6E41A4B4492D54D06CFF08044F64AE1C7022DB544B49DD9794378EA4405000000190000007D000000000000000080E03779C34143176E05B5B5B89346A1
:404B4000F5F93FE9034F384D321D30F94877825A3CBF737FDD4F1575232D302B2000686C4C0065666745464700000000F8B500BFF8BC08BC9E4670474D000000C90400000A
:404B8000F8B500BFF8BC08BC9E46704729000000A04B0000C880FF1FB80000005801000000000000D882FF1F0000E02EC05D00001800000000366E0100000000000000008B
:404BC000000000000000000000000000000000000000000000000000084A000000000000000000000000000000000000000000000000000000000000000000000000000063
:404C0000000000000000000000000000000000000000000000000000E080FF1F514A00005D4B00005D4B00005D4B00005D4B00005D4B00005D4B00005D4B00005D4B00001B
:404C40005D4B0000FFFFFFFFFFFFFFFFFFFFFFFFFFFF000000000000000000000000000000000000000000000000000000000000000000000000000000000000000000009A
:404C800000000000000000000000000000000000000000000000000000000000000000000000000000000000000000000000000000000000000000000000000000000000F4
:404CC00000000000000000000000000000000000000000000000000000000000000000000000000000000000000000000000000000000000000000000000000000000000B4
:404D00000000000000000000000000000000000000000000000000000000000000000000000000000000000000000000000000000000000000000000000000000000000073
:404D40000000000000000000000000000000000000000000000000000000000000000000000000000000000000000000000000000000000000000000000000000000000033
:020000040003F7
:0200000480007A
:40000000045200400564004001650040020501400107014062080140430901405B0A01403A0B0140350C01402A0D01404F0E0140270F01405118014049190140611A0140CE
:40004000461B0140044001400341014006420140044301400445014004460140034701400448014003490140094C0140074D0140055001400151014008A00930618064404F
:4000800088728B388C678D0F8F0F890FE208EA02E801000C020304020804100F16031702180F19011C011D012003220C240C2501280329012C083302340F35013A283F1080
:4000C0004014410649FF4AFF4BFF4DA04F01501856025711580459045A045B045C435D305F016040628064406540668068406A506BA86C406D206E506FA886028A058C0646
:400100008D028E0192039E069F01A103A201A408A808A903AC08B007B408B503B920BA02BF10C014C106C9FFCAFFCBFFCDAFCE07CF01D018D804D904DA04DC03DF01E040C1
:40014000E280E440E540E680E840EA50EBA8EC40ED20EE50EFA8004001200220040407440A420E050F6010A8114014041501162219011A401B101D301F08200824202610A3
:4001800029212E042F183080342035103608374038404180430245814B104C044F105E206C286D506E08762277049008922094209504960497509D129E409F40A181A20888
:4001C000A302A601AA10AF08C077C2F9C4FFCA65CC78CE08D099D224D620EC020A010B020F0313042A0131013201330435024014410649FF4AFF4BFF4DAF4E074F01501843
:400200005280580459045A045B045C445D405F016040628064406540668068406A506BA86C406D206E506FA882028301870288018B04900196029A019B02A402AE01B20193
:40024000B302B504B602B701B808BE40BF04C014C106C55CC620C70EC83BC9FFCAFFCBFFCDAFCE07CF01D018D418D604D804D904DA04DB04DC03DD30DF01E040E280E44093
:40028000E540E680E840EA50EBA8EC40ED20EE50EFA800100512080809040E140F401208174419041D801E20201022122504268027043101361038903D053E10418043025A
:4002C00045814B104C044D014F045511560857035E0264086640678071017D3087408D0490889430951197049E08A208A308A682A703C052C270C4A2CC21CEECD099D22464
:40030000D680D8B0EA0203021D021E0121012F013501360137023F505407580459045B045F0189028A018F0191019702A601B201B502B701BE04C030C102C5D2C601C7041E
:40034000C817C9FFCAFFCBFFCDA0CF04D018D407D804D904DA04DB04DC40DD44DF01E040E2C0E440E540E6C0E8C0EAC0ECC0EEC000100F02102019041F8022502404264043
:400380002F8230203120320A368038A03D0140104120482049015040520859055AA05C045D105E806608670488019008A001A308B321C002C280C404CA90CC13CE8CD00644
:4003C000D67FD86006020B0127012A022E013202340137014020410449FF4AFF4BFF4DA04F0450185280580459045A045B045C225D225F01604062C06440654066C068C012
:400400006AC06CC06EC086048B02920496029902A601AB01AD01B002B101B201B404B702B920BE10BF10C060C104C5D0C650C721C83AC9FFCAFFCBFFCDAFCE0FCF04D01870
:40044000D407D804D904DA04DB04DC22DD22DF01E040E2C0E440E540E6C0E8C0EAC0ECC0EEC0000404040C080D02100A161018041B181E642002240827812B102C082E40DE
:4004800036103A103E204004410245024D014F205408550256305D015E045FA07002C024C230C423CA32CC20CE24D085D220D6F00006011002010580080209180C040DFFCF
:4004C0001007113C13C21508160118061A011BE31F0421442406251C27E129C02C012DE72E062F18311F33C0340735383A203B025280580459045B045C335F01850188034C
:400500008A0C8C0A8E048F02900392049B029E089F02A102A205A403A604A902B301B40FB702BA20BF44C006C640C9FFCA07CBFFCC40CD20CEF0CF05D008D401D804D904EC
:40054000DA04DB04DC03DD33DF01E040E1A8E240E32000400120060207440A420D200E200F6010B01540162019201D201F102244241025102602274029212C042D402E01F3
:400580002F1030A03612378438483C043E223F40480450805140522058105A885B0275028C108E019110924093409444950496039720982099019A229B049C049D229E4031
:4005C0009F40A004A204A310A480A621AA10B121B348C0D3C279C4ACCAF5CCFCCEFAD204D60FEC0402030C1C0D0C0E220F03102C11011211130E14401B081C091E101F036F
:40060000201421102410283029012A0C2B062F0C301F310F3310366038803B023F044061410446CB470E481C49FF4AFF4BFF4EF04F44500C580459045A045C335D035F013F
:4006400066C06A406B02830A841286058B048F0494049618981F9C099E06A702A81FAB01B108B21CB303B403B704BF44C016C105C203C402C50EC60CC805C9FFCAFFCBFF65
:40068000CC62CDA0CEF0CF41D00CD804D904DA04DC33DD03DF01E640E702E910EA30EB10ED10EE10EF120040010204040A520C040E0910881220151019421A021C041F18EB
:4006C0002040210827A129622C042F1831023220334038403D203E213F8041424240434046624721480849204D044F6050A457408140821085088A018C208E029190924046
:400700009340944C95049603982099209C049E409F80A110A224A310A420B424B540B702C029C2EDC44ECA6DCC0DCEB8D079D234E002328033013580CC709D809F01A68027
:4007400085809D80A680AF01E210EA409F80A680AB80E88002028B01C002E0018F10A301AE02E0089B02A311AF0223809F80A680C8402280A680C8105F02632264089808FB
:400780009B02A311A808D603D8031080710285028880C408DC01E601001D0C190E1510091C09003F80004080800080000000000000FBFB00F0000000040400000000000052
:4007C00000000000000000000000000000000000000000000000000000000000000000000000000000000000000000000000000000000000000000000000000000000000F9
:4008000000000000000000000000000000000000000000000000000000000000000000000000000000000000000000000000000000000000000000000000000000000000B8
:400840000000000000000000000000000000000000000000000000000000000000000000000000000000000000000000000000000000000000000000000000000000000078
:400880000000000000000000000000000000000000000000000000000000000000000000000000000000000000000000000000000000000000000000000000000000000038
:0200000490006A
:0400000000004005B7
:0200000490105A
:04000000BC90ACAF55
:0200000490303A
:02000000D0042A
:0200000490402A
:4000000000000000000000000000000000000000000000000000000000000000000000000000000000000000000000000000000000000000000000000000000000000000C0
:400040000000000000000000000000000000000000000000000000000000000000000000000000000000000000000000000000000000000000000000000000000000000080
:400080000000000000000000000000000000000000000000000000000000000000000000000000000000000000000000000000000000000000000000000000000000000040
:4000C0000000000000000000000000000000000000000000000000000000000000000000000000000000000000000000000000000000000000000000000000000000000000
:0200000490501A
:0C00000000012E16106900012E35E06D85
:00000001FF