:400000000080002011000000BD030000BD03000008B5044B1A6803F53F5302331A6000F0D5F900BFFA46004010B5054C237833B9044B13B10448AFF300800123237010BD29
:400040003081FF1F000000004C230000084B10B51BB108490848AFF300800848036803B910BD074B002BFBD0BDE81040184700BF000000003481FF1F4C230000C880FF1F54
:400080000000000038B5094D2C684FF07E51204601F028FE286021464FF07E5000F060F87D22B42100F03EF838BD00BF4C81FF1F08B562B600F0A2FA00F026F8014800F0B9
:4000C000F1FAFEE78500000008B5002905DBB1F57A7FA8BF4FF47A7100E0002128B901F57A7080B200F0E0F908BD012805D101F57A7080B200F0DEF908BD024800F098FAC6
:4001000008BD00BF5023000008B500F039FA00F029FA00210120FFF7D7FF00210846FFF7D3FF08BD38B504461546084601F08EFE214601F0D7FD02F0A3F801460120FFF757
:40014000C3FF284601F082FE214601F0C9FD02F097F801460020FFF7B7FF38BD0000000070B50E4601F002FB09A3D3E9002301F051FB04460D46304601F0F8FA22462B4639
:4001800001F048FB01F058FD00F0AAFA70BD00BF09944A702F8BA840FEE700BFF0B40022174611E050F82760F3B226F0FF0608E001EB420511F812406D78A5550132013B41
:4001C000DBB2002BF4D10137132FEBD9F0BC7047064B1B78DBB203F00701054A11701B09013213704422034B1A707047CF0100496E5800407658004008B50A46002102F089
:400200009CF808BD38B51722294B1A801823294A13703321023211800232137042F23032254B1A80192502331D70022203F276231A7008224FF040231A70032103F500736F
:4002400019701E4B1B78DBB21D490B701D4B1A8041F25122023B1A8000240CE01A4B1B7803F0010343EA440404F003044FF4F07000F026FA013D0DB1032CEFD115B903200E
:40028000FFF78AFF114B4FF480721A8007221A7000220F490A704820023108701A700222033B1A700B4A137843F00703137038BD8040004082400040884000400801004973
:4002C000A146004022420040254200400440004006400040A243004008B502F023F808BD38B572B6284A137843F00403137000240CE0264D630019194A0011462A4408468A
:4003000091882858FFF778FF0134E4B2072CF0D91F494FF09040FFF741FF1E4A137843F0020313701032137843F0020313701A4C237843F040032370A2F58632513A13789E
:4003400043F0100313700A2214491548FFF7C4FF082214491448FFF7BFFF144A137843F008031370124D61232B70FFF74BFF81232B7001220F4B1A70FFF72AFF0E2221461A
:400380000D48FFF7A9FF38BDE8460040702300005000004803500140A043004050040048C05100405C04004812510040224300400048004004000840B043004008B501F073
:4003C00085FF03680C2B00D1FEE7FEE708B5104E104D16E029686B68AC68002204E051F8040B43F8040B0432A242F8D1E868002203E0002143F8041B04328242F9D11035F2
:40040000013E002EE6D101F067FFFFF751FEFEE7010000009827000008B5104A104B1A60104A136843F40073136000230AE0032B03D80D4A52F8231000E00C490C4A42F8CA
:40044000231001332F2BF2D90A4B1A780A4B1A70074A0A4B1A60FFF743FF08BD0004FA050CED00E014ED00E000000000BD0300000080FF1FBC760040C080FF1F08ED00E04D
:40048000024A137843F080031370704779650040014B1880704700BF106A0040014B1880704700BF906A0040014B1880704700BF506A0040014B1880704700BF706A0040E7
:4004C000014B1870704700BF8A650040014B1878704700BF6A650040014B188880B27047B06A004008B501E0FFF7F6FFFFF7EEFF10F0100FF8D108BD08B5184A137803F03D
:40050000C00343F0090313701F32137843F0010313700132137843F00103137044F61F60FFF7B6FF44F61F60FFF7B8FF4FF47A70FFF7BAFF4FF47A70FFF7BCFF0020FFF78E
:40054000BFFF00F0C5F8064A137843F01003137000F0C2F8FFF7C6FF08BD00BF796500409A65004008B5054B1B7823B9FFF7C4FF0122024B1A70FFF783FF08BD6C81FF1FAF
:40058000054A137843F0010313701032137843F001031370704700BFA24300407222084B1A70202203F203131A700622613B1A70472210331A7000224E331A70704700BF16
:4005C0008864004010B500F083F804460A4A137843F02003137002F20312137843F010031370033A137843F01003137000F032F8204600F071F810BD9864004008B5054BC0
:400600001B7823B9FFF7CAFF0122024B1A70FFF7D9FF08BD6D81FF1F034B1B7813F0040FFAD1024B18707047686500404864004038B5074B1B782BB938BDFFF7EDFF0134EA
:40064000A4B201E005460024285D0028F5D138BD6D81FF1F054A137843F0020313701032137843F002031370704700BFA2430040014B1B681864704708ED00E04001C0B21E
:40068000014B1870704700BF00E400E00122014B1A60704700E100E00122014B1A60704780E100E010B50446FFF7F6FF2046FFF7DFFF0720FFF7E2FFFFF7E8FF10BD00BF4F
:4006C0000230800803D000BF01380046FCD17047EFF3108072B6704780F31088704700BF00B51D4A20F00043934283B019DDB3F1FF4F05DB014601F0F3FA03B05DF804FB6E
:40070000694600F02BF800F00300012818D002280ED0D0B10199009800F092F900F10040EBE70022002100F09FFD03B05DF804FB01220199009800F097FD00F10040DCE717
:400740000199009800F07CF9D7E701220199009800F08AFDD1E700BFD80F493F2DE9F04FAA4A20F00044944289B067DDA84A0D469442074601461CDC0028A64940F3EA8027
:4007800001F0AEFAA44B24F00F049C42064663D0A24901F0A5FA01463046296001F0A0FA9E4901F09DFA01236860184609B0BDE8F08F9B4A944261DDB4F1FF4F46DAE61544
:4007C000863EA4EBC654204601F05AFD01F03EFB034620461946059301F082FA4FF0874101F088FB804601F04BFD01F02FFB044640462146069401F073FA4FF0874101F0E5
:4008000079FB0021079001F009FD002800F0C3802046002101F002FD002814BF0123022380480221019000913246294605A800F0CBF9002FC0F2A580034603E0002208606E
:400840004A600023184609B0BDE8F08F01F048FA002368602860F5E7734901F041FA7349044601F03DFA01462046296001F038FA6E4901F035FA01236860E3E700F06AFD9B
:400880006B49804601F036FB4FF07C5101F02AFA01F0F6FC064601F0D9FA5E49834601F029FB0146404601F01BFA5C498146584601F020FB1F2E82460146484618DC5D4B94
:4008C000721E53F8223024F0FF029A4210D001F007FA8046C5F800804146484601F000FA514601F0FDF9002F686056DB3346A9E701F0F6F9E215C0F3C753D31A082B8046CC
:40090000E8DD49495846039201F0F4FA80460146484601F0E5F901460446484601F0E0F9414601F0DDF980464049584601F0E2FA414601F0D5F901468246204601F0D0F97E
:40094000039AC0F3C753D21A192A804641DC2860A146C1E701F0C6F92F4B24F00F049C42064623D02D4901F0BDF901463046296001F0B6F9294901F0B5F94FF0FF33686029
:4009800060E795E80C0002F1004103F10042296043426A6056E7032342E708F1004800F10040C5F80080686073424BE71E4901F099F91E49044601F095F9014620462960EB
:4009C00001F08EF9194901F08DF94FF0FF33686038E71949584601F08DFA01468046204601F07EF901468146204601F079F9414601F076F904461149584601F07BFA21462E
:400A000001F06EF982460146484660E7D80F493FE3CB1640800FC93FD00FC93F43443537800F4943202400000044353708A3852E84F9223FA023000000A3852E32318D241E
:400A40002DE9F84320F00044B4F1485F06460F4649DA01F015FC002800F09D803146304601F048FA05464E4901F044FA4D4901F039F9294601F03EFA4B4901F031F92946EA
:400A800001F038FA494901F02DF9294601F032FA474901F025F9294601F02CFA454901F021F9294601F026FA80464FF07C51284601F020FA41460446284601F01BFA394691
:400AC0000546304601F016FA0146284601F008F90146204601F004F901464FF07E5001F0FFF8BDE8F883014601F004FA05462C4901F000FA2B4901F0F5F8294601F0FAF910
:400B0000294901F0EDF8294601F0F4F9274901F0E9F8294601F0EEF9254901F0E1F8294601F0E8F9234901F0DDF8294601F0E2F9214B80469C42B8DD204B9C4227DC04F1CB
:400B40007F4421464FF07E5001F0CAF881464FF07C51284601F0CEF9214601F0C1F841460446284601F0C6F939460546304601F0C1F90146284601F0B3F80146204601F0B8
:400B8000AFF80146484601F0ABF8BDE8F883DFF834900B4CDBE74FF07E50BDE8F88300BF4ED747ADF6740F317CF29334010DD037610BB63AABAA2A3D9999993E0000483FB0
:400BC0000000903E0000383F2DE9F04F1C46DFB00891611E01910A936899BB4B029053F821300793D31E48BF131DDB1023EAE37319460B930133A2EBC3030693019A079B84
:400C00008D1A9C1815D42C44013421AE699F08E057F8250001F01AF90135A54246F8040F07D0002DF4DA01350020A54246F8040FF7D1079B002B2ADB079B0A9A19469346AE
:400C4000019E49AF01EB0208019B002BC0F2A18122ABCBEB060503EB8505029B4FF00009A3F1040A22AB03EB86045AF8041F54F8040901F03FF90146484601F033F8AC42A4
:400C80008146F2D10136464547F8049FDCD1079B0EA91E4603F18043023B9B001A1D0A440B440D920C935EAB03EB8603002E53F8508C23DD5EAB03EB8604543C0DAD49AF63
:400CC0004FF06E51404601F015F901F0D9FA01F0BDF84FF08741814601F00CF90146404600F0FEFF01F0CCFA54F8041945F8040F484600F0F7FFBC428046E1D14046DDF8D4
:400D00001880414600F070FB4FF07851044601F0F1F800F023FB4FF0824101F0EBF80146204600F0DDFF044601F0AAFA074601F08DF801462046444600F0D2FF002C05469F
:400D400040F30E81701E0EAB53F82030C8F1080243FA02F101FA02F29B1AC8F1070A0EAA42F820300F4443FA0AFABAF1000F30DD002E07F1010740F34D82002214460DA96F
:400D800007E0C3F580700BB108600124013296420BDD51F8043F002CF3D00132C3F1FF0396420B604FF00104F3DC069B002B0DDD012B00F0DD80022B08D1721E0EAB53F8E5
:400DC00022300EA903F03F0341F82230BAF1020F7CD00021284601F021FA002800F09080079B741EA34210DC06F180430EAA013B0D9802EB8303002253F80419834242EA19
:400E00000102F9D1002A40F0DE80079B0EAA013B52F82330002B40F0FB810C9B012753F804290137002AFAD0F219731C9342099240DC0B9AB90003EB02080A9A08F18048CF
:400E400003916999164408F1FF38B20001EB880822A99B00049201EB020A4AAA02EB0309043B0593002658F8040F00F0EFFF019B4AF8040B002B1FDB049B0027F418059B81
:400E8000F51822AB1C441D44029BA3F1040B5BF8041F54F8040901F02DF80146384600F021FFAC420746F2D1039B04369E4249F8047BD8D1099EF6E6039B043600279E421C
:400EC00049F8047BCFD1F5E73827000029464FF07E5000F005FF0546002C3FF47AAF06994FF07E5000F080FA0146284600F0F8FE05460021284601F091F900287FF470AF54
:400F00000297069F2846794200F06EFA4FF08741044601F0A1F9002800F081814FF06E51204600F0E7FF01F0ABF900F08FFF4FF08741054600F0DEFF0146204600F0D0FE25
:400F400001F09EF90EAB43F82600284601F098F93B460833741C06930EAB43F8240047E010D1731E0EAA52F823304FEA232AFCE6721E0EAB53F822300EA903F07F0341F841
:400F8000223023E74FF07C5101F066F950B982461FE701364FF00009464547F8049F7FF453AE74E6002E07F10107C8BF4FF0020A3FF7E3AE29464FF07E5000F091FE4FF0E7
:400FC000020A054605E7069A0EAB53F82430083A0297069263B904F18043013B0EA901EB830353F80419013C083A0029F9D0069206994FF07E5000F0F7F9002C0546C0F2E4
:401000001881A3004AAA1F1D02EB030901930EAB1F4409F1040657F8040D00F017FF294600F068FF4FF06E5146F8040D284600F061FF0EAB9F420546EDD1A346DDF81C8063
:40104000A9F104090027CDF80CA0B8F1000FB8BF002615DB824CCA4682480026002503E0AF420DDB54F8040F5AF8041F00F042FF0146304600F036FE0135A8450646EFDA1F
:401080005EAB03EB8703A9F1040943F8A06C48AB994507F10107D8D1689B5C46DDF80CA0032B5AD8DFE803F08D5F5F02002C40F3BE80019A5EA98B1836AE53F8A07CB518C0
:4010C00055F8049C3946484600F00CFE80460146484600F005FE394600F004FE286045F8048DAE424746EBD1012C40F3A080019B5EAAF418254602EB030858F8A06C0DF181
:40110000DC0955F8048C3046414600F0EBFD07460146404600F0E4FD314600F0E3FD286045F8047DA9453E46EBD10020043438AD54F8041D00F0D6FDA542F9D1BAF1000F9A
:401140006AD0369A379B00F1004002F1004203F10043089CA06022606360029B03F007005FB0BDE8F08F019D36AE04353544002055F8041D00F0B6FDB542F9D1BAF1000F63
:4011800039D0089A00F1004301461360369800F0A7FD002C0BDD36AE0125013556F8041F00F0A0FDAC42F8DABAF1000F50D0089A00F100435360029B03F007005FB0BDE874
:4011C000F08F019B5EAA13440020A3F19C05013C55F8041D00F086FD631CF8D1BAF1000F01D000F10040089B1860029B03F007005FB0BDE8F08F089B01461860369800F0F9
:401200006FFD002CD8BF0346C5DC089A5360D2E7012709E60024C8E5369A379B99E7204601F02EF80EAB344643F82600E0E6002084E7689B032B90D801A252F823F000BFC3
:401240005D12000059120000591200002F1200000346089A5360AEE700208FE70020BDE7442700000000C93F2DE9F84320F00043B3F1485F04460F46904603DA01F000F8BE
:40128000002858D02146204600F034FE05460146204600F02FFE29490646284600F02AFE274900F01DFD294600F024FE254900F019FD294600F01EFE234900F011FD2946D3
:4012C00000F018FE214900F00DFD8146B8F1000F22D04FF07C51384600F00CFE49468046304600F007FE0146404600F0F9FC294600F000FE394600F0F3FC15490546304643
:4013000000F0F8FD0146284600F0ECFC0146204600F0E6FCBDE8F8830146284600F0EAFD0B4900F0DDFC314600F0E4FD214600F0D9FCBDE8F8832046BDE8F883D3C92E2FE0
:40134000342FD7321BEF3836010D50398988083CABAA2A3E20F00040704700BF2DE9F04120F00047FC0D7F3C162C054613DC002C80461BDB194F2741384214D0184900F0D5
:40138000B1FC002100F072FF68B1002D1BDB28EA0700BDE8F081B7F1FF4F04D3014600F0A1FCBDE8F0812846BDE8F0810C4900F099FC002100F05AFF0028F4D0002D08DB18
:4013C0000020BDE8F0814FF4000343FA04F4A044DDE7002FE7D00348BDE8F081FFFF7F00CAF24971000080BF30F0004238B5034616D0B2F1FF4F0FD2B2F5000F0D4610D3DF
:401400000446D20D2A44FE2A2EDC002A1DDD24F0FF4444EAC25038BD014600F063FC38BD38BD4FF0984100F065FD184A0346954207DBC0F3C7520446193AE3E7144800F066
:401440002BF8134900F056FD38BD12F1160F13DA4CF2503295421946F0DD0E4800F01CF80C4900F047FD38BD19460A4800F014F8084900F03FFD38BD193224F0FF4040EA1E
:40148000C2504FF04C5100F035FD38BDB03CFFFF6042A20DCAF2497101F0004120F000400843704781F0004102E000BF83F0004330B54FEA41044FEA430594EA050F08BFAC
:4014C00090EA020F1FBF54EA000C55EA020C7FEA645C7FEA655C00F0E2804FEA5454D4EB5555B8BF6D420CDD2C4480EA020281EA030382EA000083EA010180EA020281EAEB
:401500000303362D88BF30BD11F0004F4FEA01314FF4801C4CEA113102D0404261EB410113F0004F4FEA03334CEA133302D0524263EB430394EA050F00F0A780A4F10104A0
:40154000D5F1200E0DDB02FA0EFC22FA05F2801841F1000103FA0EF2801843FA05F359410EE0A5F120050EF1200E012A03FA0EFC28BF4CF0020C43FA05F3C01851EBE37171
:4015800001F0004507D54FF0000EDCF1000C7EEB00006EEB0101B1F5801F1BD3B1F5001F0CD349085FEA30004FEA3C0C04F101044FEA445212F5800F80F09A80BCF1004F28
:4015C00008BF5FEA500C50F1000041EB045141EA050130BD5FEA4C0C404141EB010111F4801FA4F10104E9D191F0000F04BF01460020B1FA81F308BF2033A3F10B03B3F11E
:4016000020020CDA0C3208DD02F1140CC2F10C0201FA0CF021FA02F10CE002F11402D8BFC2F1200C01FA02F120FA0CFCDCBF41EA0C019040E41AA2BF01EB0451294330BD8F
:401640006FEA04041F3C1CDA0C340EDC04F11404C4F1200220FA04F001FA02F340EA030021FA04F345EA030130BDC4F10C04C4F1200220FA02F001FA04F340EA0300294617
:4016800030BD21FA04F0294630BD94F0000F83F4801306BF81F480110134013D4EE77FEA645C18BF7FEA655C29D094EA050F08BF90EA020F05D054EA000C04BF1946104624
:4016C00030BD91EA030F1EBF0021002030BD5FEA545C05D14000494128BF41F0004130BD14F580043CBF01F5801130BD01F0004545F0FE4141F470014FF0000030BD7FEAA5
:40170000645C1ABF194610467FEA655C1CBF0B46024650EA013406BF52EA033591EA030F41F4002130BD00BF90F0000F04BF0021704730B54FF4806404F132044FF00005E1
:401740004FF0000150E700BF90F0000F04BF0021704730B54FF4806404F1320410F0004548BF40424FF000013EE700BF42004FEAE2014FEA31014FEA02701FBF12F07F43CA
:4017800093F07F4F81F06051704792F0000F14BF93F07F4F704730B54FF4607401F0004521F0004120E700BF50EA010208BF704730B54FF000050AE050EA010208BF7047C0
:4017C00030B511F0004502D5404261EB41014FF4806404F132045FEA915C3FF4DCAE4FF003025FEADC0C18BF03325FEADC0C18BF033202EBDC02C2F1200300FA03FC20FA20
:4018000002F001FA03FE40EA0E0021FA02F11444C1E600BF70B54FF0FF0C4CF4E06C1CEA11541DBF1CEA135594EA0C0F95EA0C0F00F0DEF82C4481EA030621EA4C5123EA74
:401840004C5350EA013518BF52EA033541F4801143F4801338D0A0FB02CE4FF00005E1FB02E506F00042E0FB03E54FF00006E1FB03569CF0000F18BF4EF0010EA4F1FF0438
:40188000B6F5007F64F5407404D25FEA4E0E6D4146EB060642EAC62141EA55514FEAC52040EA5E504FEACE2EB4F1FD0C88BFBCF5E06F1ED8BEF1004F08BF5FEA500E50F1E4
:4018C000000041EB045170BD06F0004646EA010140EA020081EA0301B4EB5C04C2BFD4EB0C0541EA045170BD41F480114FF0000E013C00F3AB8014F1360FDEBF002001F0CE
:40190000004170BDC4F10004203C35DA0C341BDC04F11404C4F1200500FA05F320FA04F001FA05F240EA020001F0004221F0004110EBD37021FA04F642EB06015EEA430E34
:4019400008BF20EAD37070BDC4F10C04C4F1200500FA04F320FA05F001FA04F240EA020001F0004110EBD37041F100015EEA430E08BF20EAD37070BDC4F1200500FA05F222
:401980004EEA020E20FA04F301FA05F243EA020321FA04F001F0004121FA04F220EA020000EBD3705EEA430E08BF20EAD37070BD94F0000F0FD101F00046400041EB01012C
:4019C00011F4801F08BF013CF7D041EA060195F0000F18BF704703F00046520043EB030313F4801F08BF013DF7D043EA0603704794EA0C0F0CEA135518BF95EA0C0F0CD0C2
:401A000050EA410618BF52EA4306D1D181EA030101F000414FF0000070BD50EA410606BF1046194652EA430619D094EA0C0F02D150EA013613D195EA0C0F05D152EA03360B
:401A40001CBF104619460AD181EA030101F0004141F0FE4141F470014FF0000070BD41F0FE4141F4780170BD70B54FF0FF0C4CF4E06C1CEA11541DBF1CEA135594EA0C0F44
:401A800095EA0C0F00F0A7F8A4EB050481EA030E52EA03354FEA013100F088804FEA03334FF0805545EA131343EA12634FEA022245EA111545EA10654FEA00260EF00041A4
:401AC0009D4208BF964244F1FD0404F5407402D25B084FEA3202B61A65EB03055B084FEA32024FF480104FF4002CB6EB020E75EB030E22BFB61A754640EA0C005B084FEA47
:401B00003202B6EB020E75EB030E22BFB61A754640EA5C005B084FEA3202B6EB020E75EB030E22BFB61A754640EA9C005B084FEA3202B6EB020E75EB030E22BFB61A7546DB
:401B400040EADC0055EA060E18D04FEA051545EA16754FEA06164FEAC30343EA52734FEAC2025FEA1C1CC0D111F4801F0BD141EA00014FF000004FF0004CB6E711F4801F0B
:401B800004BF01430020B4F1FD0C88BFBCF5E06F3FF6AFAEB5EB030C04BFB6EB020C5FEA500C50F1000041EB045170BD0EF0004E4EEA113114EB5C04C2BFD4EB0C0541EA21
:401BC000045170BD41F480114FF0000E013C90E645EA060E8DE60CEA135594EA0C0F08BF95EA0C0F3FF43BAF94EA0C0F0AD150EA01347FF434AF95EA0C0F7FF425AF104602
:401C000019462CE795EA0C0F06D152EA03353FF4FDAE1046194622E750EA410618BF52EA43067FF4C5AE50EA41047FF40DAF52EA43057FF4EBAE12E74FEA4102B2F1E04375
:401C400024BFB3F5001CDCF1FE5C0DD901F0004C4FEAC0024CEA5070B2F1004F40EB830008BF20F00100704711F0804F21D113F13872BCBF01F00040704741F480114FEA81
:401C80005252C2F11802C2F1200C10FA0CF320FA02F018BF40F001004FEAC1234FEAD32303FA0CFC40EA0C0023FA02F34FEA4303CCE77FEA625307D150EA01331EBF4FF06C
:401CC000FE4040F44000704701F0004040F0FE4040F40000704700BF80F0004002E000BF81F0004142001FBF5FEA410392EA030F7FEA226C7FEA236C6AD04FEA1262D2EB61
:401D00001363C1BFD218414048404140B8BF5B42192B88BF704710F0004F40F4000020F07F4018BF404211F0004F41F4000121F07F4118BF494292EA030F3FD0A2F101024C
:401D400041FA03FC10EB0C00C3F1200301FA03F100F0004302D5494260EB4000B0F5000F13D3B0F1807F06D340084FEA310102F10102FE2A51D2B1F1004F40EBC25008BF40
:401D800020F0010040EA03007047490040EB000010F4000FA2F10102EDD1B0FA80FCACF1080CB2EB0C0200FA0CF0AABF00EBC25052421843BCBFD0401843704792F0000F58
:401DC00081F4000106BF80F400000132013BB5E74FEA41037FEA226C18BF7FEA236C21D092EA030F04D092F0000F08BF0846704790EA010F1CBF0020704712F07F4F04D155
:401E0000400028BF40F00040704712F100723CBF00F50000704700F0004343F0FE4040F4000070477FEA226216BF08467FEA23630146420206BF5FEA412390EA010F40F4EF
:401E4000800070474FF0000304E000BF10F0004348BF40425FEA000C08BF704743F0964301464FF000001CE050EA010208BF70474FF000030AE000BF50EA010208BF7047B8
:401E800011F0004302D5404261EB41015FEA010C02BF84460146002043F0B64308BFA3F18053A3F50003BCFA8CF2083AA3EBC25310DB01FA02FC634400FA02FCC2F1200249
:401EC000BCF1004F20FA02F243EB020008BF20F00100704702F1200201FA02FCC2F1200250EA4C0021FA02F243EB020008BF20EADC7070474FF0FF0C1CEAD0521EBF1CEA48
:401F0000D15392EA0C0F93EA0C0F6FD01A4480EA010C400218BF5FEA41211ED04FF0006343EA501043EA5111A0FB01310CF00040B1F5000F3EBF490041EAD3715B0040EAD2
:401F4000010062F17F02FD2A1DD8B3F1004F40EBC25008BF20F00100704790F0000F0CF0004C08BF49024CEA502040EA51207F3AC2BFD2F1FF0340EAC250704740F4000061
:401F80004FF00003013A5DDC12F1190FDCBF00F000407047C2F10002410021FA02F1C2F1200200FA02FC5FEA310040F1000053EA4C0308BF20EADC70704792F0000F00F061
:401FC000004C02BF400010F4000F013AF9D040EA0C0093F0000F01F0004C02BF490011F4000F013BF9D041EA0C018FE70CEAD15392EA0C0F18BF93EA0C0F0AD030F0004C41
:4020000018BF31F0004CD8D180EA010000F00040704790F0000F17BF90F0004F084691F0000F91F0004F14D092EA0C0F01D142020FD193EA0C0F03D14B0218BF084608D157
:4020400080EA010000F0004040F0FE4040F40000704740F0FE4040F4400070474FF0FF0C1CEAD0521EBF1CEAD15392EA0C0F93EA0C0F69D0A2EB030280EA010C49024FEA65
:40208000402037D04FF0805343EA111143EA10130CF000408B4238BF5B0042F17D024FF4000C8B4224BF5B1A40EA0C00B3EB510F24BFA3EB510340EA5C00B3EB910F24BFE7
:4020C000A3EB910340EA9C00B3EBD10F24BFA3EBD10340EADC001B0118BF5FEA1C1CE0D1FD2A3FF650AF8B4240EBC25008BF20F0010070470CF0004C4CEA50207F32C2BFF6
:40210000D2F1FF0340EAC250704740F400004FF00003013A37E792F0000F00F0004C02BF400010F4000F013AF9D040EA0C0093F0000F01F0004C02BF490011F4000F013BD4
:40214000F9D041EA0C0195E70CEAD15392EA0C0F08D142027FF47DAF93EA0C0F7FF470AF084676E793EA0C0F04D14B023FF44CAF08466EE730F0004C18BF31F0004CCAD1CA
:4021800030F000427FF45CAF31F000437FF43CAF5FE700BF4FF0FF3C06E000BF4FF0010C02E000BF4FF0010C4DF804CD4FEA40024FEA41037FEA226C18BF7FEA236C11D06B
:4021C00001B052EA530C18BF90EA010F58BFB2EB030088BFC81738BF6FEAE17018BF40F0010070477FEA226C02D15FEA402C05D17FEA236CE4D15FEA412CE1D05DF8040B28
:40220000704700BF844608466146FFE70FB5FFF7C9FF002848BF10F1000F0FBD4DF808EDFFF7F4FF0CBF012000205DF808FB00BF4DF808EDFFF7EAFF34BF012000205DF80E
:4022400008FB00BF4DF808EDFFF7E0FF94BF012000205DF808FB00BF4DF808EDFFF7D2FF94BF012000205DF808FB00BF4DF808EDFFF7C8FF34BF012000205DF808FB00BFF4
:402280004FEA4002B2F1FE4F0FD34FF09E03B3EB12620DD94FEA002343F0004310F0004F23FA02F018BF404270474FF00000704712F1610F01D1420205D110F0004008BF5D
:4022C0006FF0004070474FF000007047014B1868704700BF2C81FF1F0E4B70B51E460E4C0025E41AA410A54204D056F8253098470135F8E700F03EFA084B094C1E46E41AEE
:40230000A4100025A54204D056F8253098470135F8E770BD8027000080270000802700008827000010B5431E0A44914204D011F8014B03F8014FF8E710BD034602449342D6
:4023400002D003F8011BFAE77047000000000000596F752068617665206D6164652061206772617665206D697374616B650D0A00005100401000205100405000F051004026
:40238000100000000140001000140140000800400140000A004C01400002005001402000000FC93F000F494000CB9640000FC9400053FB4000CB164100ED2F41000F494186
:4023C0000031624100537B41003A8A4100CB9641005CA34100EDAF41007EBC41000FC94100A0D5410031E24100C2EE410053FB4100F20342003A0A420083104200CB164263
:4024000000141D42005C234200A5294200ED2F4200363642007E3C4200C74242000F4942A2000000F9000000830000006E0000004E0000004400000015000000290000000F
:40244000FC0000002700000057000000D1000000F500000034000000DD000000C0000000DB0000006200000095000000990000003C00000043000000900000004100000090
:40248000FE0000005100000063000000AB000000DE000000BB000000C500000061000000B7000000240000006E0000003A000000420000004D000000D2000000E00000003C
:4024C00006000000490000002E000000EA00000009000000D1000000920000001C000000FE0000001D000000EB0000001C000000B100000029000000A70000003E0000000C
:40250000E80000008200000035000000F50000002E000000BB0000004400000084000000E90000009C0000007000000026000000B40000005F0000007E0000004100000069
:402540003900000091000000D600000039000000830000005300000039000000F40000009C000000840000005F0000008B000000BD000000F9000000280000003B0000005C
:402580001F000000F800000097000000FF000000DE00000005000000980000000F000000EF0000002F000000110000008B0000005A0000000A0000006D0000001F0000003A
:4025C0006D000000360000007E000000CF00000027000000CB00000009000000B70000004F000000460000003F000000660000009E0000005F000000EA0000002D000000EB
:402600007500000027000000BA000000C7000000EB000000E5000000F10000007B0000003D0000000700000039000000F70000008A0000005200000092000000EA00000075
:402640006B000000FB0000005F000000B10000001F0000008D0000005D0000000800000056000000030000003000000046000000FC0000007B0000006B000000AB00000077
:40268000F0000000CF000000BC000000200000009A000000F4000000360000001D000000A9000000E300000091000000610000005E000000E60000001B00000008000000B9
:4026C0006500000099000000850000005F00000014000000A000000068000000400000008D000000FF000000D8000000800000004D000000730000002700000031000000A0
:4027000006000000060000001500000056000000CA00000073000000A8000000C900000060000000E20000007B000000C00000008C0000006B0000000400000007000000F5
:40274000090000000000C93F0000F0390000DA370000A2330000842E0000502B0000C2270000D0220000C41F0000C61B0000441743000000F8B500BFF8BC08BC9E46704750
:402780004D00000019040000F8B500BFF8BC08BC9E46704729000000A8270000C880FF1F68000000400000000000000000000000000000000000000000000000000000002A
:4027C0000000000000000000000000007027000000000000000000000000000000000000000000000000000000000000000000000000000000000000000000000000000042
:40280000000000000000000000000000CC80FF1F0000000000000000000000000000000000000000000000000000000000000000000000000000000000000000000000002E
:402840000000000000000000000000000000000000000000000000000000000000000000000000000000000000000000000000000000000000000000000000000000000058
:402880000000000000000000000000000000000000000000000000000000000000000000000000000000000000000000000000000000000000000000000000000000000018
:4028C00000000000000000000000000000000000000000000000000000000000000000000000000000000000000000000000000000000000000000000000000000000000D8
:402900000000000000000000000000000000000000000000000000000000000000000000000000000000000000000000000000000000000000000000000000000000000097
:020000040003F7
:0200000480007A
:400000000452004001640040036500404E08014038090140011501406A180140441901405A1A0140471B014003400140024101400242014002430140044801400249014088
:40004000054C0140094D0140045001400151014008800980618064408872880F8A0F8B380110050809180D7F0E04113C12041341153C1601174218021B041C012201234378
:400080002504280129672B18300131583204331F3402372038023B0A3E143F404024410146CB470E481C49FF4AFF4BFF4EF04F44500C56025713580459045A045B045C11DF
:4000C0005D115F0166C06A406B028513870C89038B148D0A8E018F1498019C029D139F04A001A315A708B203B50FB710B808BA02BB20BF40D804D904DC11DF010040048064
:40010000084009200D080E800F0A128015101701181019041A401B011E881F04200421202240240125082609284029062D192F083280334034083629370138443A103B10DA
:400140003E6A44404520474054045610574458805A805C016D406F14762B7708C081C2F3C458CAE3CCE8CEFED0B0D680E21004090510060607AC09090BD00C120D140E0588
:40018000132014041510161817401B03210C2371243F25DC2722283F2C20321C331F3420360337E03B804050410249FF4AFF4BFF4DA04F0450185401580459045A045B04EB
:4001C0005C115D105F01604062C06440654066C068C06AC06CC06EC08204853187068B0C8D2C8F0392019D319E0E9F0EA313A608A708AA02B008B10FB204B330B402B60146
:40020000B908BB02BE10BF04C050C106C5D0C651C702C81EC9FFCAFFCBFFCDAFCE0FCF04D018D280D804D904DA04DB04DC10DF01E040E2C0E440E540E6C0E8C0EAC0ECC0CB
:40024000EEC00240054809020A020E20102012041540171419801AA61D601E201F40204022082680272029062C402F20304032803506372038543C143F80460448084981AF
:400280004E015038514052445C805E085F127102821089218C408F20901491409240931894C0950198889A219B1C9D0AA004A205A340A6A0A708C0A8C229C4E6CAC3CCE8ED
:4002C000CE7ED020D21CD6F0E4040B0C0F03110815022801300131043301350837023E014006450449FF4A074BFF4C404D204EF04F0550085407580459045A045B045D01D1
:400300005F01604061A8624063208073820C830A840C870488048C11907F94339A739B019C0F9E70A022A302A704A84CAA33AC08B103B20FB44CB508B630B704BA08BF41D9
:40034000C032C105C206C401C5ECC803C9FFCAFFCBFFCC62CDA0CEF0CF41D00CD418D604D804D904DA04DB04DC11DD11DF01E640E702E910EA30EB10ED10EE10EF12040107
:40038000062207080D200E621240132214081501160118401D081E011F182255262027422D012F5032053610382039803E423F884528474049064A084C404F9859015AA4BE
:4003C0005E016480664067388041810889088A028C8090209180924493889480980899019A219B289D0EA120A219A620A708B004B302B640C0F0C2F0C4D2CAC0CC23CECC7E
:40040000D070D234D68FD8B0E210E40433403480CC309C809F409C809F409C809F4027409C809F40C8808C809C80590464088008D602D8011040700180018840B504C40838
:40044000DC01E201E80800020C0210031C03000F80004080800080000000000000CBCB00C000000000000000000000000000000000000000000000000000000000000000E5
:40048000000000000000000000000000000000000000000000000000000000000000000000000000000000000000000000000000000000000000000000000000000000003C
:4004C00000000000000000000000000000000000000000000000000000000000000000000000000000000000000000000000000000000000000000000000000000000000FC
:4005000000000000000000000000000000000000000000000000000000000000000000000000000000000000000000000000000000000000000000000000000000000000BB
:40054000000000000000000000000000000000000000000000000000000000000000000000000000000000000000000000000000000000000000000000000000000000007B
:0200000490006A
:0400000000004005B7
:0200000490105A
:04000000BC90ACAF55
:0200000490303A
:0200000081106D
:0200000490402A
:4000000000000000000000000000000000000000000000000000000000000000000000000000000000000000000000000000000000000000000000000000000000000000C0
:400040000000000000000000000000000000000000000000000000000000000000000000000000000000000000000000000000000000000000000000000000000000000080
:400080000000000000000000000000000000000000000000000000000000000000000000000000000000000000000000000000000000000000000000000000000000000040
:4000C0000000000000000000000000000000000000000000000000000000000000000000000000000000000000000000000000000000000000000000000000000000000000
:0200000490501A
:0C00000000012E16106900012E269179D7
:00000001FF