:400000000080002011000000350400003504000008B5044B1A6803F53F5302331A6000F029FA00BFFA46004010B5054C237833B9044B13B10448AFF300800123237010BDE2
:400040004881FF1F00000000642C0000084B10B51BB108490848AFF300800848036803B910BD074B002BFBD0BDE81040184700BF000000004C81FF1F642C0000C880FF1FE2
:400080000000000038B50D4D2C684FF07E51204601F090FE28602146094800F07DF8044601F0CCFB02460B460649074802F0B6F9D222F021204600F053F838BD6481FF1F55
:4000C0006F12833A682C00009081FF1F08B562B600F0E4FA00F036F841F2883000F018FBD221002000F00EF8F021012000F00AF84FF4FA6000F00CFB014800F039FBFEE73D
:400100008500000008B5002905DBB1F57A7FA8BF4FF47A7100E0002128B901F57A7080B200F016FA08BD012805D101F57A7080B200F014FA08BD024800F0CAFA08BD00BF31
:40014000702C000008B500F06DFA00F05DFA00210120FFF7D7FF00210846FFF7D3FF08BD38B504461546084601F0D8FE214601F021FE02F0EDF801460120FFF7C3FF2846FB
:4001800001F0CCFE214601F013FE02F0E1F801460020FFF7B7FF38BD70B50E4601F04EFB0BA3D3E9002301F09DFB04460D46304601F044FB22462B4601F094FB01F0A4FD51
:4001C00000F0F6FA044901F0FDFE70BDAFF30080182D4454FB21194000002041FEE700BFF0B40022174611E050F82760F3B226F0FF0608E001EB420511F812406D78A55548
:400200000132013BDBB2002BF4D101371D2FEBD9F0BC7047064B1B78DBB203F00701054A11701B09013213704422034B1A707047CF0100496E5800407658004008B50A46E2
:40024000002102F0E2F808BD38B50024314B1C80582202331A70012202331A8018232E4A1370172102321180023213703321023211800232137040F22B1102321180023257
:40028000137042F23032254B1A80192502331D70022203F26A231A7008224FF040231A70032103F5007319701D4B1B78DBB21D490B701D4B1A8041F25122023B1A800CE0A9
:4002C0001A4B1B7803F0010343EA440404F003044FF4F07000F05CFA013D0DB1032CEFD115B90320FFF77AFF114B4FF480721A8007221A7000220F490A7048200231087086
:400300001A700222033B1A700B4A137843F03F03137038BD80400040864000409440004008010049A146004022420040254200400440004006400040A243004008B502F0BE
:4003400059F808BD38B572B62B4A137843F00403137000240CE0294D630019194A0011462A44084691882858FFF768FF0134E4B2082CF0D922494FF09040FFF731FF214A54
:40038000137843F0020313701032137843F0020313701D4C237843F040032370A2F58632513A137843F0100313700A2217491848FFF7C4FF082217491748FFF7BFFF0822C8
:4003C00016491748FFF7BAFF164A137843F008031370154D61232B70FFF736FF81232B700122124B1A70FFF715FF0E2221461048FFF7A4FF38BD00BFE8460040902C00007F
:400400007800004803500140A0430040A4070048C0510040B007004812510040B807004832510040224300400048004004000840B043004008B501F0B1FF03680C2B00D118
:40044000FEE7FEE708B5094B1A681044084BC31A802B02DC054B186005E001F09FFF0C2303604FF0FF32104608BD00BFCC80FF1FA082FF1F08B5104E104D16E029686B687E
:40048000AC68002204E051F8040B43F8040B0432A242F8D1E868002203E0002143F8041B04328242F9D11035013E002EE6D101F07BFFFFF70BFEFEE701000000F43000002C
:4004C00008B5104A104B1A60104A136843F40073136000230AE0032B03D80D4A52F8231000E00C490C4A42F8231001332F2BF2D90A4B1A780A4B1A70074A0A4B1A60FFF707
:4005000021FF08BD0004FA050CED00E014ED00E000000000350400000080FF1FBC760040C080FF1F08ED00E0024A137843F08003137070477E640040014B1880704700BF5A
:400540001C680040014B1880704700BF9C680040014B1880704700BF5C680040014B1880704700BF7C680040014B1870704700BF8F640040014B1878704700BF6F6400405B
:40058000014B188880B27047BC68004008B501E0FFF7F6FFFFF7EEFF10F0100FF8D108BD10B5174A137803F0C00343F0090313702032137843F001031370124C237843F0FD
:4005C0000103237044F61F60FFF7B6FF44F61F60FFF7B8FF4FF47A70FFF7BAFF4FF47A70FFF7BCFF0020FFF7BFFF00F0D9F8237843F01003237000F0D7F8FFF7C7FF10BD8F
:400600007E6400409F64004008B5054B1B7823B9FFF7C6FF0122024B1A70FFF785FF08BD8481FF1F054A137843F0040313701032137843F004031370704700BFA243004006
:400640007222074B1A70202203331A7006229E331A70472210331A70002250331A7070478864004010B500F09BF804460A4A137843F0200313700332137843F0100313706A
:40068000FE32137843F01003137000F033F8204600F08AF810BD00BF9864004008B5054B1B7823B9FFF7CCFF0122024B1A70FFF7D9FF08BD8581FF1F034B1B7813F0040F16
:4006C000FAD1024B18707047696500404A65004038B5074B1B782BB938BDFFF7EDFF0134A4B201E005460024285D0028F5D138BD8581FF1F054A137843F0080313701032D5
:40070000137843F008031370704700BFA243004010B5044605E0084B186800F039F8A4F50044B4F5004FF6D8034B586800FB04F000F02EF810BD00BFD080FF1F014B1B686B
:400740001864704708ED00E04001C0B2014B1870704700BF00E400E00122014B1A60704700E100E00122014B1A60704780E100E010B50446FFF7F6FF2046FFF7DFFF072013
:40078000FFF7E2FFFFF7E8FF10BD00BF000000000230800803D000BF01380046FCD17047EFF3108072B6704780F31088704700BF00B51D4A20F00043934283B019DDB3F1C7
:4007C000FF4F05DB014601F0F3FA03B05DF804FB694600F02BF800F00300012818D002280ED0D0B10199009800F092F900F10040EBE70022002100F09FFD03B05DF804FBCA
:4008000001220199009800F097FD00F10040DCE70199009800F07CF9D7E701220199009800F08AFDD1E700BFD80F493F2DE9F04FAA4A20F00044944289B067DDA84A0D46AF
:400840009442074601461CDC0028A64940F3EA8001F0AEFAA44B24F00F049C42064663D0A24901F0A5FA01463046296001F0A0FA9E4901F09DFA01236860184609B0BDE8F3
:40088000F08F9B4A944261DDB4F1FF4F46DAE615863EA4EBC654204601F05AFD01F03EFB034620461946059301F082FA4FF0874101F088FB804601F04BFD01F02FFB04467B
:4008C00040462146069401F073FA4FF0874101F079FB0021079001F009FD002800F0C3802046002101F002FD002814BF0123022380480221019000913246294605A800F051
:40090000CBF9002FC0F2A580034603E0002208604A600023184609B0BDE8F08F01F048FA002368602860F5E7734901F041FA7349044601F03DFA01462046296001F038FA3E
:400940006E4901F035FA01236860E3E700F06AFD6B49804601F036FB4FF07C5101F02AFA01F0F6FC064601F0D9FA5E49834601F029FB0146404601F01BFA5C498146584681
:4009800001F020FB1F2E82460146484618DC5D4B721E53F8223024F0FF029A4210D001F007FA8046C5F800804146484601F000FA514601F0FDF9002F686056DB3346A9E703
:4009C00001F0F6F9E215C0F3C753D31A082B8046E8DD49495846039201F0F4FA80460146484601F0E5F901460446484601F0E0F9414601F0DDF980464049584601F0E2FAA9
:400A0000414601F0D5F901468246204601F0D0F9039AC0F3C753D21A192A804641DC2860A146C1E701F0C6F92F4B24F00F049C42064623D02D4901F0BDF9014630462960DD
:400A400001F0B6F9294901F0B5F94FF0FF33686060E795E80C0002F1004103F10042296043426A6056E7032342E708F1004800F10040C5F80080686073424BE71E4901F038
:400A800099F91E49044601F095F901462046296001F08EF9194901F08DF94FF0FF33686038E71949584601F08DFA01468046204601F07EF901468146204601F079F94146E4
:400AC00001F076F904461149584601F07BFA214601F06EF982460146484660E7D80F493FE3CB1640800FC93FD00FC93F43443537800F4943482D00000044353708A3852EC9
:400B000084F9223FC82C000000A3852E32318D242DE9F84320F00044B4F1485F06460F4649DA01F015FC002800F09D803146304601F048FA05464E4901F044FA4D4901F0D5
:400B400039F9294601F03EFA4B4901F031F9294601F038FA494901F02DF9294601F032FA474901F025F9294601F02CFA454901F021F9294601F026FA80464FF07C512846B7
:400B800001F020FA41460446284601F01BFA39460546304601F016FA0146284601F008F90146204601F004F901464FF07E5001F0FFF8BDE8F883014601F004FA05462C4910
:400BC00001F000FA2B4901F0F5F8294601F0FAF9294901F0EDF8294601F0F4F9274901F0E9F8294601F0EEF9254901F0E1F8294601F0E8F9234901F0DDF8294601F0E2F961
:400C0000214B80469C42B8DD204B9C4227DC04F17F4421464FF07E5001F0CAF881464FF07C51284601F0CEF9214601F0C1F841460446284601F0C6F939460546304601F0BA
:400C4000C1F90146284601F0B3F80146204601F0AFF80146484601F0ABF8BDE8F883DFF834900B4CDBE74FF07E50BDE8F88300BF4ED747ADF6740F317CF29334010DD037EE
:400C8000610BB63AABAA2A3D9999993E0000483F0000903E0000383F2DE9F04F1C46DFB00891611E01910A936899BB4B029053F821300793D31E48BF131DDB1023EAE37375
:400CC00019460B930133A2EBC3030693019A079B8D1A9C1815D42C44013421AE699F08E057F8250001F01AF90135A54246F8040F07D0002DF4DA01350020A54246F8040FAC
:400D0000F7D1079B002B2ADB079B0A9A19469346019E49AF01EB0208019B002BC0F2A18122ABCBEB060503EB8505029B4FF00009A3F1040A22AB03EB86045AF8041F54F8E0
:400D4000040901F03FF90146484601F033F8AC428146F2D10136464547F8049FDCD1079B0EA91E4603F18043023B9B001A1D0A440B440D920C935EAB03EB8603002E53F82C
:400D8000508C23DD5EAB03EB8604543C0DAD49AF4FF06E51404601F015F901F0D9FA01F0BDF84FF08741814601F00CF90146404600F0FEFF01F0CCFA54F8041945F8040FB9
:400DC000484600F0F7FFBC428046E1D14046DDF81880414600F070FB4FF07851044601F0F1F800F023FB4FF0824101F0EBF80146204600F0DDFF044601F0AAFA074601F08E
:400E00008DF801462046444600F0D2FF002C054640F30E81701E0EAB53F82030C8F1080243FA02F101FA02F29B1AC8F1070A0EAA42F820300F4443FA0AFABAF1000F30DD1C
:400E4000002E07F1010740F34D82002214460DA907E0C3F580700BB108600124013296420BDD51F8043F002CF3D00132C3F1FF0396420B604FF00104F3DC069B002B0DDDD5
:400E8000012B00F0DD80022B08D1721E0EAB53F822300EA903F03F0341F82230BAF1020F7CD00021284601F021FA002800F09080079B741EA34210DC06F180430EAA013BD8
:400EC0000D9802EB8303002253F80419834242EA0102F9D1002A40F0DE80079B0EAA013B52F82330002B40F0FB810C9B012753F804290137002AFAD0F219731C9342099253
:400F000040DC0B9AB90003EB02080A9A08F1804803916999164408F1FF38B20001EB880822A99B00049201EB020A4AAA02EB0309043B0593002658F8040F00F0EFFF019BD1
:400F40004AF8040B002B1FDB049B0027F418059BF51822AB1C441D44029BA3F1040B5BF8041F54F8040901F02DF80146384600F021FFAC420746F2D1039B04369E4249F8FD
:400F8000047BD8D1099EF6E6039B043600279E4249F8047BCFD1F5E76030000029464FF07E5000F005FF0546002C3FF47AAF06994FF07E5000F080FA0146284600F0F8FEE7
:400FC00005460021284601F091F900287FF470AF0297069F2846794200F06EFA4FF08741044601F0A1F9002800F081814FF06E51204600F0E7FF01F0ABF900F08FFF4FF0A1
:401000008741054600F0DEFF0146204600F0D0FE01F09EF90EAB43F82600284601F098F93B460833741C06930EAB43F8240047E010D1731E0EAA52F823304FEA232AFCE680
:40104000721E0EAB53F822300EA903F07F0341F8223023E74FF07C5101F066F950B982461FE701364FF00009464547F8049F7FF453AE74E6002E07F10107C8BF4FF0020ADC
:401080003FF7E3AE29464FF07E5000F091FE4FF0020A054605E7069A0EAB53F82430083A0297069263B904F18043013B0EA901EB830353F80419013C083A0029F9D00692D7
:4010C00006994FF07E5000F0F7F9002C0546C0F21881A3004AAA1F1D02EB030901930EAB1F4409F1040657F8040D00F017FF294600F068FF4FF06E5146F8040D284600F04B
:4011000061FF0EAB9F420546EDD1A346DDF81C80A9F104090027CDF80CA0B8F1000FB8BF002615DB824CCA4682480026002503E0AF420DDB54F8040F5AF8041F00F042FF1A
:401140000146304600F036FE0135A8450646EFDA5EAB03EB8703A9F1040943F8A06C48AB994507F10107D8D1689B5C46DDF80CA0032B5AD8DFE803F08D5F5F02002C40F381
:40118000BE80019A5EA98B1836AE53F8A07CB51855F8049C3946484600F00CFE80460146484600F005FE394600F004FE286045F8048DAE424746EBD1012C40F3A080019BF6
:4011C0005EAAF418254602EB030858F8A06C0DF1DC0955F8048C3046414600F0EBFD07460146404600F0E4FD314600F0E3FD286045F8047DA9453E46EBD10020043438ADA4
:4012000054F8041D00F0D6FDA542F9D1BAF1000F6AD0369A379B00F1004002F1004203F10043089CA06022606360029B03F007005FB0BDE8F08F019D36AE04353544002093
:4012400055F8041D00F0B6FDB542F9D1BAF1000F39D0089A00F1004301461360369800F0A7FD002C0BDD36AE0125013556F8041F00F0A0FDAC42F8DABAF1000F50D0089A59
:4012800000F100435360029B03F007005FB0BDE8F08F019B5EAA13440020A3F19C05013C55F8041D00F086FD631CF8D1BAF1000F01D000F10040089B1860029B03F0070059
:4012C0005FB0BDE8F08F089B01461860369800F06FFD002CD8BF0346C5DC089A5360D2E7012709E60024C8E5369A379B99E7204601F02EF80EAB344643F82600E0E6002073
:4013000084E7689B032B90D801A252F823F000BF2D1300002913000029130000FF1200000346089A5360AEE700208FE70020BDE76C3000000000C93F2DE9F84320F000434C
:40134000B3F1485F04460F46904603DA01F000F8002858D02146204600F034FE05460146204600F02FFE29490646284600F02AFE274900F01DFD294600F024FE254900F0F6
:4013800019FD294600F01EFE234900F011FD294600F018FE214900F00DFD8146B8F1000F22D04FF07C51384600F00CFE49468046304600F007FE0146404600F0F9FC294683
:4013C00000F000FE394600F0F3FC15490546304600F0F8FD0146284600F0ECFC0146204600F0E6FCBDE8F8830146284600F0EAFD0B4900F0DDFC314600F0E4FD214600F029
:40140000D9FCBDE8F8832046BDE8F883D3C92E2F342FD7321BEF3836010D50398988083CABAA2A3E20F00040704700BF2DE9F04120F00047FC0D7F3C162C054613DC002CDB
:4014400080461BDB194F2741384214D0184900F0B1FC002100F072FF68B1002D1BDB28EA0700BDE8F081B7F1FF4F04D3014600F0A1FCBDE8F0812846BDE8F0810C4900F017
:4014800099FC002100F05AFF0028F4D0002D08DB0020BDE8F0814FF4000343FA04F4A044DDE7002FE7D00348BDE8F081FFFF7F00CAF24971000080BF30F0004238B50346C7
:4014C00016D0B2F1FF4F0FD2B2F5000F0D4610D30446D20D2A44FE2A2EDC002A1DDD24F0FF4444EAC25038BD014600F063FC38BD38BD4FF0984100F065FD184A0346954263
:4015000007DBC0F3C7520446193AE3E7144800F02BF8134900F056FD38BD12F1160F13DA4CF2503295421946F0DD0E4800F01CF80C4900F047FD38BD19460A4800F014F836
:40154000084900F03FFD38BD193224F0FF4040EAC2504FF04C5100F035FD38BDB03CFFFF6042A20DCAF2497101F0004120F000400843704781F0004102E000BF83F00043EE
:4015800030B54FEA41044FEA430594EA050F08BF90EA020F1FBF54EA000C55EA020C7FEA645C7FEA655C00F0E2804FEA5454D4EB5555B8BF6D420CDD2C4480EA020281EAA7
:4015C000030382EA000083EA010180EA020281EA0303362D88BF30BD11F0004F4FEA01314FF4801C4CEA113102D0404261EB410113F0004F4FEA03334CEA133302D05242FD
:4016000063EB430394EA050F00F0A780A4F10104D5F1200E0DDB02FA0EFC22FA05F2801841F1000103FA0EF2801843FA05F359410EE0A5F120050EF1200E012A03FA0EFCA7
:4016400028BF4CF0020C43FA05F3C01851EBE37101F0004507D54FF0000EDCF1000C7EEB00006EEB0101B1F5801F1BD3B1F5001F0CD349085FEA30004FEA3C0C04F1010484
:401680004FEA445212F5800F80F09A80BCF1004F08BF5FEA500C50F1000041EB045141EA050130BD5FEA4C0C404141EB010111F4801FA4F10104E9D191F0000F04BF014611
:4016C0000020B1FA81F308BF2033A3F10B03B3F120020CDA0C3208DD02F1140CC2F10C0201FA0CF021FA02F10CE002F11402D8BFC2F1200C01FA02F120FA0CFCDCBF41EA06
:401700000C019040E41AA2BF01EB0451294330BD6FEA04041F3C1CDA0C340EDC04F11404C4F1200220FA04F001FA02F340EA030021FA04F345EA030130BDC4F10C04C4F13C
:40174000200220FA02F001FA04F340EA0300294630BD21FA04F0294630BD94F0000F83F4801306BF81F480110134013D4EE77FEA645C18BF7FEA655C29D094EA050F08BFC9
:4017800090EA020F05D054EA000C04BF1946104630BD91EA030F1EBF0021002030BD5FEA545C05D14000494128BF41F0004130BD14F580043CBF01F5801130BD01F0004571
:4017C00045F0FE4141F470014FF0000030BD7FEA645C1ABF194610467FEA655C1CBF0B46024650EA013406BF52EA033591EA030F41F4002130BD00BF90F0000F04BF0021A4
:40180000704730B54FF4806404F132044FF000054FF0000150E700BF90F0000F04BF0021704730B54FF4806404F1320410F0004548BF40424FF000013EE700BF42004FEA72
:40184000E2014FEA31014FEA02701FBF12F07F4393F07F4F81F06051704792F0000F14BF93F07F4F704730B54FF4607401F0004521F0004120E700BF50EA010208BF704732
:4018800030B54FF000050AE050EA010208BF704730B511F0004502D5404261EB41014FF4806404F132045FEA915C3FF4DCAE4FF003025FEADC0C18BF03325FEADC0C18BF7A
:4018C000033202EBDC02C2F1200300FA03FC20FA02F001FA03FE40EA0E0021FA02F11444C1E600BF70B54FF0FF0C4CF4E06C1CEA11541DBF1CEA135594EA0C0F95EA0C0F2A
:4019000000F0DEF82C4481EA030621EA4C5123EA4C5350EA013518BF52EA033541F4801143F4801338D0A0FB02CE4FF00005E1FB02E506F00042E0FB03E54FF00006E1FBC8
:4019400003569CF0000F18BF4EF0010EA4F1FF04B6F5007F64F5407404D25FEA4E0E6D4146EB060642EAC62141EA55514FEAC52040EA5E504FEACE2EB4F1FD0C88BFBCF565
:40198000E06F1ED8BEF1004F08BF5FEA500E50F1000041EB045170BD06F0004646EA010140EA020081EA0301B4EB5C04C2BFD4EB0C0541EA045170BD41F480114FF0000E6E
:4019C000013C00F3AB8014F1360FDEBF002001F0004170BDC4F10004203C35DA0C341BDC04F11404C4F1200500FA05F320FA04F001FA05F240EA020001F0004221F0004141
:401A000010EBD37021FA04F642EB06015EEA430E08BF20EAD37070BDC4F10C04C4F1200500FA04F320FA05F001FA04F240EA020001F0004110EBD37041F100015EEA430E4D
:401A400008BF20EAD37070BDC4F1200500FA05F24EEA020E20FA04F301FA05F243EA020321FA04F001F0004121FA04F220EA020000EBD3705EEA430E08BF20EAD37070BD77
:401A800094F0000F0FD101F00046400041EB010111F4801F08BF013CF7D041EA060195F0000F18BF704703F00046520043EB030313F4801F08BF013DF7D043EA060370472D
:401AC00094EA0C0F0CEA135518BF95EA0C0F0CD050EA410618BF52EA4306D1D181EA030101F000414FF0000070BD50EA410606BF1046194652EA430619D094EA0C0F02D141
:401B000050EA013613D195EA0C0F05D152EA03361CBF104619460AD181EA030101F0004141F0FE4141F470014FF0000070BD41F0FE4141F4780170BD70B54FF0FF0C4CF4E3
:401B4000E06C1CEA11541DBF1CEA135594EA0C0F95EA0C0F00F0A7F8A4EB050481EA030E52EA03354FEA013100F088804FEA03334FF0805545EA131343EA12634FEA0222E0
:401B800045EA111545EA10654FEA00260EF000419D4208BF964244F1FD0404F5407402D25B084FEA3202B61A65EB03055B084FEA32024FF480104FF4002CB6EB020E75EB3E
:401BC000030E22BFB61A754640EA0C005B084FEA3202B6EB020E75EB030E22BFB61A754640EA5C005B084FEA3202B6EB020E75EB030E22BFB61A754640EA9C005B084FEA8E
:401C00003202B6EB020E75EB030E22BFB61A754640EADC0055EA060E18D04FEA051545EA16754FEA06164FEAC30343EA52734FEAC2025FEA1C1CC0D111F4801F0BD141EA94
:401C400000014FF000004FF0004CB6E711F4801F04BF01430020B4F1FD0C88BFBCF5E06F3FF6AFAEB5EB030C04BFB6EB020C5FEA500C50F1000041EB045170BD0EF0004EA9
:401C80004EEA113114EB5C04C2BFD4EB0C0541EA045170BD41F480114FF0000E013C90E645EA060E8DE60CEA135594EA0C0F08BF95EA0C0F3FF43BAF94EA0C0F0AD150EAAE
:401CC00001347FF434AF95EA0C0F7FF425AF104619462CE795EA0C0F06D152EA03353FF4FDAE1046194622E750EA410618BF52EA43067FF4C5AE50EA41047FF40DAF52EA82
:401D000043057FF4EBAE12E74FEA4102B2F1E04324BFB3F5001CDCF1FE5C0DD901F0004C4FEAC0024CEA5070B2F1004F40EB830008BF20F00100704711F0804F21D113F13D
:401D40003872BCBF01F00040704741F480114FEA5252C2F11802C2F1200C10FA0CF320FA02F018BF40F001004FEAC1234FEAD32303FA0CFC40EA0C0023FA02F34FEA4303D2
:401D8000CCE77FEA625307D150EA01331EBF4FF0FE4040F44000704701F0004040F0FE4040F40000704700BF80F0004002E000BF81F0004142001FBF5FEA410392EA030F00
:401DC0007FEA226C7FEA236C6AD04FEA1262D2EB1363C1BFD218414048404140B8BF5B42192B88BF704710F0004F40F4000020F07F4018BF404211F0004F41F4000121F04E
:401E00007F4118BF494292EA030F3FD0A2F1010241FA03FC10EB0C00C3F1200301FA03F100F0004302D5494260EB4000B0F5000F13D3B0F1807F06D340084FEA310102F16D
:401E40000102FE2A51D2B1F1004F40EBC25008BF20F0010040EA03007047490040EB000010F4000FA2F10102EDD1B0FA80FCACF1080CB2EB0C0200FA0CF0AABF00EBC25071
:401E800052421843BCBFD0401843704792F0000F81F4000106BF80F400000132013BB5E74FEA41037FEA226C18BF7FEA236C21D092EA030F04D092F0000F08BF0846704758
:401EC00090EA010F1CBF0020704712F07F4F04D1400028BF40F00040704712F100723CBF00F50000704700F0004343F0FE4040F4000070477FEA226216BF08467FEA236309
:401F00000146420206BF5FEA412390EA010F40F4800070474FF0000304E000BF10F0004348BF40425FEA000C08BF704743F0964301464FF000001CE050EA010208BF7047E2
:401F40004FF000030AE000BF50EA010208BF704711F0004302D5404261EB41015FEA010C02BF84460146002043F0B64308BFA3F18053A3F50003BCFA8CF2083AA3EBC2533A
:401F800010DB01FA02FC634400FA02FCC2F12002BCF1004F20FA02F243EB020008BF20F00100704702F1200201FA02FCC2F1200250EA4C0021FA02F243EB020008BF20EA87
:401FC000DC7070474FF0FF0C1CEAD0521EBF1CEAD15392EA0C0F93EA0C0F6FD01A4480EA010C400218BF5FEA41211ED04FF0006343EA501043EA5111A0FB01310CF00040A9
:40200000B1F5000F3EBF490041EAD3715B0040EA010062F17F02FD2A1DD8B3F1004F40EBC25008BF20F00100704790F0000F0CF0004C08BF49024CEA502040EA51207F3A1E
:40204000C2BFD2F1FF0340EAC250704740F400004FF00003013A5DDC12F1190FDCBF00F000407047C2F10002410021FA02F1C2F1200200FA02FC5FEA310040F1000053EAD7
:402080004C0308BF20EADC70704792F0000F00F0004C02BF400010F4000F013AF9D040EA0C0093F0000F01F0004C02BF490011F4000F013BF9D041EA0C018FE70CEAD15328
:4020C00092EA0C0F18BF93EA0C0F0AD030F0004C18BF31F0004CD8D180EA010000F00040704790F0000F17BF90F0004F084691F0000F91F0004F14D092EA0C0F01D14202E2
:402100000FD193EA0C0F03D14B0218BF084608D180EA010000F0004040F0FE4040F40000704740F0FE4040F4400070474FF0FF0C1CEAD0521EBF1CEAD15392EA0C0F93EAEE
:402140000C0F69D0A2EB030280EA010C49024FEA402037D04FF0805343EA111143EA10130CF000408B4238BF5B0042F17D024FF4000C8B4224BF5B1A40EA0C00B3EB510FB1
:4021800024BFA3EB510340EA5C00B3EB910F24BFA3EB910340EA9C00B3EBD10F24BFA3EBD10340EADC001B0118BF5FEA1C1CE0D1FD2A3FF650AF8B4240EBC25008BF20F0A1
:4021C000010070470CF0004C4CEA50207F32C2BFD2F1FF0340EAC250704740F400004FF00003013A37E792F0000F00F0004C02BF400010F4000F013AF9D040EA0C0093F0E2
:40220000000F01F0004C02BF490011F4000F013BF9D041EA0C0195E70CEAD15392EA0C0F08D142027FF47DAF93EA0C0F7FF470AF084676E793EA0C0F04D14B023FF44CAF51
:4022400008466EE730F0004C18BF31F0004CCAD130F000427FF45CAF31F000437FF43CAF5FE700BF4FF0FF3C06E000BF4FF0010C02E000BF4FF0010C4DF804CD4FEA4002E0
:402280004FEA41037FEA226C18BF7FEA236C11D001B052EA530C18BF90EA010F58BFB2EB030088BFC81738BF6FEAE17018BF40F0010070477FEA226C02D15FEA402C05D1BB
:4022C0007FEA236CE4D15FEA412CE1D05DF8040B704700BF844608466146FFE70FB5FFF7C9FF002848BF10F1000F0FBD4DF808EDFFF7F4FF0CBF012000205DF808FB00BF78
:402300004DF808EDFFF7EAFF34BF012000205DF808FB00BF4DF808EDFFF7E0FF94BF012000205DF808FB00BF4DF808EDFFF7D2FF94BF012000205DF808FB00BF4DF808ED99
:40234000FFF7C8FF34BF012000205DF808FB00BF4FEA4002B2F1FE4F0FD34FF09E03B3EB12620DD94FEA002343F0004310F0004F23FA02F018BF404270474FF000007047FA
:4023800012F1610F01D1420205D110F0004008BF6FF0004070474FF000007047014B1868704700BF4081FF1F0E4B70B51E460E4C0025E41AA410A54204D056F825309847FA
:4023C0000135F8E700F084FE084B094C1E46E41AA4100025A54204D056F8253098470135F8E770BDDC300000DC300000DC300000E430000010B5431E0A44914204D011F898
:40240000014B03F8014FF8E710BD03460244934202D003F8011BFAE7704700000EB400B54FF402719CB0ADF814106FF00041049107914FF6FF711DAB02900690084853F825
:40244000042BADF81610006802A9019300F064F8029B00221A701CB05DF804EB03B070474081FF1F2DE9F0478E6882469E420C46914698463ED88A8912F4906F3AD0256816
:40248000096902236F1A656905EB450595FBF3F57B1C43449D4238BF1D4653050FD5294600F040FB064698B13A462169FFF7A2FFA38923F4906343F08003A38113E02A46A6
:4024C00000F08EFB064670B92169504600F0DEFA0C23CAF80030A3894FF0FF3043F04003A381BDE8F08726613E44266046466561ED1BA560464528BF46464946324620681A
:4025000000F0A8FAA36800209B1BA36023681E442660BDE8F08700002DE9F04F9DB003938B8980461C060D4616460DD50B695BB9402100F0F7FA2860286118B90C23C8F836
:402540000030CDE040236B610023099320238DF82930DFF89CB130238DF82A3037463C4614F8013B1BB9B7EB060910D003E0252BF9D02746F3E74B46324629464046FFF736
:4025800071FF013000F0A780099B4B4409933B78002B00F0A08000234FF0FF3204930793059206938DF853301A930126052221784E4800F041FA671C049B38B14B4A3C4633
:4025C000801A06FA00F018430490EFE7D90644BF20228DF853201A0744BF2B228DF8532022782A2A03D0079A00210A200BE0039A111D12680391002A10DA524243F00200B9
:40260000079204900BE027463B780134303B092B03D800FB02320121F5E701B107923B782E2B1ED17B782A2B0AD1039B02371A1D1B680392002BB8BF4FF0FF33059310E05C
:40264000002319460593781C0A2407463A780130303A092A03D804FB01210123F5E703B1059103223978224800F0E6F940B14023CBEB000003FA00F0049B0137184304909F
:40268000397806221B487E1C8DF8281000F0D4F988B1194B33B9039B073323F007030833039314E003AB00932A46144B04A94046AFF3008007E003AB00932A460F4B04A983
:4026C000404600F093F8B0F1FF3F824603D0099B5344099342E7AB895B0601D4099801E04FF0FF301DB0BDE8F08F00BF9A300000A0300000A430000000000000652400005E
:402700002DE9F04791461F460A698B6806469342B8BF1346C9F8003091F843200C46DDF8208012B10133C9F800302368990642BFD9F800300233C9F80030256815F006053E
:4027400010D104F1190A07E00123524639463046C04701301AD00135E368D9F800209B1A9D42F1DB94F843302268003318BF012392060FD5E118302081F843005A1C94F89A
:4027800045102244023382F8431003E04FF0FF30BDE8F08704F1430239463046C0470130F4D02268D9F80050E36802F00602042A08BF5D1B2269A3680CBF25EAE575002578
:4027C0009342C4BF9B1AED184FF000091A344D4509D00123224639463046C0470130D5D009F10109F3E70020BDE8F0872DE9F04317460A7E85B06E2A984606460C460C9B30
:4028000001F1430E00F0AE8011D8632A22D009D8002A00F0BB80582A40F0CA8081F84520834955E0642A1ED0692A1CD0C0E0732A00F0B08009D86F2A2ED0702A40F0B880EC
:402840000A6842F020020A603EE0752A24D0782A3AD0ADE01A6801F14205111D1960136884F84230A8E021681A6811F0800F02D0111D196008E011F0400F02F1040119602E
:4028800002D0B2F9003000E01368002B3CDA2D225B4284F8432037E021681A6811F0800F02D0111D196007E011F0400F02F10401196001D0138800E01368227E5C496F2A8C
:4028C00014BF0A2208221BE078225A4984F845202268186812F0800F00F104051D6003D1550601D5038800E00368D00744BF42F0200222601BB9226822F0200222601022B3
:40290000002084F8430001E049490A226568002DA56008DB206820F0040020602BB9002D7DD175460CE0002B79D07546B3FBF2F002FB1033CB5C05F8013D03460028F5D17D
:40294000082A0BD12368DA0708D5236962689A42DEBF302305F8013C05F1FF35C5EB0E0323612EE008681A6810F0800F496903D0101D1860136808E010F0400F02F10400D3
:402980001860136801D0198000E0196000232361754616E01A68111D1960156800216268284600F049F808B1401B6060636804E004F1420584F8422001232361002384F8F5
:4029C0004330CDF800803B4603AA21463046FFF797FE013002D14FF0FF3026E023692A4639463046C0470130F5D023689B0710D5002504F1190907E001234A463946304645
:402A0000C0470130E7D00135E368039A9B1A9D42F2DBE068039B9842B8BF184605E00B7804F1420584F842308AE705B0BDE8F083AB300000BC30000010B5C9B202449042A4
:402A4000034605D01C7801308C42F8D1184610BD002010BD884210B501EB020301D8421E0BE09842FBD28118D21AD34204D013F8014D01F8014DF8E710BD994204D011F807
:402A8000014B02F8014FF8E710BD000038B50546002944D051F8043C0C1F002BB8BFE41800F0D4F81E4A1368114613B96360146030E0A3420DD92268A018834201BF1868F2
:402AC0005B681218226063600C6023E0A24203D813465A68002AF9D118681918A1420BD12168014458188242196013D110685268014419605A600DE002D90C232B6009E083
:402B000021686018824201BF106852680918216062605C602846BDE8384000F098B838BD8C81FF1F70B5CD1C25F0030508350C2D38BF0C25002D064601DBA94202D90C23C0
:402B4000336046E000F082F8234B1C681A462146A1B10B685B1B0ED40B2B03D90B60CC18CD501EE08C420BBF63684B681360636018BF0C4615E00C464968E9E7174C2368B5
:402B80001BB9304600F052F820602946304600F04DF8431C18D0C41C24F00304A0420DD12560304600F053F804F10B00231D20F00700C31A0ED05A42E25070BD211A304601
:402BC00000F034F80130EBD10C233360304600F03EF8002070BD00BF8C81FF1F8881FF1FF8B5074615460E4621B91146BDE8F840FFF798BF1AB9FFF749FF2846F8BD00F0E8
:402C000027F885420ED929463846FFF78BFF044650B131462A46FFF7EDFB31463846FFF735FF01E03046F8BD2046F8BD38B5064C0023054608462360FDF704FC431C02D160
:402C4000236803B12B6038BD9882FF1F7047704751F8040C0028BEBF091851F8043CC01804387047000000002566200D0A000000596F752068617665206D61646520612061
:402C80006772617665206D697374616B650D0A00005100401000205100401000405100403000F0510040100000000140001000140140000800400140000A004C014000021E
:402CC0000050014020000000000FC93F000F494000CB9640000FC9400053FB4000CB164100ED2F41000F49410031624100537B41003A8A4100CB9641005CA34100EDAF416E
:402D0000007EBC41000FC94100A0D5410031E24100C2EE410053FB4100F20342003A0A420083104200CB164200141D42005C234200A5294200ED2F4200363642007E3C4274
:402D400000C74242000F4942A2000000F9000000830000006E0000004E000000440000001500000029000000FC0000002700000057000000D1000000F5000000340000009E
:402D8000DD000000C0000000DB0000006200000095000000990000003C000000430000009000000041000000FE0000005100000063000000AB000000DE000000BB000000C5
:402DC000C500000061000000B7000000240000006E0000003A000000420000004D000000D2000000E000000006000000490000002E000000EA00000009000000D1000000A8
:402E0000920000001C000000FE0000001D000000EB0000001C000000B100000029000000A70000003E000000E80000008200000035000000F50000002E000000BB00000086
:402E40004400000084000000E90000009C0000007000000026000000B40000005F0000007E000000410000003900000091000000D6000000390000008300000053000000EE
:402E800039000000F40000009C000000840000005F0000008B000000BD000000F9000000280000003B0000001F000000F800000097000000FF000000DE0000000500000032
:402EC000980000000F000000EF0000002F000000110000008B0000005A0000000A0000006D0000001F0000006D000000360000007E000000CF00000027000000CB0000009F
:402F000009000000B70000004F000000460000003F000000660000009E0000005F000000EA0000002D0000007500000027000000BA000000C7000000EB000000E500000096
:402F4000F10000007B0000003D0000000700000039000000F70000008A0000005200000092000000EA0000006B000000FB0000005F000000B10000001F0000008D000000F7
:402F80005D0000000800000056000000030000003000000046000000FC0000007B0000006B000000AB000000F0000000CF000000BC000000200000009A000000F400000027
:402FC000360000001D000000A9000000E300000091000000610000005E000000E60000001B000000080000006500000099000000850000005F00000014000000A000000003
:4030000068000000400000008D000000FF000000D8000000800000004D00000073000000270000003100000006000000060000001500000056000000CA0000007300000038
:40304000A8000000C900000060000000E20000007B000000C00000008C0000006B0000000400000007000000090000000000C93F0000F0390000DA370000A2330000842E8E
:403080000000502B0000C2270000D0220000C41F0000C61B000044174300232D302B2000686C4C006566674546470030313233343536373839414243444546003031323301
:4030C00034353637383961626364656600000000F8B500BFF8BC08BC9E4670474D000000C1040000F8B500BFF8BC08BC9E4670472900000008310000C880FF1F80000000DC
:40310000580100000000000000000000A082FF1F0000E02EC05D00001800000000366E0100000000000000000000000000000000000000000000000000000000000000000E
:403140009830000000000000000000000000000000000000000000000000000000000000000000000000000000000000000000000000000000000000000000000000000087
:40318000E080FF1F00000000000000000000000000000000000000000000000000000000000000000000000000000000000000000000000000000000000000000000000091
:4031C00000000000000000000000000000000000000000000000000000000000000000000000000000000000000000000000000000000000000000000000000000000000CF
:40320000000000000000000000000000000000000000000000000000000000000000000000000000000000000000000000000000000000000000000000000000000000008E
:40324000000000000000000000000000000000000000000000000000000000000000000000000000000000000000000000000000000000000000000000000000000000004E
:40328000000000000000000000000000000000000000000000000000000000000000000000000000000000000000000000000000000000000000000000000000000000000E
:020000040003F7
:0200000480007A
:40000000045200400564004001650040010501400107014062080140430901405B0A0140390B0140350C01402A0D01404F0E0140270F01405118014049190140611A0140D0
:40004000461B0140044001400341014005420140054301400245014003460140034701400548014007490140094C0140074D0140055001400151014008A00930618064404D
:4000800088728B388C678D0F8F0F890FE208E801000C020304020804100F16031702180F19011C011D012003220C240C2501280329012C083302340F35013A283F10401418
:4000C000410649FF4AFF4BFF4DA04F01501856025711580459045A045B045C435D305F016040628064406540668068406A506BA86C406D206E506FA886028A058C068D020B
:400100008E0192039E069F01A103A201A408A808A903AC08B007B408B503B920BA02BF10C014C106C9FFCAFFCBFFCDAFCE07CF01D018D804D904DA04DC03DF01E040E280EE
:40014000E440E540E680E840EA50EBA8EC40ED20EE50EFA8004001200220040407440A420E050F6010A8114014041501162219011A401B101D301F082008242026102921BB
:400180002E042F183080342035103608374038404180430245814B104C044F105E206C286D506E08762277049008922094209504960497509D129E409F40A181A208A3022D
:4001C000A601AA10AF08C077C2F9C4FFCA65CC78CE08D099D224D620EC020A010B020F0313042A0131013201330435024014410649FF4AFF4BFF4DAF4E074F015018528016
:40020000580459045A045B045C445D405F016040628064406540668068406A506BA86C406D206E506FA882028301870288018B04900196029A019B02A402AE01B201B302B0
:40024000B504B602B701B808BE40BF04C014C106C55CC620C70EC83BC9FFCAFFCBFFCDAFCE07CF01D018D418D604D804D904DA04DB04DC03DD30DF01E040E280E440E54023
:40028000E680E840EA50EBA8EC40ED20EE50EFA800100512080809040E140F401208174419041D801E20201022122504268027043101361038903D053E10418043024581B9
:4002C0004B104C044D014F045511560857035E0264086640678071017D3087408D0490889430951197049E08A208A308A682A703C052C270C4A2CC21CEECD099D224D680D4
:40030000D8B003021D021E0121012F013501360137023F505407580459045B045F0189028A018F0191019702A601B201B502B701BE04C030C102C5D2C601C704C817C9FFB9
:40034000CAFFCBFFCDA0CF04D018D407D804D904DA04DB04DC40DD44DF01E040E2C0E440E540E6C0E8C0EAC0ECC0EEC000100F02102019041F802250240426402F823020E9
:400380003120320A368038A03D0140104120482049015040520859055AA05C045D105E806608670488019008A001A308B321C002C280C404CA90CC13CE8CD006D67FD860B8
:4003C00006020B0127012A022E013202340137014020410449FF4AFF4BFF4DA04F0450185280580459045A045B045C225D225F01604062C06440654066C068C06AC06CC049
:400400006EC086048B02920496029902A601AB01AD01B002B101B201B404B702B920BE10BF10C060C104C5D0C650C721C83AC9FFCAFFCBFFCDAFCE0FCF04D018D407D8040F
:40044000D904DA04DB04DC22DD22DF01E040E2C0E440E540E6C0E8C0EAC0ECC0EEC0000404040C080D02100A161018041B181E642002240827812B102C082E4036103A1005
:400480003E204004410245024D014F205408550256305D015E045FA07002C024C230C423CA32CC20CE24D085D220D6F00006011002010580080209180C040DFF1007113CFB
:4004C00013C21508160118061A011BE31F0421442406251C27E129C02C012DE72E062F18311F33C0340735383A203B025280580459045B045C335F01850188038A0C8C0A84
:400500008E048F02900392049B029E089F02A102A205A403A604A902B301B40FB702BA20BF44C006C640C9FFCA07CBFFCC40CD20CEF0CF05D008D401D804D904DA04DB045B
:40054000DC03DD33DF01E040E1A8E240E32000400120060207440A420D200E200F6010B01540162019201D201F102244241025102602274029212C042D402E012F1030A0A1
:400580003612378438483C043E223F40480450805140522058105A885B0275028C108E019110924093409444950496039720982099019A229B049C049D229E409F40A004BD
:4005C000A204A310A480A621AA10B121B348C0D3C279C4ACCAF5CCFCCEFAD204D60FEC0402030C1C0D0C0E220F03102C11011211130E14401B081C091E101F03201421108D
:400600002410283029012A0C2B062F0C301F310F3310366038803B023F044061410446CB470E481C49FF4AFF4BFF4EF04F44500C580459045A045C335D035F0166C06A40D4
:400640006B02830A841286058B048F0494049618981F9C099E06A702A81FAB01B108B21CB303B403B704BF44C016C105C203C402C50EC60CC805C9FFCAFFCBFFCC62CDA09A
:40068000CEF0CF41D00CD804D904DA04DC33DD03DF01E640E702E910EA30EB10ED10EE10EF120040010204040A520C040E0910881220151019421A021C041F1820402108FD
:4006C00027A129622C042F1831023220334038403D203E213F8041424240434046624721480849204D044F6050A457408140821085088A018C208E02919092409340944C1C
:4007000095049603982099209C049E409F80A110A224A310A420B424B540B702C029C2EDC44ECA6DCC0DCEB8D079D234E002328033023580CC709D80A680A70285809D80AE
:40074000A680A702E2109F80A680A702AB80E8808B01E0018F10A301E0089B02A311AF0223809F80A680A702C840031022808312A680A702C010C8105F0263226408980851
:400780009B02A311A808D603D8031080710285028880C408DC01E601001D0C190E1510091C09003F80004080800080000000000000FBFB00F0000000010100000000000058
:4007C00000000000000000000000000000000000000000000000000000000000000000000000000000000000000000000000000000000000000000000000000000000000F9
:4008000000000000000000000000000000000000000000000000000000000000000000000000000000000000000000000000000000000000000000000000000000000000B8
:400840000000000000000000000000000000000000000000000000000000000000000000000000000000000000000000000000000000000000000000000000000000000078
:400880000000000000000000000000000000000000000000000000000000000000000000000000000000000000000000000000000000000000000000000000000000000038
:0200000490006A
:0400000000004005B7
:0200000490105A
:04000000BC90ACAF55
:0200000490303A
:02000000262AAE
:0200000490402A
:4000000000000000000000000000000000000000000000000000000000000000000000000000000000000000000000000000000000000000000000000000000000000000C0
:400040000000000000000000000000000000000000000000000000000000000000000000000000000000000000000000000000000000000000000000000000000000000080
:400080000000000000000000000000000000000000000000000000000000000000000000000000000000000000000000000000000000000000000000000000000000000040
:4000C0000000000000000000000000000000000000000000000000000000000000000000000000000000000000000000000000000000000000000000000000000000000000
:0200000490501A
:0C00000000012E16106900012E2B369313
:00000001FF