:400000000080002011000000110500001105000008B5044B1A6803F53F5302331A6000F097FA00BFFA46004010B5054C237833B9044B13B10448AFF300800123237010BDBA
:400040003881FF1F00000000682B0000084B10B51BB108490848AFF300800848036803B910BD074B002BFBD0BDE81040184700BF000000003C81FF1F682B0000C880FF1FFC
:400080000000000070B592B0264C2346221D04F10801E06800F0CAF80646E060224D206800F066FDCDE91001606800F061FDCDE90E01A06800F05CFDCDE90C01206900F0C2
:4000C00057FDCDE90A01606900F052FDCDE90801A06900F04DFDCDE90601E06900F048FDCDE90401304600F043FDCDE90201206A00F03EFDCDE900010C4A4FF48071284628
:4001000001F0D6F8E06801F05BF8C0B200F02EFB284600F0DDFAE168206A00F081FDE06112B070BD5481FF1FB081FF1F6C2B000008B562B600F064FB00F094FA1B4800F075
:40014000F3FA1B4800F092FB1A4800F0C1FA1A4800F0BEFA194D1A4C05F11801204601F08FF8184800F0B4FA05F11401204601F087F8154800F0ACFA05F11001204601F0B2
:400180007FF8124800F0A4FA05F12401204601F077F80F4800F09CFA05F12801204601F06FF80C4800F094FAFEE700BF0902000085000000C02B0000042C00005481FF1F31
:4001C0000C2C0000102C0000182C0000202C0000382C0000502C000073280BD108B5064800F076FA0549064801F04AF8054800F06FFA08BD704700BF702C00007481FF1FDA
:400200000C2C0000902C000038B500F03FFA044609E000F035FA054600F044FA2846FFF7DBFF013CE4B2002CF3D138BD2DE9F84F8A4691469846264C0146A06900F0F0FC73
:400240000546E16800F0F6FD074626683146284600F0F0FD216900F0EDFDE16900F0E2FC8346A468214600F083FF38B9184B5C682146584600F09AFF00B95C46144BDC61A3
:400280000021304600F07EFF78B9DFF844B0DBF82010284600F0C4FCDBF8141000F0CAFD314600F07BFE064600E000263946204600F0B8FC0146304600F0B4FCCAF8007025
:4002C000C9F80040C8F80060014B1D62BDE8F88F8081FF1FFEE700BFF0B40022174611E050F82760F3B226F0FF0608E001EB420511F812406D78A5550132013BDBB2002B04
:40030000F4D10137152FEBD9F0BC7047064B1B78DBB203F00701054A11701B09013213704422034B1A707047CF0100496E5800407658004008B50A46002100F098FF08BDA3
:4003400038B50024294B1C80582202331A70332202331A80182202331A7042F2303202331A80192502331D70022203F276231A7008224FF040231A70032103F500731970F7
:400380001B4B1B78DBB21B490B701B4B1A8041F25122023B1A800CE0184B1B7803F0010343EA440404F003044FF4F07000F06CFA013D0DB1032CEFD115B90320FFF78AFFBE
:4003C0000F4B4FF480721A8007221A7000220D490A704820023108701A700222033B1A70094A137843F00703137038BD8040004008010049A146004022420040254200404F
:400400000440004006400040A243004008B500F023FF08BD38B572B6304A137843F00403137000240CE02E4D630019194A0011462A44084691882858FFF77CFF0134E4B2D0
:40044000072CF0D900240BE02549A3001819420088180622416B006BFFF7D8FF0134E4B2002CF1D01F494FF09040FFF735FF1E4A137843F0020313701032137843F0020335
:4004800013701A4C237843F040032370A2F58632513A137843F0100313700A2214491548FFF7B4FF082214491448FFF7AFFF144A137843F008031370124D61232B70FFF74D
:4004C0003FFF81232B7001220F4B1A70FFF71EFF0E2221460D48FFF799FF38BDE8460040AC2C00005800004803500140A043004088040048C05100409404004812510040B1
:40050000224300400048004004000840B043004008B500F075FE03680C2B00D1FEE7FEE708B5094B1A681044084BC31A802B02DC054B186005E000F063FE0C2303604FF043
:40054000FF32104608BD00BFCC80FF1FB882FF1F08B5104E104D16E029686B68AC68002204E051F8040B43F8040B0432A242F8D1E868002203E0002143F8041B0432824273
:40058000F9D11035013E002EE6D100F03FFEFFF7CFFDFEE701000000CC2E000008B5104A104B1A60104A136843F40073136000230AE0032B03D80D4A52F8231000E00C493C
:4005C0000C4A42F8231001332F2BF2D90A4B1A780A4B1A70074A0A4B1A60FFF71BFF08BD0004FA050CED00E014ED00E000000000110500000080FF1FBC760040C080FF1FE3
:4006000008ED00E07222084B1A70202203F201131A7006225F3B1A70472210331A7000224E331A70704700BF8964004010B500F033F904460A4A137843F02003137002F276
:400640000112137843F010031370013A137843F01003137000F0E2F8204600F021F910BD9964004008B5054B1B7823B9FFF7CAFF0122024B1A70FFF7D9FF08BDA481FF1F35
:40068000014B1878704700BF49650040044B1B7813F0200F01D0012070470020704700BF6A650040024B1B780BB1024B18707047A481FF1F49640040034B1B7813F0040F49
:4006C000FAD1024B18707047696500404964004038B5074B1B782BB938BDFFF7EDFF0134A4B201E005460024285D0028F5D138BDA481FF1F014B1B685864704708ED00E07E
:400700004001C0B2014B1870704700BF01E400E00222014B1A60704700E100E00222014B1A60704780E100E010B50446FFF7F6FF2046FFF7DFFF0720FFF7E2FFFFF7E8FFA4
:4007400010BD00BF024A137843F08003137070477A640040014B1870704700BF0A640040014B1870704700BF4A640040014B1870704700BF2A640040014B1870704700BF76
:400780008A640040014B1878704700BF6A640040014B1878704700BF5A64004008B501E0FFF7F6FFFFF7EEFF10F0100FF8D108BD10B5114A137803F0C00343F0090313701F
:4007C0000E4C237843F001032370FF20FFF7C2FFFF20FFF7C5FF7F20FFF7C8FF0020FFF7CBFF00F059F8237843F01003237000F057F8FFF7D3FF10BD7A6400409A6400406A
:4008000008B5054B1B7823B9FFF7D2FF0122024B1A70FFF797FF08BDA681FF1F054A137843F0020313701032137843F002031370704700BFA2430040014B1B68186470472B
:4008400008ED00E04001C0B2014B1870704700BF00E400E00122014B1A60704700E100E00122014B1A60704780E100E010B50446FFF7F6FF2046FFF7DFFF0720FFF7E2FF6E
:40088000FFF7E8FF10BD00BF0230800803D000BF01380046FCD17047EFF3108072B6704780F31088704700BF81F0004102E000BF83F0004330B54FEA41044FEA430594EA43
:4008C000050F08BF90EA020F1FBF54EA000C55EA020C7FEA645C7FEA655C00F0E2804FEA5454D4EB5555B8BF6D420CDD2C4480EA020281EA030382EA000083EA010180EA8B
:40090000020281EA0303362D88BF30BD11F0004F4FEA01314FF4801C4CEA113102D0404261EB410113F0004F4FEA03334CEA133302D0524263EB430394EA050F00F0A780D7
:40094000A4F10104D5F1200E0DDB02FA0EFC22FA05F2801841F1000103FA0EF2801843FA05F359410EE0A5F120050EF1200E012A03FA0EFC28BF4CF0020C43FA05F3C01873
:4009800051EBE37101F0004507D54FF0000EDCF1000C7EEB00006EEB0101B1F5801F1BD3B1F5001F0CD349085FEA30004FEA3C0C04F101044FEA445212F5800F80F09A80A0
:4009C000BCF1004F08BF5FEA500C50F1000041EB045141EA050130BD5FEA4C0C404141EB010111F4801FA4F10104E9D191F0000F04BF01460020B1FA81F308BF2033A3F1E0
:400A00000B03B3F120020CDA0C3208DD02F1140CC2F10C0201FA0CF021FA02F10CE002F11402D8BFC2F1200C01FA02F120FA0CFCDCBF41EA0C019040E41AA2BF01EB045142
:400A4000294330BD6FEA04041F3C1CDA0C340EDC04F11404C4F1200220FA04F001FA02F340EA030021FA04F345EA030130BDC4F10C04C4F1200220FA02F001FA04F340EA3C
:400A80000300294630BD21FA04F0294630BD94F0000F83F4801306BF81F480110134013D4EE77FEA645C18BF7FEA655C29D094EA050F08BF90EA020F05D054EA000C04BF73
:400AC0001946104630BD91EA030F1EBF0021002030BD5FEA545C05D14000494128BF41F0004130BD14F580043CBF01F5801130BD01F0004545F0FE4141F470014FF0000052
:400B000030BD7FEA645C1ABF194610467FEA655C1CBF0B46024650EA013406BF52EA033591EA030F41F4002130BD00BF90F0000F04BF0021704730B54FF4806404F13204DB
:400B40004FF000054FF0000150E700BF90F0000F04BF0021704730B54FF4806404F1320410F0004548BF40424FF000013EE700BF42004FEAE2014FEA31014FEA02701FBF56
:400B800012F07F4393F07F4F81F06051704792F0000F14BF93F07F4F704730B54FF4607401F0004521F0004120E700BF50EA010208BF704730B54FF000050AE050EA010286
:400BC00008BF704730B511F0004502D5404261EB41014FF4806404F132045FEA915C3FF4DCAE4FF003025FEADC0C18BF03325FEADC0C18BF033202EBDC02C2F1200300FAC7
:400C000003FC20FA02F001FA03FE40EA0E0021FA02F11444C1E600BF80F0004002E000BF81F0004142001FBF5FEA410392EA030F7FEA226C7FEA236C6AD04FEA1262D2EBD8
:400C40001363C1BFD218414048404140B8BF5B42192B88BF704710F0004F40F4000020F07F4018BF404211F0004F41F4000121F07F4118BF494292EA030F3FD0A2F101021D
:400C800041FA03FC10EB0C00C3F1200301FA03F100F0004302D5494260EB4000B0F5000F13D3B0F1807F06D340084FEA310102F10102FE2A51D2B1F1004F40EBC25008BF11
:400CC00020F0010040EA03007047490040EB000010F4000FA2F10102EDD1B0FA80FCACF1080CB2EB0C0200FA0CF0AABF00EBC25052421843BCBFD0401843704792F0000F29
:400D000081F4000106BF80F400000132013BB5E74FEA41037FEA226C18BF7FEA236C21D092EA030F04D092F0000F08BF0846704790EA010F1CBF0020704712F07F4F04D125
:400D4000400028BF40F00040704712F100723CBF00F50000704700F0004343F0FE4040F4000070477FEA226216BF08467FEA23630146420206BF5FEA412390EA010F40F4C0
:400D8000800070474FF0000304E000BF10F0004348BF40425FEA000C08BF704743F0964301464FF000001CE050EA010208BF70474FF000030AE000BF50EA010208BF704789
:400DC00011F0004302D5404261EB41015FEA010C02BF84460146002043F0B64308BFA3F18053A3F50003BCFA8CF2083AA3EBC25310DB01FA02FC634400FA02FCC2F120021A
:400E0000BCF1004F20FA02F243EB020008BF20F00100704702F1200201FA02FCC2F1200250EA4C0021FA02F243EB020008BF20EADC7070474FF0FF0C1CEAD0521EBF1CEA18
:400E4000D15392EA0C0F93EA0C0F6FD01A4480EA010C400218BF5FEA41211ED04FF0006343EA501043EA5111A0FB01310CF00040B1F5000F3EBF490041EAD3715B0040EAA3
:400E8000010062F17F02FD2A1DD8B3F1004F40EBC25008BF20F00100704790F0000F0CF0004C08BF49024CEA502040EA51207F3AC2BFD2F1FF0340EAC250704740F4000032
:400EC0004FF00003013A5DDC12F1190FDCBF00F000407047C2F10002410021FA02F1C2F1200200FA02FC5FEA310040F1000053EA4C0308BF20EADC70704792F0000F00F032
:400F0000004C02BF400010F4000F013AF9D040EA0C0093F0000F01F0004C02BF490011F4000F013BF9D041EA0C018FE70CEAD15392EA0C0F18BF93EA0C0F0AD030F0004C11
:400F400018BF31F0004CD8D180EA010000F00040704790F0000F17BF90F0004F084691F0000F91F0004F14D092EA0C0F01D142020FD193EA0C0F03D14B0218BF084608D128
:400F800080EA010000F0004040F0FE4040F40000704740F0FE4040F4400070474FF0FF0C1CEAD0521EBF1CEAD15392EA0C0F93EA0C0F69D0A2EB030280EA010C49024FEA36
:400FC000402037D04FF0805343EA111143EA10130CF000408B4238BF5B0042F17D024FF4000C8B4224BF5B1A40EA0C00B3EB510F24BFA3EB510340EA5C00B3EB910F24BFB8
:40100000A3EB910340EA9C00B3EBD10F24BFA3EBD10340EADC001B0118BF5FEA1C1CE0D1FD2A3FF650AF8B4240EBC25008BF20F0010070470CF0004C4CEA50207F32C2BFC6
:40104000D2F1FF0340EAC250704740F400004FF00003013A37E792F0000F00F0004C02BF400010F4000F013AF9D040EA0C0093F0000F01F0004C02BF490011F4000F013BA5
:40108000F9D041EA0C0195E70CEAD15392EA0C0F08D142027FF47DAF93EA0C0F7FF470AF084676E793EA0C0F04D14B023FF44CAF08466EE730F0004C18BF31F0004CCAD19B
:4010C00030F000427FF45CAF31F000437FF43CAF5FE700BF4FF0FF3C06E000BF4FF0010C02E000BF4FF0010C4DF804CD4FEA40024FEA41037FEA226C18BF7FEA236C11D03C
:4011000001B052EA530C18BF90EA010F58BFB2EB030088BFC81738BF6FEAE17018BF40F0010070477FEA226C02D15FEA402C05D17FEA236CE4D15FEA412CE1D05DF8040BF8
:40114000704700BF844608466146FFE70FB5FFF7C9FF002848BF10F1000F0FBD4DF808EDFFF7F4FF0CBF012000205DF808FB00BF4DF808EDFFF7EAFF34BF012000205DF8DF
:4011800008FB00BF4DF808EDFFF7E0FF94BF012000205DF808FB00BF4DF808EDFFF7D2FF94BF012000205DF808FB00BF4DF808EDFFF7C8FF34BF012000205DF808FB00BFC5
:4011C00042000ED2B2F1FE4F0BD34FF09E03B3EB126209D44FEA002343F0004323FA02F070474FF00000704712F1610F01D1420202D14FF0FF3070474FF00000704700BF6C
:40120000014B1868704700BF3081FF1F0E4B70B51E460E4C0025E41AA410A54204D056F8253098470135F8E701F03EFE084B094C1E46E41AA4100025A54204D056F82530CA
:4012400098470135F8E770BDB42E0000B42E0000B42E0000BC2E000010B5431E0A44914204D011F8014B03F8014FF8E710BD03460244934202D003F8011BFAE77047000071
:401280000FB40A4B13B51C6824B1A36913B9204600F080F805AB049A61682046019300F0BBFD02B0BDE8104004B070473081FF1F0CB430B5164B0C1E9DB01D6804DA8B2327
:4012C0002B604FF0FF301EE04FF40273ADF814300CBF234604F1FF33049307934FF6FF7302900690ADF81630209A21AB02A92846019300F0ADF9431CBCBF8B232B6014B15F
:40130000029B00221A701DB0BDE8304002B070473081FF1F014900F0C5B800BFF527000010B50446002303604360836081814366C281036143618361194608225C30FFF7B8
:4013400096FF054B24626362044BA362044BE362044B236310BD00BFBD220000DF220000172300003B23000070B568234D1E5D430E4605F1740100F0B3F8044640B100210B
:4013800080E842000C30A06005F16802FFF76FFF204670BD836910B5044633BB8364C3640365124B124A1B688262984204BF0123836100F01FF86060204600F01BF8A0609C
:4013C000204600F017F80022E06004216068FFF7A7FF01220921A068FFF7A2FF02221221E068FFF79DFF0123A36110BDE82C000015130000F8B51C4B07461E68B36913B980
:401400003046FFF7C7FF4836B4687368013B04D4B4F90C507DB16834F8E733680BB13668F2E704213846FFF79FFF30600028F6D10C233B60F8BD4FF6FF73E3810123A381D9
:4014400065662560A560656025616561A5610822294604F15C00FFF70AFF6563A563A564E5642046F8BD00BFE82C00002DE9F041884600F1480400268CB1A5686768013F36
:401480000BD4AB89012B06D9B5F90E30013302D02846C04706436835F1E72468ECE73046BDE8F0812DE9F8438046894600F14804002694B1A5686768013F0CD4AB89012B14
:4014C00007D9B5F90E30013303D029464046C84706436835F0E72468EBE73046BDE8F88370B5CD1C25F0030508350C2D38BF0C25002D064601DBA94202D90C23336046E098
:4015000001F04FFA234B1C681A462146A1B10B685B1B0ED40B2B03D90B60CC18CD501EE08C420BBF63684B681360636018BF0C4615E00C464968E9E7174C23681BB93046AA
:4015400000F07CFE20602946304600F077FE431C18D0C41C24F00304A0420DD12560304601F020FA04F10B00231D20F00700C31A0ED05A42E25070BD211A304600F05EFE25
:401580000130EBD10C233360304601F00BFA002070BD00BFAC81FF1FA881FF1F2DE9F0478E6882469E420C46914698463ED88A8912F4906F3AD02568096902236F1A6569CD
:4015C00005EB450595FBF3F57B1C43449D4238BF1D4653050FD52946FFF782FF064698B13A462169FFF738FEA38923F4906343F08003A38113E02A4601F022FA064670B900
:401600002169504601F0D0F90C23CAF80030A3894FF0FF3043F04003A381BDE8F08726613E44266046466561ED1BA560464528BF464649463246206801F098F9A368002037
:401640009B1BA36023681E442660BDE8F08700002DE9F04F9DB003938B8980461C060D4616460DD50B695BB94021FFF739FF2860286118B90C23C8F80030CDE040236B6169
:401680000023099320238DF82930DFF89CB130238DF82A3037463C4614F8013B1BB9B7EB060910D003E0252BF9D02746F3E74B46324629464046FFF771FF013000F0A78059
:4016C000099B4B4409933B78002B00F0A08000234FF0FF3204930793059206938DF853301A930126052221784E4801F031F9671C049B38B14B4A3C46801A06FA00F01843E5
:401700000490EFE7D90644BF20228DF853201A0744BF2B228DF8532022782A2A03D0079A00210A200BE0039A111D12680391002A10DA524243F00200079204900BE02746E7
:401740003B780134303B092B03D800FB02320121F5E701B107923B782E2B1ED17B782A2B0AD1039B02371A1D1B680392002BB8BF4FF0FF33059310E0002319460593781C02
:401780000A2407463A780130303A092A03D804FB01210123F5E703B1059103223978224801F0D6F840B14023CBEB000003FA00F0049B013718430490397806221B487E1C56
:4017C0008DF8281001F0C4F888B1194B33B9039B073323F007030833039314E003AB00932A46144B04A94046AFF3008007E003AB00932A460F4B04A9404600F093F8B0F196
:40180000FF3F824603D0099B5344099342E7AB895B0601D4099801E04FF0FF301DB0BDE8F08F00BF4C2D0000522D0000562D0000000000009D1500002DE9F04791461F460F
:401840000A698B6806469342B8BF1346C9F8003091F843200C46DDF8208012B10133C9F800302368990642BFD9F800300233C9F80030256815F0060510D104F1190A07E0B6
:401880000123524639463046C04701301AD00135E368D9F800209B1A9D42F1DB94F843302268003318BF012392060FD5E118302081F843005A1C94F845102244023382F8DF
:4018C000431003E04FF0FF30BDE8F08704F1430239463046C0470130F4D02268D9F80050E36802F00602042A08BF5D1B2269A3680CBF25EAE57500259342C4BF9B1AED189F
:401900004FF000091A344D4509D00123224639463046C0470130D5D009F10109F3E70020BDE8F0872DE9F04317460A7E85B06E2A984606460C460C9B01F1430E00F0AE80AF
:4019400011D8632A22D009D8002A00F0BB80582A40F0CA8081F84520834955E0642A1ED0692A1CD0C0E0732A00F0B08009D86F2A2ED0702A40F0B8800A6842F020020A60EC
:401980003EE0752A24D0782A3AD0ADE01A6801F14205111D1960136884F84230A8E021681A6811F0800F02D0111D196008E011F0400F02F10401196002D0B2F9003000E0A0
:4019C0001368002B3CDA2D225B4284F8432037E021681A6811F0800F02D0111D196007E011F0400F02F10401196001D0138800E01368227E5C496F2A14BF0A2208221BE0C4
:401A000078225A4984F845202268186812F0800F00F104051D6003D1550601D5038800E00368D00744BF42F0200222601BB9226822F0200222601022002084F8430001E0E5
:401A400049490A226568002DA56008DB206820F0040020602BB9002D7DD175460CE0002B79D07546B3FBF2F002FB1033CB5C05F8013D03460028F5D1082A0BD12368DA0792
:401A800008D5236962689A42DEBF302305F8013C05F1FF35C5EB0E0323612EE008681A6810F0800F496903D0101D1860136808E010F0400F02F104001860136801D01980BF
:401AC00000E0196000232361754616E01A68111D1960156800216268284600F039FF08B1401B6060636804E004F1420584F8422001232361002384F84330CDF800803B46F1
:401B000003AA21463046FFF797FE013002D14FF0FF3026E023692A4639463046C0470130F5D023689B0710D5002504F1190907E001234A4639463046C0470130E7D0013527
:401B4000E368039A9B1A9D42F2DBE068039B9842B8BF184605E00B7804F1420584F842308AE705B0BDE8F0835D2D00006E2D00002DE9F04FDFF89C9207460D46CA46ADF5E6
:401B8000257D01930023469347939E4B0DF10C08A2939D4BDFF874B2CDF82081A3931478002C00F02781D9F8003023445B7803F0080303F0FF01F3B16B68002B10DD2B68CA
:401BC000DAF800001978014449780C0710D5479901330131479169682B6001396960EBE7A39B2946384600929847009A0028E6D0561C3246D3E7252C02F1010652D143913B
:401C0000459153782A2B02BF1023961C43930A2231783446A1F13003092B06F1010605D8459B02FB0313303B4593F1E70322774800F08EFE40B134460123CBEB000003FA5F
:401C400000F0439B03434393661C2478672C16D8652C7FD2472C07D8452C7BD2002C00F0CB80252C1ED077E05B2C51D002D8582C3ED071E0632C57D0642C3FD06CE0702C4A
:401C800032D007D86E2C55D03AD8692C64D1002344933BE0752C31D0782C29D0732C5BD102233FE06B68002B0DDD2B681A78944240F0A08001336A682B60479B013A013330
:401CC0006A60479395E7A39B2946384698470028EBD04698002800F08F80AB8913F0400F18BF4FF0FF3089E0439B43F020034393439B43F400734393102302E00A2300E014
:401D000008236E2C449301DD04230BE0032309E03146404600F0A2FA0646439B43F040034393012349931BE0439B43F0400343930023F7E7439AD0063FF55BAF12F0010FE0
:401D4000019A479B02F104010191126814BF138013604EE70523E5E7032349930A2344936B68002B03DD439B590611D518E0A39B2946384698470028F5D0AAE7479A013245
:401D800047926A68013A002A6A6013DD01332B602B68DAF800101A780A4452781207EDD4499B022B0DDC01AB2A4643A9384600F05BF819E0A39B2946384698470028E7D0FC
:401DC00087E7042B06DC01AB2A4643A9384600F0B1F809E00E4B002B3FF40BAF01AB2A4643A93846AFF30080012803D002287FF400AF6EE7469801E04FF0FF300DF5257DD5
:401E0000BDE8F08FC12500002D210000522D0000000000003481FF1F2DE9F0410C4616461F46054618B183690BB9FFF7B3FA0B4B9C4201D16C6808E0094B9C4201D1AC685D
:401E400003E0084B9C4208BFEC683B46324621462846BDE8F041FFF78BBE00BFEC2C00000C2D00002C2D00002DE9F84315468A6880460C4632B98A69002A0CBF01224FF0FC
:401E8000FF328A602268DFF8A890D10658BF1A684FF000065EBF111D19601768A069F8B923680136DA065EBF2B681B783B702A686B6802F101022A60A26803F1FF3302F124
:401EC000FF326B6058BF0137A260E2B1002BE5DCD4F880312946404698470028DED012E0012806D12B681A7863699B5C002BD7D119E0022807D12B68D9F800201B781344D9
:401F00005B781B07CCD5236813F0100305D1E2680132E260A26902B13B70236900201E442661BDE8F883002EEDD1BDE8F88300BF3481FF1F2DE9F04F0C469A46724B87B09E
:401F40008346164693E8070003ABA76883E807006E4BA1696E4A04F11C09032918BF1A467B1EB3F5AE7F84BF40F25D13A360236888BF6FF4AE7543F4506323604B46009255
:401F80008CBF7F1900274FF000083168019303AB53F828000222097800F0DAFC019B002833D0B8F1010F0BD162682AB908226260226842F400722260226822F4A0620CE0E0
:401FC000B8F1020F0AD1226802F4C061B1F5007F1BD11021616042F480722260A268511EA16092B132685D1C511C316012781A707368013B002B736006DCD4F88031314631
:4020000058469847002841D12B4608F10108B8F1030FBAD162680AB90A22626062683D496069891A019300F019F9019B4FF000081D46A36863B3316860690A78805C38B351
:40204000302A226808D1100506D508F1010857B10133013FA36006E022F4106222600B78013505F8013C7368013B002B736003DD33680133336005E0D4F880313146584681
:40208000984728B9A368013BA360D2E74FF000082368D9050CD54D4508D915F8011C6F1ED4F87C313246584698473D464D4527D0226812F010021BD12A706368494658460C
:4020C000009EB0472268DAF8003012F0200F07D1D20705D51A1DCAF800201B68188004E01A1DCAF800201B681860E3680133E3602369C9EB050545441D442561002000E05B
:40210000012007B0BDE8F08F802D000051240000452300009C2D0000838903F00903092B01D100F091BB002070470000F8B50C46054618B183690BB9FFF72CF93A4B9C42EB
:4021400001D16C6808E0394B9C4201D1AC6803E0374B9C4208BFEC68B4F90C200023636093B29E065BD458071AD4D90605D4092342F040022B60A28151E01A070BD5214668
:40218000284600F037FB002849D1A389A06023F00803A381A061A38943F00403A38110E0616B71B104F14403994202D0284600F0FBFB236C00206063636013B1E36B23606F
:4021C000F8BD23691BB92146284600F085FBB4F90C70BEB2B3070FD00123A381154B1649186806F00906FFF741F9092EA78103D12146284600F078FA2269666A2260636984
:40220000216A2846B047002860600BDCA38917BF002243F0200343F040036260A3814FF0FF30F8BD0020F8BDEC2C00000C2D00002C2D0000E82C00001921000038B5064CDA
:402240000023054608462360FEF76AF9431C02D1236803B12B6038BDB082FF1F70B50B78441E5E2B13BF4A1C8A1C4B78002108BF012100F1FF0504F8011FAC42FBD10BB9B9
:40228000501E70BD81F001041146C4540D784A1C2D2D06D05D2D0FD00DB12B46F4E7084670BD4E785D2EF8D0B342F6DC023101339E42C454FBDCE9E7104670BD10B50C4615
:4022C000B1F90E1000F0E2FB0028ABBF636DA3891B1823F48053ACBF6365A38110BD2DE9F0411F468B890546DB050C46164605D502230022B1F90E1000F0B8FAA3893246B2
:4023000023F48053A381B4F90E103B462846BDE8F04100F0C7B910B50C46B1F90E1000F0A5FA431CA38915BF606523F4805343F48053A38118BFA38110BDB1F90E1000F065
:40234000C3B900002DE9F0470F4680463F48D0F800903D4615F8014B09EB0400407800F0080000F0FF0608B12F46F2E72D2C03D1BD1C7C78012603E02B2C04BF7C78BD1C2F
:4023800013B1102B0AD15BE0302C57D1287800F0DF0058284DD16C7810230235002E14BF4FF0004C6FF0004CBCFBF3FA0027384603FB1ACC09EB040E9EF801E01EF0040F27
:4023C00001D0303C0BE01EF0030E1BD0BEF1010F0CBF4FF0370E4FF0570ECEEB0404A34210DDB7F1FF3F0AD0504506D801D1644503DC03FB0040012701E04FF0FF3715F810
:40240000014BD7E77B1C0CD1002E4FF0220314BF4FF000406FF00040C8F800302AB9BDE8F08706B1404272B107B1691E1160BDE8F0873024002BB1D10823AFE70A23ADE701
:40244000302CA3D0AAE7BDE8F08700BF3481FF1F2DE9F0470E4680463B48D0F80090354615F8014B09EB0400407800F0080000F0FF0708B12E46F2E72D2C03D1B51C7478AA
:40248000012703E02B2C04BF7478B51C13B1102B0AD153E0302C4FD1287800F0DF00582845D16C78102302354FF0FF3CBCFBF3FC03FB0CFA00266FEA0A0A304609EB040E2B
:4024C0009EF801E01EF0040F01D0303C0BE01EF0030E1AD0BEF1010F0CBF4FF0370E4FF0570ECEEB0404A3420FDD002E08DB604506D801D1544503DC03FB0040012601E0AB
:402500004FF0FF3615F8014BD8E7002E07DA2223C8F800304FF0FF302AB9BDE8F08707B1404272B106B1691E1160BDE8F0873024002BB9D10823B7E70A23B5E7302CABD0C4
:40254000B2E7BDE8F08700BF3481FF1F2DE9F0410C46496B04F1440399421AD14FF48061FEF7BEFF18B94FF0FF30BDE8F0814FF48063A36394F84630606380F8FF3394F873
:40258000453000F2FD30437094F844300370206012E0A66B77003A4600F052FA05460028E1D000EB0608014632464046FEF754FEC4F800806563A7630020BDE8F0810000BE
:4025C000F8B54D1C06460F46144602D14FF0FF30F8BD18B183690BB9FEF7DCFE2E4B9C4201D1746808E02D4B9C4201D1B46803E02B4B9C4208BFF468B4F90C3023F02003E2
:40260000A3819BB2590713D4DA06DFD51B070BD52146304600F0EEF80028D7D1A389A06023F00803A381A061A38943F00403A381636BFDB262688BB1A36B9A4207DA2368F7
:402640005A1E226003F8017C6368013320E021463046FFF77BFF0028F1D0B7E72169236851B1994208D213F8011C8D4204D1013B0132236062600CE0E36304F14403636395
:402680000323A3632346226403F8467F2360012363602846F8BD00BFEC2C00000C2D00002C2D000038B5074C054608461146002222601A4600F050FA431C02D1236803B16A
:4026C0002B6038BDB082FF1F38B5064C002305460846236000F018FA431C02D1236803B12B6038BDB082FF1F8A892DE9F041054610070C4659D44B68002B02DC0B6C002BB0
:4027000017DDE66AAEB102F48052002392B22F682B600AB1606D15E0216A01232846B047411C0FD12B686BB11D2B01D0162B03D12F600020BDE8F081A38943F04003A3816F
:40274000BDE8F081A3895A0705D56368C01A636B0BB1236CC01A00230246E66A216A2846B047431CA38906D129681D2939D8204ACA40D60735D5002262602269D904226026
:4027800004D5421C01D12B6803B96065616B2F600029CED004F14403994202D0284600F003F900206063BDE8F0810F69002FC0D093070E680CBF4B690023C7EB06080F6086
:4027C0008B6002E00744C0EB0808B8F1000FB0DD43463A46216A2846A66AB0470028F1DCA38943F04003A3814FF0FF30BDE8F0810100402038B50B6905460C46DBB118B1C5
:4028000083690BB9FEF7C6FD0C4B9C4201D16C6808E00B4B9C4201D1AC6803E0094B9C4208BFEC68B4F90C302BB121462846BDE83840FFF759BF002038BD00BFEC2C000072
:402840000C2D00002C2D0000014620B9044B05491868FEF727BE044B1868FFF7CBBF00BFE82C0000F52700003081FF1F38B5074C054608461146002222601A4600F05CF929
:40288000431C02D1236803B12B6038BDB082FF1F70B50E46B1F90E1090B0002914461D4606DA00232B60B3891A060ED540230EE001AA00F0FDF80028F3DB029A02F4704288
:4028C000A2F500535A425A412A604FF480630020236010B070BD00008B8973B59E0705460C4610D401AB6A46FFF7D2FF009906462846FEF7F5FD68B9B4F90C309A0522D419
:4029000043F00203A38104F14703236023610123636118E00D4BAB62A389206043F08003A381009B20616361019B4BB1B4F90E10284600F0CFF818B1A38943F00103A38172
:40294000A0893043A08102B070BD00BF1513000010B5C9B202449042034605D01C7801308C42F8D1184610BD002010BD884210B501EB020301D8421E0BE09842FBD2811806
:40298000D21AD34204D013F8014D01F8014DF8E710BD994204D011F8014B02F8014FF8E710BD70477047000038B50546002944D051F8043C0C1F002BB8BFE418FFF7F1FFE1
:4029C0001E4A1368114613B96360146030E0A3420DD92268A018834201BF18685B681218226063600C6023E0A24203D813465A68002AF9D118681918A1420BD121680144CB
:402A000058188242196013D110685268014419605A600DE002D90C232B6009E021686018824201BF106852680918216062605C602846BDE83840FFF7B5BF38BDAC81FF1FE4
:402A4000F8B5074615460E4621B91146BDE8F840FEF746BD1AB9FFF7A7FF2846F8BD00F049F885420ED929463846FEF739FD044650B131462A46FEF7EFFB31463846FFF722
:402A800093FF01E03046F8BD2046F8BD38B5074C054608461146002222601A4600F054F8431C02D1236803B12B6038BDB082FF1F38B5074C0023054608461146236000F0E6
:402AC0002BF8431C02D1236803B12B6038BD00BFB082FF1F38B5064C002305460846236000F022F8431C02D1236803B12B6038BDB082FF1F51F8040C0028BEBF091851F882
:402B0000043CC01804387047024B58221A604FF0FF307047B082FF1F024B58221A604FF0FF307047B082FF1F024B58221A600020704700BFB082FF1F024B58221A604FF077
:402B4000FF307047B082FF1F024B58221A604FF0FF307047B082FF1F024B58221A604FF0FF307047B082FF1F00000000536574706F696E743A2025662C206F75747075747B
:402B80003A2025662C206572726F723A2025662C206B703A2025662C206B693A2025662C206B643A2025662C20503A2025662C20493A2025662C20443A202566200D0A001D
:402BC00050494420436F6E74726F6C6C65722073746172746564202D20506C656173652063686F6F73652074686520666F6C6C6F77696E6720706172616D65746572733A55
:402C00000D0A00004B703A2000000000256600000D0A4B693A2000000D0A4B643A2000000D0A696E74656772616C206D696E696D756D3A20000000000D0A696E7465677215
:402C4000616C204D6178696D756D3A20000000000A0D416C6C20706172616D6574657273207265636965766564210D0A00000000506C656173652063686F6F736520612070
:402C80006E657720736574706F696E743A0000000D0A536574706F696E74206973206368616E676564210D0A00000000005100401000205100405000F0510040100000003C
:402CC0000140001000140140000800400140000A004C01400002005001402000605200408004004806004300D080FF1F0000000000000000000000000000000000000000E6
:402D00000000000000000000000000000000000000000000000000000000000000000000000000000000000000000000000000000000000000000000000000000000000093
:402D4000000000000000000000000000232D302B2000686C4C0065666745464700303132333435363738394142434445460030313233343536373839616263646566000060
:402D80009E2D0000A12D0000A42D0000412D46612D66383930313233343536375D002B2D0030300078580000202020202020202020282828282820202020202020202020E7
:402DC000202020202020202088101010101010101010101010101010040404040404040404041010101010101041414141414101010101010101010101010101010101012C
:402E0000010101101010101010424242424242020202020202020202020202020202020202020210101010200000000000000000000000000000000000000000000000001B
:402E40000000000000000000000000000000000000000000000000000000000000000000000000000000000000000000000000000000000000000000000000000000000052
:402E800000000000000000000000000000000000000000000000000000000000000000000000000000000000F8B500BFF8BC08BC9E4670474D0000009D050000F8B500BF38
:402EC000F8BC08BC9E46704729000000E02E0000C880FF1F70000000800100000000000000000000B882FF1F00000000EC2C00000C2D00002C2D000000000000000000002F
:402F00000000000000000000E62C0000000000000000000000000000000000000000000000000000000000000000000000000000000000000000000000000000000000007F
:402F40000000000000000000D080FF1FA72D00000000000000000000000000000000000000000000000000000000000000000000000000000000000000000000000000000F
:402F80000000000000000000000000000000000000000000000000000000000000000000000000000000000000000000000000000000000000000000000000000000000011
:402FC00000000000000000000000000000000000000000000000000000000000000000000000000000000000000000000000000000000000000000000000000000000000D1
:403000000000000000000000000000000000000000000000000000000000000000000000000000000000000000000000000000000000000000000000000000000000000090
:403040000000000000000000000000000000000000000000000000000000000000000000000000000000000000000000000000000000000000000000000000000000000050
:020000040003F7
:0200000480007A
:40000000015200400264004002650040490801402F090140300A01401E0B0140011501404D1801403E190140511A0140491B014003400140024101400242014002430140F7
:400040000448014003490140054C0140084D01400450014001510140094089728A0D890F8A38000302041003120C16081A051C031E04200A2204300F3A0258045C015F0145
:4000800081DC8321840F850889C08DFF8E029180940C9518980C993C9A039BC29C0C9D109E03A008A144A404A704A803AA0CABE3ADE7AF18B001B20EB3D8B51FB738B80250
:4000C000BA28BB28C042C105C50BC60CC7E0C825C9FFCAFFCBFFCEF0CF44D00CD602D712D804D904DA04DB04DC11DD11DF01E6C0EA40EB0200040202064009080B050E66A3
:400100001080120813081701180419111A201E40226823042A202B923080310A322038623A083B01424448104A0152415904695470807108720873088C018E10921295540B
:40014000C015C2F7C41ECA0FCC0FCE0FD005D208D60204010C010F0213011A021B022602280131023201340235013E104020410645D246014702481749FF4AFF4BFF4DA0A1
:400180004F04501852805405580459045A045B045C015F01604062C06440654066C068C06AC06CC06EC09402AE03B201B602D804DF01014409200E201020111015801A142B
:4001C0001D401E20212022013002312039804120482849015008514059415A047002C005C222C486CC05CE08D004D204D60BE602050209500D410F3011701309170C19245F
:400200001B40213123442D40337C3503392059045C105F018402851889188B028E018F18900191109304940295189A019B189C01A101A201A402A508A704A802AB18B118DD
:40024000B202B301B601B706BE44BF44C063C102C204C401C60CC70EC814C9FFCAFFCBFFCC62CDA0CEF0CF41D00CD401D804D904DA04DB04DC10DD11DF01E640E702E910FC
:40028000EA30EB10ED10EE10EF120044030108400A640B041080126819842001220525182614282029022A212C402F023102322836143701382439403C203E403F04408599
:4002C00042304A08504859825A085B109004911492F09420960499019A419D049E209F01A010A228A502A611A790B201B440B510B61AB702C005C20FC40ECA97CCE7CE7EB1
:40030000D00FD204D60F00020209050C0610090C0C600E100F0110041108120113041401160617021A601E301F012220230224072504270828072E503070310C32073408CE
:40034000350237013A023F5054185604580459045B045C115D105F0180048101830E87038B0C8D018F06900694019A029C069D0C9F03AF08B10FB406B601B820BB02BE5011
:40038000C002C740C9FFCA07CBFFCC40CD20CEF0CF05D008D804D904DA04DC10DD01DF01E040E1A8E240E3200040010803800740084009120A200C400D080E420F061156D2
:4003C00018201A201B111D201F4020042102228024402740282029012F023008310232403740388039143D603E403F0645204D084F04550157025A026004628063408740EB
:400400008B408C208F809080911492C29460970499019C60A008A118A502A601A792A880AB10B480B540B650C01DC2FFC40FCA13CC1BCEFED020D601D80D33403620CC309C
:400440009F40A6209F40A6209F40A62027409F40A620C8808620A620E64060809880B080D802E804128076408A408E80C408DE04E202E40100030C0310021C02000F0000D1
:400480008080000040000000800040808000800000000000004B4B0040000000000000000000000000000000000000000000000000000000000000000000000000000000E6
:4004C00000000000000000000000000000000000000000000000000000000000000000000000000000000000000000000000000000000000000000000000000000000000FC
:4005000000000000000000000000000000000000000000000000000000000000000000000000000000000000000000000000000000000000000000000000000000000000BB
:40054000000000000000000000000000000000000000000000000000000000000000000000000000000000000000000000000000000000000000000000000000000000007B
:40058000000000000000000000000000000000000000000000000000000000000000000000000000000000000000000000000000000000000000000000000000000000003B
:0200000490006A
:0400000000004005B7
:0200000490105A
:04000000BC90ACAF55
:0200000490303A
:02000000FA60A4
:0200000490402A
:4000000000000000000000000000000000000000000000000000000000000000000000000000000000000000000000000000000000000000000000000000000000000000C0
:400040000000000000000000000000000000000000000000000000000000000000000000000000000000000000000000000000000000000000000000000000000000000080
:400080000000000000000000000000000000000000000000000000000000000000000000000000000000000000000000000000000000000000000000000000000000000040
:4000C0000000000000000000000000000000000000000000000000000000000000000000000000000000000000000000000000000000000000000000000000000000000000
:0200000490501A
:0C00000000012E16106900012E290AC90B
:00000001FF