:400000000080002011000000110700001107000008B5044B1A6803F53F5302331A6000F097FB00BFFA46004010B5054C237833B9044B13B10448AFF300800123237010BDB5
:400040005081FF1F00000000F0180000084B10B51BB108490848AFF300800848036803B910BD074B002BFBD0BDE81040184700BF000000005481FF1FF0180000C880FF1FE2
:400080000000000008B562B600F092F84FF47A7000F09EFC0B4B1B68012B05D100F0A4F9A02000F095FCF5E7022B05D100F0B0F8A02000F08DFCEDE700F0F8F8A02000F07D
:4000C00087FCE7E7CC80FF1F0C4B1B68A3B1B3F1FF3F08D1094B5B6813F1280F0CDB013B064A53607047012B06D1044B5B68282B02DC0133014A5360704700BF6C81FF1F34
:400100000B4BB3F90C209A600A4B1B68012B03D10222084B1A607047022B03D10322054B1A607047032B02D10122024B1A6070476C81FF1FCC80FF1F08B5012000F02CFE61
:4001400000F07AFE0021084600F084FE074800F011FE0021012000F07DFE054800F00AFE4FF47A7000F034FC08BD00BFF41800000019000008B500F0FBFB00F007FC08BDA5
:4001800008B500F02FFD00F027FF08BD08B5054800F084FC044800F0A9FC044800F0A8FE08BD00BF0101000029030000C900000008B5FFF7C1FFFFF7E9FFFFF7E1FFFFF7B6
:4001C000D9FF08BDF8B507460E4615461C46012000F0E2FD0021084600F03CFE384600F0C9FD0F21002000F035FEF0B200F0D0FD0021012000F02EFE284600F0BBFD0F2124
:40020000012000F027FEE0B200F0C2FDF8BD00BF08B500F0C3FB40F6980398420ADD00F0BDFB40F64753984204DC1F4A93680133936024E000F0B2FB40F26B73984209DCA9
:4002400000F0ACFBB0F5167F04DD174A9368013B936014E000F0A2FB40F64953984204DD114A93680233936009E000F097FB40F25623984203DC0C4A9368023B93600A4B10
:400280009B6813F1290F03DA6FF02802064B9A60054B9B68292B02DD2922034B9A60024BB3F90800988108BD6C81FF1F08B500F075FB40F60403984212DDA0F60200164B2F
:4002C00083FB0023C017C0EB631042F2107393FBF0F080B200F028FE0122104B1A6008BDB0F5006F14DAC0F5006002300A4B83FB0023C017C0EB631042F2107393FBF0F0E5
:4003000080B200F011FE4FF0FF32044B1A6008BD0022024B1A6008BDB5814E1B6C81FF1F08B500F067FE08BD10B5FFF7F9FF002830D0194B1B68012B0ED1184C184BB3F91F
:400340000C201849204600F0AFFE0023224603211548FFF737FF10BD022B0ED10F4C104BB3F90C200F49204600F09EFE0023224601210E48FFF726FF10BD084C084B5A68B0
:400380000849204600F090FE0023224601210848FFF718FF10BD00BFCC80FF1F9081FF1F6C81FF1F0C1900001C190000241900002C1900001D2804DD40F6D273984202DC99
:4003C00003E01E2001E040F6D2701E38522303FB00F3044880FB0320DB17C3EBA0202938704700BF4DBF354138B50024254603E000F0D4FA05440134092CF9DD054880FBB6
:400400000530ED17C5EBA000FFF7D4FF00B2024B988138BD676666666C81FF1FFEE700BFF0B40022174611E050F82760F3B226F0FF0608E001EB420511F812406D78A5551D
:400440000132013BDBB2002BF4D101371C2FEBD9F0BC704708B50A46002100F01CFE08BDF8B5184B1B78DBB2174E3478E4B2174F3D78EDB203F00701154A11701B09013226
:40048000137044F00303337045F003033B700122104B1A70402302F1804202F5B24213700232137010220C4B1A70202203331A700A2000F0A3FA3D7034704422074B1A7052
:4004C000F8BD00BFCF010049F8460040F94600406E5800400D510040205B00407658004008B500F0CDFD08BD38B53322344B1A801823344A137040F65F1233490A80023152
:400500000B7002310A80314A137043F69722304B1A80192502331D7004222E492E48FFF7DFFF02222D4B1A7008224FF040231A70032103F500731970294B1B78DBB22949FD
:400540000B70294B1A8041F25122023B1A8000240CE0264B1B7803F0010343EA440404F003044FF4F07000F04FFD013D0DB1032CEFD115B90320FFF751FF1D4B4FF480725C
:400580001A8007221A7000221A490A704820023108701A700222033B1A7004220A331A70154A137843F00F031370013A137843F001031370013A137843F08003137038BD53
:4005C0008040004082400040844000408A4000408C40004058060048004100400043004008010049A146004022420040254200400440004006400040A243004038B572B62D
:40060000304A137843F00403137000240CE02E4D630019194A0011462A44084691882858FFF718FF0134E4B2052CF0D927494FF09040FFF7F5FE264A137843F002031370F2
:400640001032137843F002031370224C237843F040032370A2F58632513A137843F01003137008221C491D48FFF73AFF0A221C491C48FFF735FF0A221B491C48FFF730FF57
:4006800008221B491B48FFF72BFF08221A491B48FFF726FF1A4A137843F008031370194D61232B70FFF720FF81232B700122164B1A70FFF7D5FE0E2221461448FFF710FFC6
:4006C00038BD00BFE8460040341900007400004803500140A0430040280600480251004030060048C05100403C060048F051004048060048125100405006004822510040AB
:40070000224300400048004004000840B043004008B500F089FC03680C2B00D1FEE7FEE708B5094B1A681044084BC31A802B02DC054B186005E000F077FC0C2303604FF01D
:40074000FF32104608BD00BFD480FF1FC881FF1F08B5104E104D16E029686B68AC68002204E051F8040B43F8040B0432A242F8D1E868002203E0002143F8041B043282425A
:40078000F9D11035013E002EE6D100F053FCFFF779FCFEE701000000F419000008B5104A104B1A60104A136843F40073136000230AE0032B03D80D4A52F8231000E00C496C
:4007C0000C4A42F8231001332F2BF2D90A4B1A780A4B1A70074A0A4B1A60FFF70FFF08BD0004FA050CED00E014ED00E000000000110700000080FF1FBC760040C080FF1FEB
:4008000008ED00E008B50A280FD00C2802D0082806D102E04FF4805209E04FF4807206E0002000F0D3F8002201E04FF480620021094B198042F2107303FB02F303F6C41382
:40084000064A82FB0302DB17C3EBE223044A1360044B198008BD00BFB881FF1FAD8BDB68BC81FF1FBA81FF1F10B500F0D5FB04461E4A137843F0010313701032137843F0D2
:40088000010313701A3A137843F0010313701032137843F00103137002F5AA521232137843F0030313701822114B1A70013B1A7842F040021A701A7802F0FC021A70C82231
:4008C000053B1A700222A3F597530C3B1A70094A137843F0080313700A2000F08FF80122054B1A60204600F09BFB10BDAB43004006590040275B004080E200E010B50446F1
:400900000A280DD00C2802D0082804D101E0C22207E0422205E0002000F058F8C22200E08222034B1A702046FFF76CFF10BD00BF0259004008B5102000F03EF807210020BF
:4009400000F07AF80749002000F062F8064A137843F0060313700C20FFF7D0FF0022034B1A8008BDB509000001590040C081FF1F08B5054B1B7823B9FFF7DCFF0122024B8D
:400980001A70FFF771FF08BD8081FF1F024A137843F001031370704700590040034B188880B2034B1B88C01A00B27047A05B0040BA81FF1F704700BF034B1A7800F0F8005C
:4009C00010431870704700BF0241004001BE704710B5044605E0084B186800F015FBA4F50044B4F5004FF6D8034B586800FB04F000F00AFB10BD00BFD880FF1F08B5034B44
:400A00001B7A00FB03F000F0FFFA08BDD880FF1F70B504460E46074B1D681F2802D90020FFF7D4FF04F01F04103455F8240045F8246070BD08ED00E038B504460D46072921
:400A400002D90020FFF7C2FF1F2C02D90020FFF7BDFF04F01F0000F1604000F564406D01EDB2057038BD00BF014B1B68D864704708ED00E04001C0B2014B1870704700BFC5
:400A800003E400E00822014B1A60704700E100E00822014B1A60704780E100E010B50446FFF7F6FF2046FFF7DFFF0720FFF7E2FFFFF7E8FF10BD00BF014B1B689864704702
:400AC00008ED00E04001C0B2014B1870704700BF02E400E00422014B1A60704700E100E00422014B1A60704780E100E010B50446FFF7F6FF2046FFF7DFFF0720FFF7E2FFE4
:400B0000FFF7E8FF10BD00BF024A137843F080031370704777650040014B1880704700BF0C6A0040014B1880704700BF8C6A0040014B1880704700BF4C6A0040014B188095
:400B4000704700BF6C6A0040014B1870704700BF87650040014B1878704700BF67650040014B188880B27047AC6A004008B501E0FFF7F6FFFFF7EEFF10F0100FF8D108BDD1
:400B800010B5164A137803F0C00343F0090313701F32137843F001031370114C237843F00103237040F2A460FFF7B6FF40F2A460FFF7B8FF7F20FFF7BBFF3F20FFF7BEFF90
:400BC0000020FFF7C1FF00F027FA237843F01003237000F025FAFFF7C9FF10BD776500409765004008B5054B1B7823B9FFF7C8FF0122024B1A70FFF787FF08BD8181FF1F14
:400C000010B50B4C237803F09F032370237803F0F00323702378184340F0100020700120FFF7ECFE237803F0EF03237010BD00BF2051004038B505460E4C237843F0200327
:400C40002370237803F0BF0323700020FFF7D6FE237803F0F003237023781D4345F0100525700120FFF7CAFE237803F0EF03237038BD00BF2051004070B5354B1A7802F0A6
:400C80008002D2B21A7033490A7802F0F00242F00F020A7001310A7802F0F0020A7001310A7802F0F0020A701A7802F0DF021A701A7842F040021A704FF4CA760020FFF7C9
:400CC0009DFE234D2B7843F010032B700120FFF795FE214B1C78E4B22B7803F0EF032B700020FFF78BFE04F00804E4B22B7843F010032B700120FFF781FE2B7803F0EF032B
:400D00002B7014B90A20FFF779FE013E0CB1002ED4D10F4A137803F0BF031370137803F08003DBB213700232137803F0F00313700132137803F0F00343F00F0313700132F1
:400D4000137803F0F00343F00F03137070BD00BF20510040225100402151004010B50446FFF78AFF2009FFF765FF04F00F00FFF761FF10BD38B505460078012404E0FFF752
:400D8000EDFF285D0134E4B20028F8D138BD00BF08B5FFF7E3FF08BD10B50446FFF76CFF2009FFF72DFF04F00F00FFF729FF10BD08B52820FFF70CFE0320FFF721FF0520EC
:400DC000FFF706FE0320FFF71BFF0F20FFF700FE0320FFF715FF0120FFF7FAFD0220FFF70FFF0520FFF7F4FD0620FFF7D5FF0E20FFF7D2FF2C20FFF7CFFF0820FFF7CCFF58
:400E00000120FFF7C9FF0C20FFF7C6FF0320FFF7C3FF0520FFF7DCFD014800F039F808BD5819000008B50C20FFF7B6FF0122014B1A7008BD8281FF1F08B5054B5B7823B94E
:400E4000FFF7B6FF0122024B5A70FFF7EBFF08BD8281FF1F08B5032819D8DFE800F002070D1381F08000FFF797FF08BDA1F14000C0B2FFF791FF08BDA1F16C00C0B2FFF7D7
:400E80008BFF08BDA1F12C00C0B2FFF785FF08BD38B50546FFF7F0FE4020FFF77DFF002404E0285DFFF75AFF0134E4B23F2CF8D9FFF7E2FE8020FFF76FFF38BD014B1B6805
:400EC0005864704708ED00E04001C0B2014B1870704700BF01E400E00222014B1A60704700E100E00222014B1A60704780E100E010B50446FFF7F6FF2046FFF7DFFF072049
:400F0000FFF7E2FFFFF7E8FF10BD00BF024A137843F08003137070477B640040014B1880704700BF14680040014B1880704700BF94680040014B1880704700BF5468004089
:400F4000014B1870704700BF8B640040014B1878704700BF6B640040014B188880B27047B468004008B501E0FFF7F6FFFFF7EEFF10F0100FF8D108BD10B5154A137803F0AB
:400F8000C00343F0090313701F32137843F001031370104C237843F00103237042F21070FFF7BCFF42F21070FFF7BEFF4FF47A70FFF7C0FF0020FFF7C3FF00F02DF823781F
:400FC00043F01003237000F02BF8FFF7CBFF10BD7B6400409B64004008B5054B1B7823B9FFF7CAFF0122024B1A70FFF78FFF08BD8481FF1F024B1878C0F3C000704700BFB3
:40100000F1510040000000000230800803D000BF01380046FCD17047EFF3108072B6704780F31088704700BF014B1868704700BF4881FF1F0E4B70B51E460E4C0025E41A85
:40104000A410A54204D056F8253098470135F8E700F0BEFC084B094C1E46E41AA4100025A54204D056F8253098470135F8E770BDDC190000DC190000DC190000E419000082
:4010800010B5431E0A44914204D011F8014B03F8014FF8E710BD03460244934202D003F8011BFAE7704700000EB400B54FF402719CB0ADF814106FF00041049107914FF690
:4010C000FF711DAB02900690084853F8042BADF81610006802A9019300F064F8029B00221A701CB05DF804EB03B070474881FF1F2DE9F0478E6882469E420C46914698466C
:401100003ED88A8912F4906F3AD02568096902236F1A656905EB450595FBF3F57B1C43449D4238BF1D4653050FD5294600F040FB064698B13A462169FFF7A2FFA38923F4A4
:40114000906343F08003A38113E02A4600F08EFB064670B92169504600F0DEFA0C23CAF80030A3894FF0FF3043F04003A381BDE8F08726613E44266046466561ED1BA5600A
:40118000464528BF464649463246206800F0A8FAA36800209B1BA36023681E442660BDE8F08700002DE9F04F9DB003938B8980461C060D4616460DD50B695BB9402100F0FF
:4011C000F7FA2860286118B90C23C8F80030CDE040236B610023099320238DF82930DFF89CB130238DF82A3037463C4614F8013B1BB9B7EB060910D003E0252BF9D02746D6
:40120000F3E74B46324629464046FFF771FF013000F0A780099B4B4409933B78002B00F0A08000234FF0FF3204930793059206938DF853301A930126052221784E4800F055
:4012400041FA671C049B38B14B4A3C46801A06FA00F018430490EFE7D90644BF20228DF853201A0744BF2B228DF8532022782A2A03D0079A00210A200BE0039A111D126860
:401280000391002A10DA524243F00200079204900BE027463B780134303B092B03D800FB02320121F5E701B107923B782E2B1ED17B782A2B0AD1039B02371A1D1B6803921A
:4012C000002BB8BF4FF0FF33059310E0002319460593781C0A2407463A780130303A092A03D804FB01210123F5E703B1059103223978224800F0E6F940B14023CBEB00004B
:4013000003FA00F0049B013718430490397806221B487E1C8DF8281000F0D4F988B1194B33B9039B073323F007030833039314E003AB00932A46144B04A94046AFF3008002
:4013400007E003AB00932A460F4B04A9404600F093F8B0F1FF3F824603D0099B5344099342E7AB895B0601D4099801E04FF0FF301DB0BDE8F08F00BF9A190000A0190000DD
:40138000A419000000000000F11000002DE9F04791461F460A698B6806469342B8BF1346C9F8003091F843200C46DDF8208012B10133C9F800302368990642BFD9F80030D7
:4013C0000233C9F80030256815F0060510D104F1190A07E00123524639463046C04701301AD00135E368D9F800209B1A9D42F1DB94F843302268003318BF012392060FD572
:40140000E118302081F843005A1C94F845102244023382F8431003E04FF0FF30BDE8F08704F1430239463046C0470130F4D02268D9F80050E36802F00602042A08BF5D1BF3
:401440002269A3680CBF25EAE57500259342C4BF9B1AED184FF000091A344D4509D00123224639463046C0470130D5D009F10109F3E70020BDE8F0872DE9F04317460A7EC4
:4014800085B06E2A984606460C460C9B01F1430E00F0AE8011D8632A22D009D8002A00F0BB80582A40F0CA8081F84520834955E0642A1ED0692A1CD0C0E0732A00F0B0800A
:4014C00009D86F2A2ED0702A40F0B8800A6842F020020A603EE0752A24D0782A3AD0ADE01A6801F14205111D1960136884F84230A8E021681A6811F0800F02D0111D1960F1
:4015000008E011F0400F02F10401196002D0B2F9003000E01368002B3CDA2D225B4284F8432037E021681A6811F0800F02D0111D196007E011F0400F02F10401196001D04A
:40154000138800E01368227E5C496F2A14BF0A2208221BE078225A4984F845202268186812F0800F00F104051D6003D1550601D5038800E00368D00744BF42F020022260B8
:401580001BB9226822F0200222601022002084F8430001E049490A226568002DA56008DB206820F0040020602BB9002D7DD175460CE0002B79D07546B3FBF2F002FB103364
:4015C000CB5C05F8013D03460028F5D1082A0BD12368DA0708D5236962689A42DEBF302305F8013C05F1FF35C5EB0E0323612EE008681A6810F0800F496903D0101D186077
:40160000136808E010F0400F02F104001860136801D0198000E0196000232361754616E01A68111D1960156800216268284600F049F808B1401B6060636804E004F1420504
:4016400084F8422001232361002384F84330CDF800803B4603AA21463046FFF797FE013002D14FF0FF3026E023692A4639463046C0470130F5D023689B0710D5002504F165
:40168000190907E001234A4639463046C0470130E7D00135E368039A9B1A9D42F2DBE068039B9842B8BF184605E00B7804F1420584F842308AE705B0BDE8F083AB190000E1
:4016C000BC19000010B5C9B202449042034605D01C7801308C42F8D1184610BD002010BD884210B501EB020301D8421E0BE09842FBD28118D21AD34204D013F8014D01F820
:40170000014DF8E710BD994204D011F8014B02F8014FF8E710BD000038B50546002944D051F8043C0C1F002BB8BFE41800F0D4F81E4A1368114613B96360146030E0A34200
:401740000DD92268A018834201BF18685B681218226063600C6023E0A24203D813465A68002AF9D118681918A1420BD12168014458188242196013D110685268014419600E
:401780005A600DE002D90C232B6009E021686018824201BF106852680918216062605C602846BDE8384000F098B838BD8C81FF1F70B5CD1C25F0030508350C2D38BF0C2579
:4017C000002D064601DBA94202D90C23336046E000F082F8234B1C681A462146A1B10B685B1B0ED40B2B03D90B60CC18CD501EE08C420BBF63684B681360636018BF0C46B5
:4018000015E00C464968E9E7174C23681BB9304600F052F820602946304600F04DF8431C18D0C41C24F00304A0420DD12560304600F053F804F10B00231D20F00700C31A68
:401840000ED05A42E25070BD211A304600F034F80130EBD10C233360304600F03EF8002070BD00BF8C81FF1F8881FF1FF8B5074615460E4621B91146BDE8F840FFF798BF15
:401880001AB9FFF749FF2846F8BD00F027F885420ED929463846FFF78BFF044650B131462A46FFF7EDFB31463846FFF735FF01E03046F8BD2046F8BD38B5064C00230546C7
:4018C00008462360FEF72CFF431C02D1236803B12B6038BDC481FF1F7047704751F8040C0028BEBF091851F8043CC01804387047000000005374617274696E670000000076
:401900004170706C69636174696F6E00256920202020202020202020202020006D6F6465203100006D6F6465203200006D6F646520330000305100404000000001400010CE
:4019400000140140000800400140000A004C014000020050014020000C12120C000000000E11111F1F1B1B1F0C12120C000000000E11011F1F1B1B1F06040604040E0A0E13
:40198000000E080E020E0000000E080E020E000000040404000400004300232D302B2000686C4C006566674546470030313233343536373839414243444546003031323315
:4019C00034353637383961626364656600000000F8B500BFF8BC08BC9E4670474D0000009D070000F8B500BFF8BC08BC9E46704729000000081A0000C880FF1F8800000023
:401A00007800000000000000000000000300000001000000C881FF1F0000E02EC05D00001800000000366E01000000000000000000000000000000000000000000000000DB
:401A400000000000000000009819000000000000000000000000000000000000000000000000000000000000000000000000000000000000000000000000000000000000B5
:401A80000000000000000000E880FF1F00000000000000000000000000000000000000000000000000000000000000000000000000000000000000000000000000000000A0
:401AC00000000000000000000000000000000000000000000000000000000000000000000000000000000000000000000000000000000000000000000000000000000000E6
:401B000000000000000000000000000000000000000000000000000000000000000000000000000000000000000000000000000000000000000000000000000000000000A5
:401B40000000000000000000000000000000000000000000000000000000000000000000000000000000000000000000000000000000000000000000000000000000000065
:401B80000000000000000000000000000000000000000000000000000000000000000000000000000000000000000000000000000000000000000000000000000000000025
:020000040003F7
:0200000480007A
:400000000252004002640040036500400203014002050140020701404E0801403B0901405E0A0140310B01400215014049160140261701404718014044190140421A014073
:40004000431B01400640014006410140054201400443014004460140024701400248014005490140014C0140094D01400550014002510140618064408A0F8B0D870F8872FE
:400080008B38A740AB40A740E610A740EE040233040C0502084F09060A100B090C410F0110731106120C13091403187F190F1C4C1E232240240225092706280429062C08F3
:4000C0002D04340F3507367C370839803AA03B28580459045F018101830E84108501860C87068B0C8C0C8D0C8E118F039603970398099A109C1C9E02A410A708A814B10F56
:40010000B21FBB02C026C101C50EC60CC70BC815C9FFCAFFCBFFCEF0CF44D00CD804D904DA04DF01E6C0EA40EB0200040201054006A007040A2A0D080E4A101012041540D0
:40014000160817091A201D201E021F1022012340251026842714281029042DC02E202F1030083601371038043A033B503D203E8840044202482850805204900497409808F6
:400180009E01A4B8A680A720A880AB10AC21C0F5C2F7C4F6CA72CCA2CE7FD00CD204EE04010404030504060C0A080C030E040F04100A1204170419011F0420032204230281
:4001C0002A052F023102340F350137043A203F504040410349FF4AFF4BFF4DA04F0450185401580459045A045B045C205D025F01604062C06440654066C068C06AC06CC0D3
:400200006EC083018E029E049F02A702A901AA02AE01B001B204B302B402B701BE10BF04C040C102C5D0C712C832C9FFCAFFCBFFCDAFCE0FCF04D018D280D405D804D904F2
:40024000DA04DB04DC22DD22DF01E040E2C0E440E540E6C0E8C0EAC0ECC0EEC0002402010440080809080B400F0210881604174018041C401E081F062242230825082640B1
:400280002A022B022F2430A8368038043A013B403F024280430A46844F015606570958015A805B185E885F0177408E02C087C288C4CACA69CC1ECE8BD0A3D6DFE610E6021E
:4002C000EA080E011F012101310136014010410649FF4AFF4BFF4DA04F045018580459045A045C115D015F01604062C06440654066C068C06AC06CC06EC0820287028B047D
:400300008D04920293029601AF01B001B101B302B504B602BF04C040C103C5D0C651C702C81EC9FFCAFFCBFFCDAFCE0FCF04D018D280D407D804D904DA04DB04DC11DD1164
:40034000DF01E040E2C0E440E540E6C0E8C0EAC0ECC0EEC00280048009020B2018401B401F8021022214238027402A802F803102368038483B2041024308478049014C0443
:4003800050445280531859015A285B407280A740C088C20CCA88CC11CE0ED013D220D60F0108050406040A040F10110E150C160217021801190E1C011F102301240125028B
:4003C000270C2801290C2F023001310E3510360637013E413F10403441024205440146EC480C49FF4AFF4BFF4C624DA04EF04F41500C56025710580459045A045B045F0146
:400400006640670269106A306B106D106E106F12850188028F019502A101A601B002B201B303B908BE01D804D904DC03DF010308050807080C100D280E02110817141B0A1F
:400440001D801E402020220423102510260227412A012C102EA02F8030083601375438043B403E0A3F8044104582468047104E0257605E406C016D106E047580762A892010
:400480008A409004922293409608971098089B149DC49EA99F09A120A201A418A508A720B520B640C062C2E0C464CAF1CCF2CEDAD0F0D210D6100403070A0B0C0C030F062C
:4004C000170219011C02210C230227042A01310E3203350138083B023E043F104003450449FF4A074BFF4C404D204EF04F055008580459045A045F01604061A862406320B4
:4005000080018406851F8804891F8C029206940695149709980199019B069E06A006A10AA311A606A801B001B307B518B606D418D604D804D904DB04DF010044020104027E
:400540000540071808400A020D0A0E06100815101640170418101D021E012040222025082728284029042F8030083210372838443B103D103E044010490450085E01640833
:4005800067418220874089488B80900691109226931198089A409B149D4C9E019F08A201A408A50AA780AF02B514B701C0F5C2F1C472CA83CC66CE6ED002D680D8B0E4011E
:4005C0003322360837803B40CCF0CE1097409F80A608A720AB02EA208F8097409F80A608A7209740A608AB20EE2003101B04C008C6089B10AB049740A60887409740AE08A7
:40060000E640EA109B101040700480048840B710C408DC01E201EE0200050C05100B1A021C0900FF01030000000000000000010080004080800080000000000010000818B6
:400640000000000000000000000B0B0000000000007F7F00000000000E0018010000000000000000000000000000000000000000000000000000000000000000000000003F
:40068000000000000000000000000000000000000000000000000000000000000000000000000000000000000000000000000000000000000000000000000000000000003A
:4006C00000000000000000000000000000000000000000000000000000000000000000000000000000000000000000000000000000000000000000000000000000000000FA
:4007000000000000000000000000000000000000000000000000000000000000000000000000000000000000000000000000000000000000000000000000000000000000B9
:400740000000000000000000000000000000000000000000000000000000000000000000000000000000000000000000000000000000000000000000000000000000000079
:0200000490006A
:0400000000004005B7
:0200000490105A
:04000000BC90ACAF55
:0200000490303A
:02000000BEBE82
:0200000490402A
:4000000000000000000000000000000000000000000000000000000000000000000000000000000000000000000000000000000000000000000000000000000000000000C0
:400040000000000000000000000000000000000000000000000000000000000000000000000000000000000000000000000000000000000000000000000000000000000080
:400080000000000000000000000000000000000000000000000000000000000000000000000000000000000000000000000000000000000000000000000000000000000040
:4000C0000000000000000000000000000000000000000000000000000000000000000000000000000000000000000000000000000000000000000000000000000000000000
:0200000490501A
:0C00000000012E16106900012E21CF27F0
:00000001FF